{
  "_format": "hh-sol-artifact-1",
  "contractName": "EscrowExtractor",
  "sourceName": "contracts/bufi/extractors/EscrowExtractor.sol",
  "abi": [
    {
      "inputs": [],
      "name": "ACTION_EXECUTE",
      "outputs": [
        {
          "internalType": "uint8",
          "name": "",
          "type": "uint8"
        }
      ],
      "stateMutability": "view",
      "type": "function"
    },
    {
      "inputs": [],
      "name": "ACTION_FUND",
      "outputs": [
        {
          "internalType": "uint8",
          "name": "",
          "type": "uint8"
        }
      ],
      "stateMutability": "view",
      "type": "function"
    },
    {
      "inputs": [],
      "name": "ACTION_LOCK",
      "outputs": [
        {
          "internalType": "uint8",
          "name": "",
          "type": "uint8"
        }
      ],
      "stateMutability": "view",
      "type": "function"
    },
    {
      "inputs": [],
      "name": "ACTION_SET_DECISION",
      "outputs": [
        {
          "internalType": "uint8",
          "name": "",
          "type": "uint8"
        }
      ],
      "stateMutability": "view",
      "type": "function"
    },
    {
      "inputs": [],
      "name": "ACTION_STATUS",
      "outputs": [
        {
          "internalType": "uint8",
          "name": "",
          "type": "uint8"
        }
      ],
      "stateMutability": "view",
      "type": "function"
    },
    {
      "inputs": [],
      "name": "PARAM_ACTION_TYPE",
      "outputs": [
        {
          "internalType": "bytes32",
          "name": "",
          "type": "bytes32"
        }
      ],
      "stateMutability": "view",
      "type": "function"
    },
    {
      "inputs": [],
      "name": "PARAM_EXECUTOR_AGENT",
      "outputs": [
        {
          "internalType": "bytes32",
          "name": "",
          "type": "bytes32"
        }
      ],
      "stateMutability": "view",
      "type": "function"
    },
    {
      "inputs": [],
      "name": "PARAM_MILESTONE_INDEX",
      "outputs": [
        {
          "internalType": "bytes32",
          "name": "",
          "type": "bytes32"
        }
      ],
      "stateMutability": "view",
      "type": "function"
    },
    {
      "inputs": [],
      "name": "PARAM_PAYEE_BPS",
      "outputs": [
        {
          "internalType": "bytes32",
          "name": "",
          "type": "bytes32"
        }
      ],
      "stateMutability": "view",
      "type": "function"
    },
    {
      "inputs": [],
      "name": "PARAM_RECEIPT_HASH",
      "outputs": [
        {
          "internalType": "bytes32",
          "name": "",
          "type": "bytes32"
        }
      ],
      "stateMutability": "view",
      "type": "function"
    },
    {
      "inputs": [
        {
          "components": [
            {
              "internalType": "address",
              "name": "target",
              "type": "address"
            },
            {
              "internalType": "bytes4",
              "name": "selector",
              "type": "bytes4"
            },
            {
              "internalType": "bytes",
              "name": "data",
              "type": "bytes"
            }
          ],
          "internalType": "struct IPolicyEngine.Payload",
          "name": "payload",
          "type": "tuple"
        }
      ],
      "name": "extract",
      "outputs": [
        {
          "components": [
            {
              "internalType": "bytes32",
              "name": "name",
              "type": "bytes32"
            },
            {
              "internalType": "bytes",
              "name": "value",
              "type": "bytes"
            }
          ],
          "internalType": "struct IPolicyEngine.Parameter[]",
          "name": "",
          "type": "tuple[]"
        }
      ],
      "stateMutability": "pure",
      "type": "function"
    }
  ],
  "bytecode": "0x608060405234801561001057600080fd5b50610871806100206000396000f3fe608060405234801561001057600080fd5b50600436106100a95760003560e01c80636316aa55116100715780636316aa551461013257806368b43292146101595780639263edd514610180578063b228698c146101a7578063e879442b146101af578063f05b55ef146101d657600080fd5b806313259940146100ae57806322efcc4f146100cd5780633a90c290146100d55780633d19d5d71461010a578063466c4ca31461012a575b600080fd5b6100b6600581565b60405160ff90911681526020015b60405180910390f35b6100b6600181565b6100fc7fc16bd8ad5a4ac1866ad768961bbdc5768e29c0ed46981ba1bf1aa05b40ef27a281565b6040519081526020016100c4565b61011d61011836600461057d565b6101de565b6040516100c49190610687565b6100b6600281565b6100fc7f8d6ae6557a1b665a8217f86cbde0677827f5bb852e3ceff475871efb0f7ca41781565b6100fc7f35364aa2d8638d8ce167cd0c60590f777d870e3c32d07da9d14cc2c54235ede781565b6100fc7fb312940f9f99e3337a9bbd311a3b0145234930258fa7b71f4542b0a42ae9dcd281565b6100b6600381565b6100fc7f04300f71330244d2e2981352994b28d017ca9cebeaf9943595591cc9f83ce11881565b6100b6600481565b6060600082604001518060200190518101906101fa9190610767565b91505060008060008060008580602001905181019061021991906107cb565b60408051600580825260c08201909252959a509398509196509450925060009190816020015b60408051808201909152600081526060602082015281526020019060019003908161023f57905050905060405180604001604052807f8d6ae6557a1b665a8217f86cbde0677827f5bb852e3ceff475871efb0f7ca4178152602001876040516020016102b4919060ff91909116815260200190565b604051602081830303815290604052815250816000815181106102d9576102d9610825565b602002602001018190525060405180604001604052807f35364aa2d8638d8ce167cd0c60590f777d870e3c32d07da9d14cc2c54235ede781526020018660405160200161032891815260200190565b6040516020818303038152906040528152508160018151811061034d5761034d610825565b602002602001018190525060405180604001604052807f04300f71330244d2e2981352994b28d017ca9cebeaf9943595591cc9f83ce1188152602001856040516020016103a991906001600160a01b0391909116815260200190565b604051602081830303815290604052815250816002815181106103ce576103ce610825565b602002602001018190525060405180604001604052807fb312940f9f99e3337a9bbd311a3b0145234930258fa7b71f4542b0a42ae9dcd281526020018460405160200161041d91815260200190565b6040516020818303038152906040528152508160038151811061044257610442610825565b602002602001018190525060405180604001604052807fc16bd8ad5a4ac1866ad768961bbdc5768e29c0ed46981ba1bf1aa05b40ef27a281526020018360405160200161049191815260200190565b604051602081830303815290604052815250816004815181106104b6576104b6610825565b602090810291909101015298975050505050505050565b634e487b7160e01b600052604160045260246000fd5b6040516060810167ffffffffffffffff81118282101715610506576105066104cd565b60405290565b604051601f8201601f1916810167ffffffffffffffff81118282101715610535576105356104cd565b604052919050565b6001600160a01b038116811461055257600080fd5b50565b600067ffffffffffffffff82111561056f5761056f6104cd565b50601f01601f191660200190565b6000602080838503121561059057600080fd5b823567ffffffffffffffff808211156105a857600080fd5b90840190606082870312156105bc57600080fd5b6105c46104e3565b82356105cf8161053d565b8152828401356001600160e01b0319811681146105eb57600080fd5b8185015260408301358281111561060157600080fd5b80840193505086601f84011261061657600080fd5b8235915061062b61062683610555565b61050c565b828152878584860101111561063f57600080fd5b82858501868301376000858483010152806040830152508094505050505092915050565b60005b8381101561067e578181015183820152602001610666565b50506000910152565b600060208083018184528085518083526040925060408601915060408160051b87010184880160005b8381101561070c57888303603f19018552815180518452870151878401879052805187850181905260606106e982828801858d01610663565b96890196601f91909101601f1916949094019093019250908601906001016106b0565b509098975050505050505050565b600082601f83011261072b57600080fd5b815161073961062682610555565b81815284602083860101111561074e57600080fd5b61075f826020830160208701610663565b949350505050565b6000806040838503121561077a57600080fd5b825167ffffffffffffffff8082111561079257600080fd5b61079e8683870161071a565b935060208501519150808211156107b457600080fd5b506107c18582860161071a565b9150509250929050565b600080600080600060a086880312156107e357600080fd5b855160ff811681146107f457600080fd5b60208701516040880151919650945061080c8161053d565b6060870151608090970151959894975095949392505050565b634e487b7160e01b600052603260045260246000fdfea2646970667358221220b8954fd1d7e6464018321cbb0d77e604562480157bd77e6cc63a44f704c6a96664736f6c63430008180033",
  "linkReferences": {},
  "deployedLinkReferences": {}
}