{
  "_format": "hh-sol-artifact-1",
  "contractName": "AgentIdentityPolicy",
  "sourceName": "contracts/bufi/policies/AgentIdentityPolicy.sol",
  "abi": [
    {
      "inputs": [
        {
          "internalType": "string",
          "name": "reason",
          "type": "string"
        }
      ],
      "name": "PolicyRejected",
      "type": "error"
    },
    {
      "anonymous": false,
      "inputs": [
        {
          "indexed": false,
          "internalType": "address",
          "name": "identityRegistry",
          "type": "address"
        },
        {
          "indexed": false,
          "internalType": "uint256",
          "name": "executorAgentId",
          "type": "uint256"
        },
        {
          "indexed": false,
          "internalType": "address",
          "name": "expectedOwner",
          "type": "address"
        }
      ],
      "name": "ConfigUpdated",
      "type": "event"
    },
    {
      "inputs": [],
      "name": "executorAgentId",
      "outputs": [
        {
          "internalType": "uint256",
          "name": "",
          "type": "uint256"
        }
      ],
      "stateMutability": "view",
      "type": "function"
    },
    {
      "inputs": [],
      "name": "expectedOwner",
      "outputs": [
        {
          "internalType": "address",
          "name": "",
          "type": "address"
        }
      ],
      "stateMutability": "view",
      "type": "function"
    },
    {
      "inputs": [],
      "name": "identityRegistry",
      "outputs": [
        {
          "internalType": "address",
          "name": "",
          "type": "address"
        }
      ],
      "stateMutability": "view",
      "type": "function"
    },
    {
      "inputs": [
        {
          "internalType": "address",
          "name": "_owner",
          "type": "address"
        },
        {
          "internalType": "address",
          "name": "_identityRegistry",
          "type": "address"
        },
        {
          "internalType": "uint256",
          "name": "_executorAgentId",
          "type": "uint256"
        },
        {
          "internalType": "address",
          "name": "_expectedOwner",
          "type": "address"
        }
      ],
      "name": "initialize",
      "outputs": [],
      "stateMutability": "nonpayable",
      "type": "function"
    },
    {
      "inputs": [],
      "name": "owner",
      "outputs": [
        {
          "internalType": "address",
          "name": "",
          "type": "address"
        }
      ],
      "stateMutability": "view",
      "type": "function"
    },
    {
      "inputs": [
        {
          "internalType": "address",
          "name": "",
          "type": "address"
        },
        {
          "internalType": "address",
          "name": "",
          "type": "address"
        },
        {
          "internalType": "bytes4",
          "name": "",
          "type": "bytes4"
        },
        {
          "internalType": "bytes[]",
          "name": "parameters",
          "type": "bytes[]"
        },
        {
          "internalType": "bytes",
          "name": "",
          "type": "bytes"
        }
      ],
      "name": "run",
      "outputs": [
        {
          "internalType": "enum IPolicyEngineForPolicy.PolicyResult",
          "name": "",
          "type": "uint8"
        }
      ],
      "stateMutability": "view",
      "type": "function"
    },
    {
      "inputs": [
        {
          "internalType": "address",
          "name": "_identityRegistry",
          "type": "address"
        },
        {
          "internalType": "uint256",
          "name": "_executorAgentId",
          "type": "uint256"
        },
        {
          "internalType": "address",
          "name": "_expectedOwner",
          "type": "address"
        }
      ],
      "name": "updateConfig",
      "outputs": [],
      "stateMutability": "nonpayable",
      "type": "function"
    }
  ],
  "bytecode": "0x608060405234801561001057600080fd5b50610706806100206000396000f3fe608060405234801561001057600080fd5b506004361061007d5760003560e01c8063be2030941161005b578063be203094146100da578063d0d53c1c146100ed578063e3e3094e14610100578063f19085781461012057600080fd5b8063134e18f4146100825780633eda0e0c146100b25780638da5cb5b146100c7575b600080fd5b600054610095906001600160a01b031681565b6040516001600160a01b0390911681526020015b60405180910390f35b6100c56100c03660046104c0565b610137565b005b600354610095906001600160a01b031681565b6100c56100e8366004610502565b61020e565b600254610095906001600160a01b031681565b61011361010e36600461059e565b61030f565b6040516100a99190610684565b61012960015481565b6040519081526020016100a9565b6003546001600160a01b031633146101965760405162461bcd60e51b815260206004820152601f60248201527f4167656e744964656e74697479506f6c6963793a206f6e6c79206f776e65720060448201526064015b60405180910390fd5b600080546001600160a01b038581166001600160a01b0319928316811790935560018590556002805491851691909216811790915560408051928352602083018590528201527fc720a6bb9ca4acc84cba1919347b808aaa6226d71f2942127bfb0075559719c89060600160405180910390a1505050565b600354600160a01b900460ff16156102795760405162461bcd60e51b815260206004820152602860248201527f4167656e744964656e74697479506f6c6963793a20616c726561647920696e696044820152671d1a585b1a5e995960c21b606482015260840161018d565b60038054600080546001600160a01b038781166001600160a01b031992831681179093556001879055600280548783169316831790556001600160a81b031990931692881692909217600160a01b1790925560408051928352602083018590528201527fc720a6bb9ca4acc84cba1919347b808aaa6226d71f2942127bfb0075559719c89060600160405180910390a150505050565b600060018410156103805760405162461bcd60e51b815260206004820152603560248201527f4167656e744964656e74697479506f6c6963793a20657870656374656420657860448201527432b1baba37b920b3b2b73a103830b930b6b2ba32b960591b606482015260840161018d565b6000546001546040516331a9108f60e11b81526001600160a01b0390921691636352211e916103b59160040190815260200190565b602060405180830381865afa9250505080156103ee575060408051601f3d908101601f191682019092526103eb918101906106ac565b60015b61043b57604051630e4254bb60e31b815260206004820152601d60248201527f6578656375746f72206167656e74206e6f742072656769737465726564000000604482015260640161018d565b6002546001600160a01b0382811691161461049957604051630e4254bb60e31b815260206004820152601d60248201527f6578656375746f72206167656e74206f776e6572206d69736d61746368000000604482015260640161018d565b50506000979650505050505050565b6001600160a01b03811681146104bd57600080fd5b50565b6000806000606084860312156104d557600080fd5b83356104e0816104a8565b92506020840135915060408401356104f7816104a8565b809150509250925092565b6000806000806080858703121561051857600080fd5b8435610523816104a8565b93506020850135610533816104a8565b925060408501359150606085013561054a816104a8565b939692955090935050565b60008083601f84011261056757600080fd5b50813567ffffffffffffffff81111561057f57600080fd5b60208301915083602082850101111561059757600080fd5b9250929050565b600080600080600080600060a0888a0312156105b957600080fd5b87356105c4816104a8565b965060208801356105d4816104a8565b955060408801356001600160e01b0319811681146105f157600080fd5b9450606088013567ffffffffffffffff8082111561060e57600080fd5b818a0191508a601f83011261062257600080fd5b81358181111561063157600080fd5b8b60208260051b850101111561064657600080fd5b6020830196508095505060808a013591508082111561066457600080fd5b506106718a828b01610555565b989b979a50959850939692959293505050565b60208101600283106106a657634e487b7160e01b600052602160045260246000fd5b91905290565b6000602082840312156106be57600080fd5b81516106c9816104a8565b939250505056fea26469706673582212205eb2d9023c17c8d0b7dcb35cb6fca48ec46afeba01733a7cfba64c340d7ca13764736f6c63430008180033",
  "linkReferences": {},
  "deployedLinkReferences": {}
}