{
  "_format": "hh-sol-artifact-1",
  "contractName": "DisputeWindowPolicy",
  "sourceName": "contracts/bufi/policies/DisputeWindowPolicy.sol",
  "abi": [
    {
      "inputs": [
        {
          "internalType": "string",
          "name": "reason",
          "type": "string"
        }
      ],
      "name": "PolicyRejected",
      "type": "error"
    },
    {
      "inputs": [],
      "name": "escrowContract",
      "outputs": [
        {
          "internalType": "address",
          "name": "",
          "type": "address"
        }
      ],
      "stateMutability": "view",
      "type": "function"
    },
    {
      "inputs": [
        {
          "internalType": "address",
          "name": "_owner",
          "type": "address"
        },
        {
          "internalType": "address",
          "name": "_escrowContract",
          "type": "address"
        }
      ],
      "name": "initialize",
      "outputs": [],
      "stateMutability": "nonpayable",
      "type": "function"
    },
    {
      "inputs": [],
      "name": "owner",
      "outputs": [
        {
          "internalType": "address",
          "name": "",
          "type": "address"
        }
      ],
      "stateMutability": "view",
      "type": "function"
    },
    {
      "inputs": [
        {
          "internalType": "address",
          "name": "",
          "type": "address"
        },
        {
          "internalType": "address",
          "name": "",
          "type": "address"
        },
        {
          "internalType": "bytes4",
          "name": "",
          "type": "bytes4"
        },
        {
          "internalType": "bytes[]",
          "name": "parameters",
          "type": "bytes[]"
        },
        {
          "internalType": "bytes",
          "name": "",
          "type": "bytes"
        }
      ],
      "name": "run",
      "outputs": [
        {
          "internalType": "enum IPolicyEngineForPolicy.PolicyResult",
          "name": "",
          "type": "uint8"
        }
      ],
      "stateMutability": "view",
      "type": "function"
    },
    {
      "inputs": [
        {
          "internalType": "address",
          "name": "_escrowContract",
          "type": "address"
        }
      ],
      "name": "setEscrowContract",
      "outputs": [],
      "stateMutability": "nonpayable",
      "type": "function"
    }
  ],
  "bytecode": "0x608060405234801561001057600080fd5b506107cc806100206000396000f3fe608060405234801561001057600080fd5b50600436106100575760003560e01c8063485cc9551461005c5780638da5cb5b14610071578063e3e3094e146100a1578063e42a96e7146100c1578063f42375b5146100d4575b600080fd5b61006f61006a36600461048f565b6100e7565b005b600154610084906001600160a01b031681565b6040516001600160a01b0390911681526020015b60405180910390f35b6100b46100af36600461050b565b610193565b60405161009891906105ed565b600054610084906001600160a01b031681565b61006f6100e2366004610615565b6103f7565b600154600160a01b900460ff16156101575760405162461bcd60e51b815260206004820152602860248201527f4469737075746557696e646f77506f6c6963793a20616c726561647920696e696044820152671d1a585b1a5e995960c21b60648201526084015b60405180910390fd5b60018054600080546001600160a01b039485166001600160a01b0319919091161790556001600160a81b0319169190921617600160a01b179055565b600060028410156102045760405162461bcd60e51b815260206004820152603560248201527f4469737075746557696e646f77506f6c6963793a206e656564206d696c6573746044820152746f6e65496e646578202b20616374696f6e5479706560581b606482015260840161014e565b60008585600081811061021957610219610637565b905060200281019061022b919061064d565b8101906102389190610694565b905060008686600181811061024f5761024f610637565b9050602002810190610261919061064d565b81019061026e91906106ad565b905060ff8116600214801590610288575060ff8116600414155b15610298576000925050506103ec565b60008054604051632442e1cb60e01b8152600481018590526001600160a01b0390911690632442e1cb9060240160e060405180830381865afa1580156102e2573d6000803e3d6000fd5b505050506040513d601f19601f8201168201806040525081019061030691906106ef565b905060031960ff8316016103795760008160a0015111801561032b57508060a0015142105b1561037957604051630e4254bb60e31b815260206004820152601960248201527f646973707574652077696e646f77207374696c6c206f70656e00000000000000604482015260640161014e565b60011960ff8316016103e45760008160a0015111801561039d57508060a001514210155b156103e457604051630e4254bb60e31b8152602060048201526016602482015275191a5cdc1d5d19481dda5b991bddc8195e1c1a5c995960521b604482015260640161014e565b600093505050505b979650505050505050565b6001546001600160a01b031633146104515760405162461bcd60e51b815260206004820152601f60248201527f4469737075746557696e646f77506f6c6963793a206f6e6c79206f776e657200604482015260640161014e565b600080546001600160a01b0319166001600160a01b0392909216919091179055565b80356001600160a01b038116811461048a57600080fd5b919050565b600080604083850312156104a257600080fd5b6104ab83610473565b91506104b960208401610473565b90509250929050565b60008083601f8401126104d457600080fd5b50813567ffffffffffffffff8111156104ec57600080fd5b60208301915083602082850101111561050457600080fd5b9250929050565b600080600080600080600060a0888a03121561052657600080fd5b61052f88610473565b965061053d60208901610473565b955060408801356001600160e01b03198116811461055a57600080fd5b9450606088013567ffffffffffffffff8082111561057757600080fd5b818a0191508a601f83011261058b57600080fd5b81358181111561059a57600080fd5b8b60208260051b85010111156105af57600080fd5b6020830196508095505060808a01359150808211156105cd57600080fd5b506105da8a828b016104c2565b989b979a50959850939692959293505050565b602081016002831061060f57634e487b7160e01b600052602160045260246000fd5b91905290565b60006020828403121561062757600080fd5b61063082610473565b9392505050565b634e487b7160e01b600052603260045260246000fd5b6000808335601e1984360301811261066457600080fd5b83018035915067ffffffffffffffff82111561067f57600080fd5b60200191503681900382131561050457600080fd5b6000602082840312156106a657600080fd5b5035919050565b6000602082840312156106bf57600080fd5b813560ff8116811461063057600080fd5b8051801515811461048a57600080fd5b80516009811061048a57600080fd5b600060e0828403121561070157600080fd5b60405160e0810181811067ffffffffffffffff8211171561073257634e487b7160e01b600052604160045260246000fd5b80604052508251815260208301516020820152610751604084016106d0565b6040820152610762606084016106d0565b6060820152610773608084016106e0565b608082015260a083015160a082015260c083015160c0820152809150509291505056fea26469706673582212204fef74a1181e7ecaad30cd1c976b2e74c47a8ac99ac1718eb4cab440a47d36ae64736f6c63430008180033",
  "linkReferences": {},
  "deployedLinkReferences": {}
}