{
  "_format": "hh-sol-artifact-1",
  "contractName": "EscrowFactoryV3",
  "sourceName": "contracts/bufi/EscrowFactoryV3.sol",
  "abi": [
    {
      "inputs": [
        {
          "internalType": "address",
          "name": "_implementation",
          "type": "address"
        },
        {
          "internalType": "address[]",
          "name": "_acceptedTokens",
          "type": "address[]"
        }
      ],
      "stateMutability": "nonpayable",
      "type": "constructor"
    },
    {
      "anonymous": false,
      "inputs": [
        {
          "indexed": true,
          "internalType": "bytes32",
          "name": "agreementId",
          "type": "bytes32"
        },
        {
          "indexed": true,
          "internalType": "address",
          "name": "escrowAddress",
          "type": "address"
        },
        {
          "indexed": true,
          "internalType": "address",
          "name": "token",
          "type": "address"
        },
        {
          "indexed": false,
          "internalType": "address",
          "name": "payer",
          "type": "address"
        },
        {
          "indexed": false,
          "internalType": "address",
          "name": "payee",
          "type": "address"
        },
        {
          "indexed": false,
          "internalType": "uint256",
          "name": "milestoneCount",
          "type": "uint256"
        }
      ],
      "name": "AgreementCreated",
      "type": "event"
    },
    {
      "anonymous": false,
      "inputs": [
        {
          "indexed": true,
          "internalType": "address",
          "name": "token",
          "type": "address"
        },
        {
          "indexed": false,
          "internalType": "bool",
          "name": "accepted",
          "type": "bool"
        }
      ],
      "name": "TokenWhitelisted",
      "type": "event"
    },
    {
      "inputs": [
        {
          "internalType": "address",
          "name": "",
          "type": "address"
        }
      ],
      "name": "acceptedTokens",
      "outputs": [
        {
          "internalType": "bool",
          "name": "",
          "type": "bool"
        }
      ],
      "stateMutability": "view",
      "type": "function"
    },
    {
      "inputs": [
        {
          "internalType": "uint256",
          "name": "",
          "type": "uint256"
        }
      ],
      "name": "allEscrows",
      "outputs": [
        {
          "internalType": "address",
          "name": "",
          "type": "address"
        }
      ],
      "stateMutability": "view",
      "type": "function"
    },
    {
      "inputs": [
        {
          "internalType": "bytes32",
          "name": "agreementId",
          "type": "bytes32"
        },
        {
          "internalType": "address",
          "name": "_payer",
          "type": "address"
        },
        {
          "internalType": "address",
          "name": "_payee",
          "type": "address"
        },
        {
          "internalType": "address",
          "name": "_token",
          "type": "address"
        },
        {
          "components": [
            {
              "internalType": "uint16",
              "name": "protocolFeeBps",
              "type": "uint16"
            },
            {
              "internalType": "address",
              "name": "protocolFeeRecipient",
              "type": "address"
            }
          ],
          "internalType": "struct IEscrowWithAgentV3.FeeConfig",
          "name": "_fees",
          "type": "tuple"
        },
        {
          "components": [
            {
              "internalType": "address",
              "name": "identityRegistry",
              "type": "address"
            },
            {
              "internalType": "uint256",
              "name": "executorAgentId",
              "type": "uint256"
            }
          ],
          "internalType": "struct IEscrowWithAgentV3.AgentConfig",
          "name": "_agents",
          "type": "tuple"
        },
        {
          "components": [
            {
              "internalType": "uint32",
              "name": "disputeWindowSeconds",
              "type": "uint32"
            },
            {
              "internalType": "uint32",
              "name": "appealWindowSeconds",
              "type": "uint32"
            }
          ],
          "internalType": "struct IEscrowWithAgentV3.WindowConfig",
          "name": "_windows",
          "type": "tuple"
        },
        {
          "internalType": "uint256[]",
          "name": "milestoneAmounts",
          "type": "uint256[]"
        }
      ],
      "name": "createAgreement",
      "outputs": [
        {
          "internalType": "address",
          "name": "escrowAddress",
          "type": "address"
        }
      ],
      "stateMutability": "nonpayable",
      "type": "function"
    },
    {
      "inputs": [
        {
          "internalType": "bytes32",
          "name": "",
          "type": "bytes32"
        }
      ],
      "name": "escrows",
      "outputs": [
        {
          "internalType": "address",
          "name": "",
          "type": "address"
        }
      ],
      "stateMutability": "view",
      "type": "function"
    },
    {
      "inputs": [
        {
          "internalType": "bytes32",
          "name": "agreementId",
          "type": "bytes32"
        }
      ],
      "name": "getEscrow",
      "outputs": [
        {
          "internalType": "address",
          "name": "",
          "type": "address"
        }
      ],
      "stateMutability": "view",
      "type": "function"
    },
    {
      "inputs": [],
      "name": "getEscrowCount",
      "outputs": [
        {
          "internalType": "uint256",
          "name": "",
          "type": "uint256"
        }
      ],
      "stateMutability": "view",
      "type": "function"
    },
    {
      "inputs": [],
      "name": "implementation",
      "outputs": [
        {
          "internalType": "address",
          "name": "",
          "type": "address"
        }
      ],
      "stateMutability": "view",
      "type": "function"
    },
    {
      "inputs": [],
      "name": "owner",
      "outputs": [
        {
          "internalType": "address",
          "name": "",
          "type": "address"
        }
      ],
      "stateMutability": "view",
      "type": "function"
    },
    {
      "inputs": [
        {
          "internalType": "address",
          "name": "_token",
          "type": "address"
        },
        {
          "internalType": "bool",
          "name": "_accepted",
          "type": "bool"
        }
      ],
      "name": "setTokenAccepted",
      "outputs": [],
      "stateMutability": "nonpayable",
      "type": "function"
    },
    {
      "inputs": [
        {
          "internalType": "address",
          "name": "newOwner",
          "type": "address"
        }
      ],
      "name": "transferOwnership",
      "outputs": [],
      "stateMutability": "nonpayable",
      "type": "function"
    }
  ],
  "bytecode": "0x60a06040523480156200001157600080fd5b5060405162000caa38038062000caa8339810160408190526200003491620001ba565b6001600160a01b0382166200008f5760405162461bcd60e51b815260206004820152601c60248201527f466163746f72793a207a65726f20696d706c656d656e746174696f6e00000000604482015260640160405180910390fd5b6001600160a01b038216608052600080546001600160a01b031916331781555b81518110156200017e576001806000848481518110620000d357620000d3620002a3565b60200260200101516001600160a01b03166001600160a01b0316815260200190815260200160002060006101000a81548160ff021916908315150217905550818181518110620001275762000127620002a3565b60200260200101516001600160a01b03167fef81a9943b96c8df4ef243401c9bf5159146166211356898b52d382086168d9260016040516200016d911515815260200190565b60405180910390a2600101620000af565b505050620002b9565b80516001600160a01b03811681146200019f57600080fd5b919050565b634e487b7160e01b600052604160045260246000fd5b60008060408385031215620001ce57600080fd5b620001d98362000187565b602084810151919350906001600160401b0380821115620001f957600080fd5b818601915086601f8301126200020e57600080fd5b815181811115620002235762000223620001a4565b8060051b604051601f19603f830116810181811085821117156200024b576200024b620001a4565b6040529182528482019250838101850191898311156200026a57600080fd5b938501935b828510156200029357620002838562000187565b845293850193928501926200026f565b8096505050505050509250929050565b634e487b7160e01b600052603260045260246000fd5b6080516109ce620002dc60003960008181610127015261044d01526109ce6000f3fe608060405234801561001057600080fd5b506004361061009e5760003560e01c806382dc4a051161006657806382dc4a05146101495780638da5cb5b1461017c578063c5fe36d41461018f578063f023b811146101a2578063f2fde38b146101cb57600080fd5b806316b15135146100a35780631d3afee6146100b95780632d83549c146100e45780634349597a1461010d5780635c60da1b14610122575b600080fd5b6003546040519081526020015b60405180910390f35b6100cc6100c73660046106ff565b6101de565b6040516001600160a01b0390911681526020016100b0565b6100cc6100f23660046106ff565b6002602052600090815260409020546001600160a01b031681565b61012061011b36600461072f565b610208565b005b6100cc7f000000000000000000000000000000000000000000000000000000000000000081565b61016c61015736600461076b565b60016020526000908152604090205460ff1681565b60405190151581526020016100b0565b6000546100cc906001600160a01b031681565b6100cc61019d3660046107a5565b6102bc565b6100cc6101b03660046106ff565b6000908152600260205260409020546001600160a01b031690565b6101206101d936600461076b565b6105a7565b600381815481106101ee57600080fd5b6000918252602090912001546001600160a01b0316905081565b6000546001600160a01b0316331461025d5760405162461bcd60e51b81526020600482015260136024820152722330b1ba37b93c9d1037b7363c9037bbb732b960691b60448201526064015b60405180910390fd5b6001600160a01b038216600081815260016020908152604091829020805460ff191685151590811790915591519182527fef81a9943b96c8df4ef243401c9bf5159146166211356898b52d382086168d92910160405180910390a25050565b6000898152600260205260408120546001600160a01b0316156103215760405162461bcd60e51b815260206004820152601960248201527f466163746f72793a2061677265656d656e7420657869737473000000000000006044820152606401610254565b6001600160a01b03871660009081526001602052604090205460ff1661039e5760405162461bcd60e51b815260206004820152602c60248201527f466163746f72793a20746f6b656e206e6f74206163636570746564202855534460448201526b432f45555243206f6e6c792960a01b6064820152608401610254565b6001600160a01b038916158015906103be57506001600160a01b03881615155b6104025760405162461bcd60e51b8152602060048201526015602482015274466163746f72793a207a65726f206164647265737360581b6044820152606401610254565b816104485760405162461bcd60e51b8152602060048201526016602482015275466163746f72793a206e6f206d696c6573746f6e657360501b6044820152606401610254565b61047a7f00000000000000000000000000000000000000000000000000000000000000006001600160a01b0316610665565b60405162a962af60e41b81529091506001600160a01b03821690630a962af0906104b6908c908c908c908c908c908c908c908c906004016108fd565b600060405180830381600087803b1580156104d057600080fd5b505af11580156104e4573d6000803e3d6000fd5b50505060008b815260026020908152604080832080546001600160a01b03199081166001600160a01b038881169182179093556003805460018101825596527fc2575a0e9e593c00f959f8c92f12db2869c3395a3b0502d05e2516446f71f85b90950180549091168517905581518e821681528d8216938101939093529082018690528a1692508c907f93fcc1aeda5c60e5ef54ee2d91bf76a6d2abfb7a111d0a2d4b52771b48d9fb079060600160405180910390a49998505050505050505050565b6000546001600160a01b031633146105f75760405162461bcd60e51b81526020600482015260136024820152722330b1ba37b93c9d1037b7363c9037bbb732b960691b6044820152606401610254565b6001600160a01b0381166106435760405162461bcd60e51b81526020600482015260136024820152722330b1ba37b93c9d103d32b9379037bbb732b960691b6044820152606401610254565b600080546001600160a01b0319166001600160a01b0392909216919091179055565b6000763d602d80600a3d3981f3363d3d373d3d3d363d730000008260601b60e81c176000526e5af43d82803e903d91602b57fd5bf38260781b17602052603760096000f090506001600160a01b0381166106fa5760405162461bcd60e51b8152602060048201526016602482015275115490cc4c4d8dce8818dc99585d194819985a5b195960521b6044820152606401610254565b919050565b60006020828403121561071157600080fd5b5035919050565b80356001600160a01b03811681146106fa57600080fd5b6000806040838503121561074257600080fd5b61074b83610718565b91506020830135801515811461076057600080fd5b809150509250929050565b60006020828403121561077d57600080fd5b61078682610718565b9392505050565b60006040828403121561079f57600080fd5b50919050565b60008060008060008060008060006101608a8c0312156107c457600080fd5b893598506107d460208b01610718565b97506107e260408b01610718565b96506107f060608b01610718565b95506107ff8b60808c0161078d565b945061080e8b60c08c0161078d565b935061081e8b6101008c0161078d565b92506101408a013567ffffffffffffffff8082111561083c57600080fd5b818c0191508c601f83011261085057600080fd5b81358181111561085f57600080fd5b8d60208260051b850101111561087457600080fd5b6020830194508093505050509295985092959850929598565b803563ffffffff811681146106fa57600080fd5b63ffffffff806108b08361088d565b168352806108c06020840161088d565b166020840152505050565b81835260006001600160fb1b038311156108e457600080fd5b8260051b80836020870137939093016020019392505050565b6001600160a01b0389811682528881166020830152878116604083015260009061014090883561ffff811680821461093457600080fd5b6060860152508061094760208b01610718565b1660808501528061095789610718565b1660a085015250602087013560c084015261097560e08401876108a1565b8061012084015261098981840185876108cb565b9b9a505050505050505050505056fea2646970667358221220350d7cd071a6add1c2bf6dc6fcddbc8fdc8a5054624df373a1838e7694003cbe64736f6c63430008180033",
  "linkReferences": {},
  "deployedLinkReferences": {}
}