{"contracts/bufi/policies/AgentIdentityPolicy.sol":{"AgentIdentityPolicy":{"abi":[{"inputs":[{"internalType":"string","name":"reason","type":"string"}],"name":"PolicyRejected","type":"error"},{"anonymous":false,"inputs":[{"indexed":false,"internalType":"address","name":"identityRegistry","type":"address"},{"indexed":false,"internalType":"uint256","name":"executorAgentId","type":"uint256"},{"indexed":false,"internalType":"address","name":"expectedOwner","type":"address"}],"name":"ConfigUpdated","type":"event"},{"inputs":[],"name":"executorAgentId","outputs":[{"internalType":"uint256","name":"","type":"uint256"}],"stateMutability":"view","type":"function"},{"inputs":[],"name":"expectedOwner","outputs":[{"internalType":"address","name":"","type":"address"}],"stateMutability":"view","type":"function"},{"inputs":[],"name":"identityRegistry","outputs":[{"internalType":"address","name":"","type":"address"}],"stateMutability":"view","type":"function"},{"inputs":[{"internalType":"address","name":"_owner","type":"address"},{"internalType":"address","name":"_identityRegistry","type":"address"},{"internalType":"uint256","name":"_executorAgentId","type":"uint256"},{"internalType":"address","name":"_expectedOwner","type":"address"}],"name":"initialize","outputs":[],"stateMutability":"nonpayable","type":"function"},{"inputs":[],"name":"owner","outputs":[{"internalType":"address","name":"","type":"address"}],"stateMutability":"view","type":"function"},{"inputs":[{"internalType":"address","name":"","type":"address"},{"internalType":"address","name":"","type":"address"},{"internalType":"bytes4","name":"","type":"bytes4"},{"internalType":"bytes[]","name":"parameters","type":"bytes[]"},{"internalType":"bytes","name":"","type":"bytes"}],"name":"run","outputs":[{"internalType":"enum IPolicyEngineForPolicy.PolicyResult","name":"","type":"uint8"}],"stateMutability":"view","type":"function"},{"inputs":[{"internalType":"address","name":"_identityRegistry","type":"address"},{"internalType":"uint256","name":"_executorAgentId","type":"uint256"},{"internalType":"address","name":"_expectedOwner","type":"address"}],"name":"updateConfig","outputs":[],"stateMutability":"nonpayable","type":"function"}],"evm":{"bytecode":{"linkReferences":{},"object":"608060405234801561001057600080fd5b50610706806100206000396000f3fe608060405234801561001057600080fd5b506004361061007d5760003560e01c8063be2030941161005b578063be203094146100da578063d0d53c1c146100ed578063e3e3094e14610100578063f19085781461012057600080fd5b8063134e18f4146100825780633eda0e0c146100b25780638da5cb5b146100c7575b600080fd5b600054610095906001600160a01b031681565b6040516001600160a01b0390911681526020015b60405180910390f35b6100c56100c03660046104c0565b610137565b005b600354610095906001600160a01b031681565b6100c56100e8366004610502565b61020e565b600254610095906001600160a01b031681565b61011361010e36600461059e565b61030f565b6040516100a99190610684565b61012960015481565b6040519081526020016100a9565b6003546001600160a01b031633146101965760405162461bcd60e51b815260206004820152601f60248201527f4167656e744964656e74697479506f6c6963793a206f6e6c79206f776e65720060448201526064015b60405180910390fd5b600080546001600160a01b038581166001600160a01b0319928316811790935560018590556002805491851691909216811790915560408051928352602083018590528201527fc720a6bb9ca4acc84cba1919347b808aaa6226d71f2942127bfb0075559719c89060600160405180910390a1505050565b600354600160a01b900460ff16156102795760405162461bcd60e51b815260206004820152602860248201527f4167656e744964656e74697479506f6c6963793a20616c726561647920696e696044820152671d1a585b1a5e995960c21b606482015260840161018d565b60038054600080546001600160a01b038781166001600160a01b031992831681179093556001879055600280548783169316831790556001600160a81b031990931692881692909217600160a01b1790925560408051928352602083018590528201527fc720a6bb9ca4acc84cba1919347b808aaa6226d71f2942127bfb0075559719c89060600160405180910390a150505050565b600060018410156103805760405162461bcd60e51b815260206004820152603560248201527f4167656e744964656e74697479506f6c6963793a20657870656374656420657860448201527432b1baba37b920b3b2b73a103830b930b6b2ba32b960591b606482015260840161018d565b6000546001546040516331a9108f60e11b81526001600160a01b0390921691636352211e916103b59160040190815260200190565b602060405180830381865afa9250505080156103ee575060408051601f3d908101601f191682019092526103eb918101906106ac565b60015b61043b57604051630e4254bb60e31b815260206004820152601d60248201527f6578656375746f72206167656e74206e6f742072656769737465726564000000604482015260640161018d565b6002546001600160a01b0382811691161461049957604051630e4254bb60e31b815260206004820152601d60248201527f6578656375746f72206167656e74206f776e6572206d69736d61746368000000604482015260640161018d565b50506000979650505050505050565b6001600160a01b03811681146104bd57600080fd5b50565b6000806000606084860312156104d557600080fd5b83356104e0816104a8565b92506020840135915060408401356104f7816104a8565b809150509250925092565b6000806000806080858703121561051857600080fd5b8435610523816104a8565b93506020850135610533816104a8565b925060408501359150606085013561054a816104a8565b939692955090935050565b60008083601f84011261056757600080fd5b50813567ffffffffffffffff81111561057f57600080fd5b60208301915083602082850101111561059757600080fd5b9250929050565b600080600080600080600060a0888a0312156105b957600080fd5b87356105c4816104a8565b965060208801356105d4816104a8565b955060408801356001600160e01b0319811681146105f157600080fd5b9450606088013567ffffffffffffffff8082111561060e57600080fd5b818a0191508a601f83011261062257600080fd5b81358181111561063157600080fd5b8b60208260051b850101111561064657600080fd5b6020830196508095505060808a013591508082111561066457600080fd5b506106718a828b01610555565b989b979a50959850939692959293505050565b60208101600283106106a657634e487b7160e01b600052602160045260246000fd5b91905290565b6000602082840312156106be57600080fd5b81516106c9816104a8565b939250505056fea26469706673582212205eb2d9023c17c8d0b7dcb35cb6fca48ec46afeba01733a7cfba64c340d7ca13764736f6c63430008180033","opcodes":"PUSH1 0x80 PUSH1 0x40 MSTORE CALLVALUE DUP1 ISZERO PUSH2 0x10 JUMPI PUSH1 0x0 DUP1 REVERT JUMPDEST POP PUSH2 0x706 DUP1 PUSH2 0x20 PUSH1 0x0 CODECOPY PUSH1 0x0 RETURN INVALID PUSH1 0x80 PUSH1 0x40 MSTORE CALLVALUE DUP1 ISZERO PUSH2 0x10 JUMPI PUSH1 0x0 DUP1 REVERT JUMPDEST POP PUSH1 0x4 CALLDATASIZE LT PUSH2 0x7D JUMPI PUSH1 0x0 CALLDATALOAD PUSH1 0xE0 SHR DUP1 PUSH4 0xBE203094 GT PUSH2 0x5B JUMPI DUP1 PUSH4 0xBE203094 EQ PUSH2 0xDA JUMPI DUP1 PUSH4 0xD0D53C1C EQ PUSH2 0xED JUMPI DUP1 PUSH4 0xE3E3094E EQ PUSH2 0x100 JUMPI DUP1 PUSH4 0xF1908578 EQ PUSH2 0x120 JUMPI PUSH1 0x0 DUP1 REVERT JUMPDEST DUP1 PUSH4 0x134E18F4 EQ PUSH2 0x82 JUMPI DUP1 PUSH4 0x3EDA0E0C EQ PUSH2 0xB2 JUMPI DUP1 PUSH4 0x8DA5CB5B EQ PUSH2 0xC7 JUMPI JUMPDEST PUSH1 0x0 DUP1 REVERT JUMPDEST PUSH1 0x0 SLOAD PUSH2 0x95 SWAP1 PUSH1 0x1 PUSH1 0x1 PUSH1 0xA0 SHL SUB AND DUP2 JUMP JUMPDEST PUSH1 0x40 MLOAD PUSH1 0x1 PUSH1 0x1 PUSH1 0xA0 SHL SUB SWAP1 SWAP2 AND DUP2 MSTORE PUSH1 0x20 ADD JUMPDEST PUSH1 0x40 MLOAD DUP1 SWAP2 SUB SWAP1 RETURN JUMPDEST PUSH2 0xC5 PUSH2 0xC0 CALLDATASIZE PUSH1 0x4 PUSH2 0x4C0 JUMP JUMPDEST PUSH2 0x137 JUMP JUMPDEST STOP JUMPDEST PUSH1 0x3 SLOAD PUSH2 0x95 SWAP1 PUSH1 0x1 PUSH1 0x1 PUSH1 0xA0 SHL SUB AND DUP2 JUMP JUMPDEST PUSH2 0xC5 PUSH2 0xE8 CALLDATASIZE PUSH1 0x4 PUSH2 0x502 JUMP JUMPDEST PUSH2 0x20E JUMP JUMPDEST PUSH1 0x2 SLOAD PUSH2 0x95 SWAP1 PUSH1 0x1 PUSH1 0x1 PUSH1 0xA0 SHL SUB AND DUP2 JUMP JUMPDEST PUSH2 0x113 PUSH2 0x10E CALLDATASIZE PUSH1 0x4 PUSH2 0x59E JUMP JUMPDEST PUSH2 0x30F JUMP JUMPDEST PUSH1 0x40 MLOAD PUSH2 0xA9 SWAP2 SWAP1 PUSH2 0x684 JUMP JUMPDEST PUSH2 0x129 PUSH1 0x1 SLOAD DUP2 JUMP JUMPDEST PUSH1 0x40 MLOAD SWAP1 DUP2 MSTORE PUSH1 0x20 ADD PUSH2 0xA9 JUMP JUMPDEST PUSH1 0x3 SLOAD PUSH1 0x1 PUSH1 0x1 PUSH1 0xA0 SHL SUB AND CALLER EQ PUSH2 0x196 JUMPI PUSH1 0x40 MLOAD PUSH3 0x461BCD PUSH1 0xE5 SHL DUP2 MSTORE PUSH1 0x20 PUSH1 0x4 DUP3 ADD MSTORE PUSH1 0x1F PUSH1 0x24 DUP3 ADD MSTORE PUSH32 0x4167656E744964656E74697479506F6C6963793A206F6E6C79206F776E657200 PUSH1 0x44 DUP3 ADD MSTORE PUSH1 0x64 ADD JUMPDEST PUSH1 0x40 MLOAD DUP1 SWAP2 SUB SWAP1 REVERT JUMPDEST PUSH1 0x0 DUP1 SLOAD PUSH1 0x1 PUSH1 0x1 PUSH1 0xA0 SHL SUB DUP6 DUP2 AND PUSH1 0x1 PUSH1 0x1 PUSH1 0xA0 SHL SUB NOT SWAP3 DUP4 AND DUP2 OR SWAP1 SWAP4 SSTORE PUSH1 0x1 DUP6 SWAP1 SSTORE PUSH1 0x2 DUP1 SLOAD SWAP2 DUP6 AND SWAP2 SWAP1 SWAP3 AND DUP2 OR SWAP1 SWAP2 SSTORE PUSH1 0x40 DUP1 MLOAD SWAP3 DUP4 MSTORE PUSH1 0x20 DUP4 ADD DUP6 SWAP1 MSTORE DUP3 ADD MSTORE PUSH32 0xC720A6BB9CA4ACC84CBA1919347B808AAA6226D71F2942127BFB0075559719C8 SWAP1 PUSH1 0x60 ADD PUSH1 0x40 MLOAD DUP1 SWAP2 SUB SWAP1 LOG1 POP POP POP JUMP JUMPDEST PUSH1 0x3 SLOAD PUSH1 0x1 PUSH1 0xA0 SHL SWAP1 DIV PUSH1 0xFF AND ISZERO PUSH2 0x279 JUMPI PUSH1 0x40 MLOAD PUSH3 0x461BCD PUSH1 0xE5 SHL DUP2 MSTORE PUSH1 0x20 PUSH1 0x4 DUP3 ADD MSTORE PUSH1 0x28 PUSH1 0x24 DUP3 ADD MSTORE PUSH32 0x4167656E744964656E74697479506F6C6963793A20616C726561647920696E69 PUSH1 0x44 DUP3 ADD MSTORE PUSH8 0x1D1A585B1A5E9959 PUSH1 0xC2 SHL PUSH1 0x64 DUP3 ADD MSTORE PUSH1 0x84 ADD PUSH2 0x18D JUMP JUMPDEST PUSH1 0x3 DUP1 SLOAD PUSH1 0x0 DUP1 SLOAD PUSH1 0x1 PUSH1 0x1 PUSH1 0xA0 SHL SUB DUP8 DUP2 AND PUSH1 0x1 PUSH1 0x1 PUSH1 0xA0 SHL SUB NOT SWAP3 DUP4 AND DUP2 OR SWAP1 SWAP4 SSTORE PUSH1 0x1 DUP8 SWAP1 SSTORE PUSH1 0x2 DUP1 SLOAD DUP8 DUP4 AND SWAP4 AND DUP4 OR SWAP1 SSTORE PUSH1 0x1 PUSH1 0x1 PUSH1 0xA8 SHL SUB NOT SWAP1 SWAP4 AND SWAP3 DUP9 AND SWAP3 SWAP1 SWAP3 OR PUSH1 0x1 PUSH1 0xA0 SHL OR SWAP1 SWAP3 SSTORE PUSH1 0x40 DUP1 MLOAD SWAP3 DUP4 MSTORE PUSH1 0x20 DUP4 ADD DUP6 SWAP1 MSTORE DUP3 ADD MSTORE PUSH32 0xC720A6BB9CA4ACC84CBA1919347B808AAA6226D71F2942127BFB0075559719C8 SWAP1 PUSH1 0x60 ADD PUSH1 0x40 MLOAD DUP1 SWAP2 SUB SWAP1 LOG1 POP POP POP POP JUMP JUMPDEST PUSH1 0x0 PUSH1 0x1 DUP5 LT ISZERO PUSH2 0x380 JUMPI PUSH1 0x40 MLOAD PUSH3 0x461BCD PUSH1 0xE5 SHL DUP2 MSTORE PUSH1 0x20 PUSH1 0x4 DUP3 ADD MSTORE PUSH1 0x35 PUSH1 0x24 DUP3 ADD MSTORE PUSH32 0x4167656E744964656E74697479506F6C6963793A206578706563746564206578 PUSH1 0x44 DUP3 ADD MSTORE PUSH21 0x32B1BABA37B920B3B2B73A103830B930B6B2BA32B9 PUSH1 0x59 SHL PUSH1 0x64 DUP3 ADD MSTORE PUSH1 0x84 ADD PUSH2 0x18D JUMP JUMPDEST PUSH1 0x0 SLOAD PUSH1 0x1 SLOAD PUSH1 0x40 MLOAD PUSH4 0x31A9108F PUSH1 0xE1 SHL DUP2 MSTORE PUSH1 0x1 PUSH1 0x1 PUSH1 0xA0 SHL SUB SWAP1 SWAP3 AND SWAP2 PUSH4 0x6352211E SWAP2 PUSH2 0x3B5 SWAP2 PUSH1 0x4 ADD SWAP1 DUP2 MSTORE PUSH1 0x20 ADD SWAP1 JUMP JUMPDEST PUSH1 0x20 PUSH1 0x40 MLOAD DUP1 DUP4 SUB DUP2 DUP7 GAS STATICCALL SWAP3 POP POP POP DUP1 ISZERO PUSH2 0x3EE JUMPI POP PUSH1 0x40 DUP1 MLOAD PUSH1 0x1F RETURNDATASIZE SWAP1 DUP2 ADD PUSH1 0x1F NOT AND DUP3 ADD SWAP1 SWAP3 MSTORE PUSH2 0x3EB SWAP2 DUP2 ADD SWAP1 PUSH2 0x6AC JUMP JUMPDEST PUSH1 0x1 JUMPDEST PUSH2 0x43B JUMPI PUSH1 0x40 MLOAD PUSH4 0xE4254BB PUSH1 0xE3 SHL DUP2 MSTORE PUSH1 0x20 PUSH1 0x4 DUP3 ADD MSTORE PUSH1 0x1D PUSH1 0x24 DUP3 ADD MSTORE PUSH32 0x6578656375746F72206167656E74206E6F742072656769737465726564000000 PUSH1 0x44 DUP3 ADD MSTORE PUSH1 0x64 ADD PUSH2 0x18D JUMP JUMPDEST PUSH1 0x2 SLOAD PUSH1 0x1 PUSH1 0x1 PUSH1 0xA0 SHL SUB DUP3 DUP2 AND SWAP2 AND EQ PUSH2 0x499 JUMPI PUSH1 0x40 MLOAD PUSH4 0xE4254BB PUSH1 0xE3 SHL DUP2 MSTORE PUSH1 0x20 PUSH1 0x4 DUP3 ADD MSTORE PUSH1 0x1D PUSH1 0x24 DUP3 ADD MSTORE PUSH32 0x6578656375746F72206167656E74206F776E6572206D69736D61746368000000 PUSH1 0x44 DUP3 ADD MSTORE PUSH1 0x64 ADD PUSH2 0x18D JUMP JUMPDEST POP POP PUSH1 0x0 SWAP8 SWAP7 POP POP POP POP POP POP POP JUMP JUMPDEST PUSH1 0x1 PUSH1 0x1 PUSH1 0xA0 SHL SUB DUP2 AND DUP2 EQ PUSH2 0x4BD JUMPI PUSH1 0x0 DUP1 REVERT JUMPDEST POP JUMP JUMPDEST PUSH1 0x0 DUP1 PUSH1 0x0 PUSH1 0x60 DUP5 DUP7 SUB SLT ISZERO PUSH2 0x4D5 JUMPI PUSH1 0x0 DUP1 REVERT JUMPDEST DUP4 CALLDATALOAD PUSH2 0x4E0 DUP2 PUSH2 0x4A8 JUMP JUMPDEST SWAP3 POP PUSH1 0x20 DUP5 ADD CALLDATALOAD SWAP2 POP PUSH1 0x40 DUP5 ADD CALLDATALOAD PUSH2 0x4F7 DUP2 PUSH2 0x4A8 JUMP JUMPDEST DUP1 SWAP2 POP POP SWAP3 POP SWAP3 POP SWAP3 JUMP JUMPDEST PUSH1 0x0 DUP1 PUSH1 0x0 DUP1 PUSH1 0x80 DUP6 DUP8 SUB SLT ISZERO PUSH2 0x518 JUMPI PUSH1 0x0 DUP1 REVERT JUMPDEST DUP5 CALLDATALOAD PUSH2 0x523 DUP2 PUSH2 0x4A8 JUMP JUMPDEST SWAP4 POP PUSH1 0x20 DUP6 ADD CALLDATALOAD PUSH2 0x533 DUP2 PUSH2 0x4A8 JUMP JUMPDEST SWAP3 POP PUSH1 0x40 DUP6 ADD CALLDATALOAD SWAP2 POP PUSH1 0x60 DUP6 ADD CALLDATALOAD PUSH2 0x54A DUP2 PUSH2 0x4A8 JUMP JUMPDEST SWAP4 SWAP7 SWAP3 SWAP6 POP SWAP1 SWAP4 POP POP JUMP JUMPDEST PUSH1 0x0 DUP1 DUP4 PUSH1 0x1F DUP5 ADD SLT PUSH2 0x567 JUMPI PUSH1 0x0 DUP1 REVERT JUMPDEST POP DUP2 CALLDATALOAD PUSH8 0xFFFFFFFFFFFFFFFF DUP2 GT ISZERO PUSH2 0x57F JUMPI PUSH1 0x0 DUP1 REVERT JUMPDEST PUSH1 0x20 DUP4 ADD SWAP2 POP DUP4 PUSH1 0x20 DUP3 DUP6 ADD ADD GT ISZERO PUSH2 0x597 JUMPI PUSH1 0x0 DUP1 REVERT JUMPDEST SWAP3 POP SWAP3 SWAP1 POP JUMP JUMPDEST PUSH1 0x0 DUP1 PUSH1 0x0 DUP1 PUSH1 0x0 DUP1 PUSH1 0x0 PUSH1 0xA0 DUP9 DUP11 SUB SLT ISZERO PUSH2 0x5B9 JUMPI PUSH1 0x0 DUP1 REVERT JUMPDEST DUP8 CALLDATALOAD PUSH2 0x5C4 DUP2 PUSH2 0x4A8 JUMP JUMPDEST SWAP7 POP PUSH1 0x20 DUP9 ADD CALLDATALOAD PUSH2 0x5D4 DUP2 PUSH2 0x4A8 JUMP JUMPDEST SWAP6 POP PUSH1 0x40 DUP9 ADD CALLDATALOAD PUSH1 0x1 PUSH1 0x1 PUSH1 0xE0 SHL SUB NOT DUP2 AND DUP2 EQ PUSH2 0x5F1 JUMPI PUSH1 0x0 DUP1 REVERT JUMPDEST SWAP5 POP PUSH1 0x60 DUP9 ADD CALLDATALOAD PUSH8 0xFFFFFFFFFFFFFFFF DUP1 DUP3 GT ISZERO PUSH2 0x60E JUMPI PUSH1 0x0 DUP1 REVERT JUMPDEST DUP2 DUP11 ADD SWAP2 POP DUP11 PUSH1 0x1F DUP4 ADD SLT PUSH2 0x622 JUMPI PUSH1 0x0 DUP1 REVERT JUMPDEST DUP2 CALLDATALOAD DUP2 DUP2 GT ISZERO PUSH2 0x631 JUMPI PUSH1 0x0 DUP1 REVERT JUMPDEST DUP12 PUSH1 0x20 DUP3 PUSH1 0x5 SHL DUP6 ADD ADD GT ISZERO PUSH2 0x646 JUMPI PUSH1 0x0 DUP1 REVERT JUMPDEST PUSH1 0x20 DUP4 ADD SWAP7 POP DUP1 SWAP6 POP POP PUSH1 0x80 DUP11 ADD CALLDATALOAD SWAP2 POP DUP1 DUP3 GT ISZERO PUSH2 0x664 JUMPI PUSH1 0x0 DUP1 REVERT JUMPDEST POP PUSH2 0x671 DUP11 DUP3 DUP12 ADD PUSH2 0x555 JUMP JUMPDEST SWAP9 SWAP12 SWAP8 SWAP11 POP SWAP6 SWAP9 POP SWAP4 SWAP7 SWAP3 SWAP6 SWAP3 SWAP4 POP POP POP JUMP JUMPDEST PUSH1 0x20 DUP2 ADD PUSH1 0x2 DUP4 LT PUSH2 0x6A6 JUMPI PUSH4 0x4E487B71 PUSH1 0xE0 SHL PUSH1 0x0 MSTORE PUSH1 0x21 PUSH1 0x4 MSTORE PUSH1 0x24 PUSH1 0x0 REVERT JUMPDEST SWAP2 SWAP1 MSTORE SWAP1 JUMP JUMPDEST PUSH1 0x0 PUSH1 0x20 DUP3 DUP5 SUB SLT ISZERO PUSH2 0x6BE JUMPI PUSH1 0x0 DUP1 REVERT JUMPDEST DUP2 MLOAD PUSH2 0x6C9 DUP2 PUSH2 0x4A8 JUMP JUMPDEST SWAP4 SWAP3 POP POP POP JUMP INVALID LOG2 PUSH5 0x6970667358 0x22 SLT KECCAK256 MCOPY 0xB2 0xD9 MUL EXTCODECOPY OR 0xC8 0xD0 0xB7 0xDC 0xB3 TLOAD 0xB6 0xFC LOG4 DUP15 0xC4 PUSH11 0xFEBA01733A7CFBA64C340D PUSH29 0xA13764736F6C6343000818003300000000000000000000000000000000 "},"methodIdentifiers":{"executorAgentId()":"f1908578","expectedOwner()":"d0d53c1c","identityRegistry()":"134e18f4","initialize(address,address,uint256,address)":"be203094","owner()":"8da5cb5b","run(address,address,bytes4,bytes[],bytes)":"e3e3094e","updateConfig(address,uint256,address)":"3eda0e0c"}}}}}