{"contracts/bufi/EscrowFactoryV3.sol":{"EscrowFactoryV3":{"abi":[{"inputs":[{"internalType":"address","name":"_implementation","type":"address"},{"internalType":"address[]","name":"_acceptedTokens","type":"address[]"}],"stateMutability":"nonpayable","type":"constructor"},{"anonymous":false,"inputs":[{"indexed":true,"internalType":"bytes32","name":"agreementId","type":"bytes32"},{"indexed":true,"internalType":"address","name":"escrowAddress","type":"address"},{"indexed":true,"internalType":"address","name":"token","type":"address"},{"indexed":false,"internalType":"address","name":"payer","type":"address"},{"indexed":false,"internalType":"address","name":"payee","type":"address"},{"indexed":false,"internalType":"uint256","name":"milestoneCount","type":"uint256"}],"name":"AgreementCreated","type":"event"},{"anonymous":false,"inputs":[{"indexed":true,"internalType":"address","name":"token","type":"address"},{"indexed":false,"internalType":"bool","name":"accepted","type":"bool"}],"name":"TokenWhitelisted","type":"event"},{"inputs":[{"internalType":"address","name":"","type":"address"}],"name":"acceptedTokens","outputs":[{"internalType":"bool","name":"","type":"bool"}],"stateMutability":"view","type":"function"},{"inputs":[{"internalType":"uint256","name":"","type":"uint256"}],"name":"allEscrows","outputs":[{"internalType":"address","name":"","type":"address"}],"stateMutability":"view","type":"function"},{"inputs":[{"internalType":"bytes32","name":"agreementId","type":"bytes32"},{"internalType":"address","name":"_payer","type":"address"},{"internalType":"address","name":"_payee","type":"address"},{"internalType":"address","name":"_token","type":"address"},{"components":[{"internalType":"uint16","name":"protocolFeeBps","type":"uint16"},{"internalType":"address","name":"protocolFeeRecipient","type":"address"}],"internalType":"struct IEscrowWithAgentV3.FeeConfig","name":"_fees","type":"tuple"},{"components":[{"internalType":"address","name":"identityRegistry","type":"address"},{"internalType":"uint256","name":"executorAgentId","type":"uint256"}],"internalType":"struct IEscrowWithAgentV3.AgentConfig","name":"_agents","type":"tuple"},{"components":[{"internalType":"uint32","name":"disputeWindowSeconds","type":"uint32"},{"internalType":"uint32","name":"appealWindowSeconds","type":"uint32"}],"internalType":"struct IEscrowWithAgentV3.WindowConfig","name":"_windows","type":"tuple"},{"internalType":"uint256[]","name":"milestoneAmounts","type":"uint256[]"}],"name":"createAgreement","outputs":[{"internalType":"address","name":"escrowAddress","type":"address"}],"stateMutability":"nonpayable","type":"function"},{"inputs":[{"internalType":"bytes32","name":"","type":"bytes32"}],"name":"escrows","outputs":[{"internalType":"address","name":"","type":"address"}],"stateMutability":"view","type":"function"},{"inputs":[{"internalType":"bytes32","name":"agreementId","type":"bytes32"}],"name":"getEscrow","outputs":[{"internalType":"address","name":"","type":"address"}],"stateMutability":"view","type":"function"},{"inputs":[],"name":"getEscrowCount","outputs":[{"internalType":"uint256","name":"","type":"uint256"}],"stateMutability":"view","type":"function"},{"inputs":[],"name":"implementation","outputs":[{"internalType":"address","name":"","type":"address"}],"stateMutability":"view","type":"function"},{"inputs":[],"name":"owner","outputs":[{"internalType":"address","name":"","type":"address"}],"stateMutability":"view","type":"function"},{"inputs":[{"internalType":"address","name":"_token","type":"address"},{"internalType":"bool","name":"_accepted","type":"bool"}],"name":"setTokenAccepted","outputs":[],"stateMutability":"nonpayable","type":"function"},{"inputs":[{"internalType":"address","name":"newOwner","type":"address"}],"name":"transferOwnership","outputs":[],"stateMutability":"nonpayable","type":"function"}],"evm":{"bytecode":{"linkReferences":{},"object":"60a06040523480156200001157600080fd5b5060405162000caa38038062000caa8339810160408190526200003491620001ba565b6001600160a01b0382166200008f5760405162461bcd60e51b815260206004820152601c60248201527f466163746f72793a207a65726f20696d706c656d656e746174696f6e00000000604482015260640160405180910390fd5b6001600160a01b038216608052600080546001600160a01b031916331781555b81518110156200017e576001806000848481518110620000d357620000d3620002a3565b60200260200101516001600160a01b03166001600160a01b0316815260200190815260200160002060006101000a81548160ff021916908315150217905550818181518110620001275762000127620002a3565b60200260200101516001600160a01b03167fef81a9943b96c8df4ef243401c9bf5159146166211356898b52d382086168d9260016040516200016d911515815260200190565b60405180910390a2600101620000af565b505050620002b9565b80516001600160a01b03811681146200019f57600080fd5b919050565b634e487b7160e01b600052604160045260246000fd5b60008060408385031215620001ce57600080fd5b620001d98362000187565b602084810151919350906001600160401b0380821115620001f957600080fd5b818601915086601f8301126200020e57600080fd5b815181811115620002235762000223620001a4565b8060051b604051601f19603f830116810181811085821117156200024b576200024b620001a4565b6040529182528482019250838101850191898311156200026a57600080fd5b938501935b828510156200029357620002838562000187565b845293850193928501926200026f565b8096505050505050509250929050565b634e487b7160e01b600052603260045260246000fd5b6080516109ce620002dc60003960008181610127015261044d01526109ce6000f3fe608060405234801561001057600080fd5b506004361061009e5760003560e01c806382dc4a051161006657806382dc4a05146101495780638da5cb5b1461017c578063c5fe36d41461018f578063f023b811146101a2578063f2fde38b146101cb57600080fd5b806316b15135146100a35780631d3afee6146100b95780632d83549c146100e45780634349597a1461010d5780635c60da1b14610122575b600080fd5b6003546040519081526020015b60405180910390f35b6100cc6100c73660046106ff565b6101de565b6040516001600160a01b0390911681526020016100b0565b6100cc6100f23660046106ff565b6002602052600090815260409020546001600160a01b031681565b61012061011b36600461072f565b610208565b005b6100cc7f000000000000000000000000000000000000000000000000000000000000000081565b61016c61015736600461076b565b60016020526000908152604090205460ff1681565b60405190151581526020016100b0565b6000546100cc906001600160a01b031681565b6100cc61019d3660046107a5565b6102bc565b6100cc6101b03660046106ff565b6000908152600260205260409020546001600160a01b031690565b6101206101d936600461076b565b6105a7565b600381815481106101ee57600080fd5b6000918252602090912001546001600160a01b0316905081565b6000546001600160a01b0316331461025d5760405162461bcd60e51b81526020600482015260136024820152722330b1ba37b93c9d1037b7363c9037bbb732b960691b60448201526064015b60405180910390fd5b6001600160a01b038216600081815260016020908152604091829020805460ff191685151590811790915591519182527fef81a9943b96c8df4ef243401c9bf5159146166211356898b52d382086168d92910160405180910390a25050565b6000898152600260205260408120546001600160a01b0316156103215760405162461bcd60e51b815260206004820152601960248201527f466163746f72793a2061677265656d656e7420657869737473000000000000006044820152606401610254565b6001600160a01b03871660009081526001602052604090205460ff1661039e5760405162461bcd60e51b815260206004820152602c60248201527f466163746f72793a20746f6b656e206e6f74206163636570746564202855534460448201526b432f45555243206f6e6c792960a01b6064820152608401610254565b6001600160a01b038916158015906103be57506001600160a01b03881615155b6104025760405162461bcd60e51b8152602060048201526015602482015274466163746f72793a207a65726f206164647265737360581b6044820152606401610254565b816104485760405162461bcd60e51b8152602060048201526016602482015275466163746f72793a206e6f206d696c6573746f6e657360501b6044820152606401610254565b61047a7f00000000000000000000000000000000000000000000000000000000000000006001600160a01b0316610665565b60405162a962af60e41b81529091506001600160a01b03821690630a962af0906104b6908c908c908c908c908c908c908c908c906004016108fd565b600060405180830381600087803b1580156104d057600080fd5b505af11580156104e4573d6000803e3d6000fd5b50505060008b815260026020908152604080832080546001600160a01b03199081166001600160a01b038881169182179093556003805460018101825596527fc2575a0e9e593c00f959f8c92f12db2869c3395a3b0502d05e2516446f71f85b90950180549091168517905581518e821681528d8216938101939093529082018690528a1692508c907f93fcc1aeda5c60e5ef54ee2d91bf76a6d2abfb7a111d0a2d4b52771b48d9fb079060600160405180910390a49998505050505050505050565b6000546001600160a01b031633146105f75760405162461bcd60e51b81526020600482015260136024820152722330b1ba37b93c9d1037b7363c9037bbb732b960691b6044820152606401610254565b6001600160a01b0381166106435760405162461bcd60e51b81526020600482015260136024820152722330b1ba37b93c9d103d32b9379037bbb732b960691b6044820152606401610254565b600080546001600160a01b0319166001600160a01b0392909216919091179055565b6000763d602d80600a3d3981f3363d3d373d3d3d363d730000008260601b60e81c176000526e5af43d82803e903d91602b57fd5bf38260781b17602052603760096000f090506001600160a01b0381166106fa5760405162461bcd60e51b8152602060048201526016602482015275115490cc4c4d8dce8818dc99585d194819985a5b195960521b6044820152606401610254565b919050565b60006020828403121561071157600080fd5b5035919050565b80356001600160a01b03811681146106fa57600080fd5b6000806040838503121561074257600080fd5b61074b83610718565b91506020830135801515811461076057600080fd5b809150509250929050565b60006020828403121561077d57600080fd5b61078682610718565b9392505050565b60006040828403121561079f57600080fd5b50919050565b60008060008060008060008060006101608a8c0312156107c457600080fd5b893598506107d460208b01610718565b97506107e260408b01610718565b96506107f060608b01610718565b95506107ff8b60808c0161078d565b945061080e8b60c08c0161078d565b935061081e8b6101008c0161078d565b92506101408a013567ffffffffffffffff8082111561083c57600080fd5b818c0191508c601f83011261085057600080fd5b81358181111561085f57600080fd5b8d60208260051b850101111561087457600080fd5b6020830194508093505050509295985092959850929598565b803563ffffffff811681146106fa57600080fd5b63ffffffff806108b08361088d565b168352806108c06020840161088d565b166020840152505050565b81835260006001600160fb1b038311156108e457600080fd5b8260051b80836020870137939093016020019392505050565b6001600160a01b0389811682528881166020830152878116604083015260009061014090883561ffff811680821461093457600080fd5b6060860152508061094760208b01610718565b1660808501528061095789610718565b1660a085015250602087013560c084015261097560e08401876108a1565b8061012084015261098981840185876108cb565b9b9a505050505050505050505056fea2646970667358221220350d7cd071a6add1c2bf6dc6fcddbc8fdc8a5054624df373a1838e7694003cbe64736f6c63430008180033","opcodes":"PUSH1 0xA0 PUSH1 0x40 MSTORE CALLVALUE DUP1 ISZERO PUSH3 0x11 JUMPI PUSH1 0x0 DUP1 REVERT JUMPDEST POP PUSH1 0x40 MLOAD PUSH3 0xCAA CODESIZE SUB DUP1 PUSH3 0xCAA DUP4 CODECOPY DUP2 ADD PUSH1 0x40 DUP2 SWAP1 MSTORE PUSH3 0x34 SWAP2 PUSH3 0x1BA JUMP JUMPDEST PUSH1 0x1 PUSH1 0x1 PUSH1 0xA0 SHL SUB DUP3 AND PUSH3 0x8F JUMPI PUSH1 0x40 MLOAD PUSH3 0x461BCD PUSH1 0xE5 SHL DUP2 MSTORE PUSH1 0x20 PUSH1 0x4 DUP3 ADD MSTORE PUSH1 0x1C PUSH1 0x24 DUP3 ADD MSTORE PUSH32 0x466163746F72793A207A65726F20696D706C656D656E746174696F6E00000000 PUSH1 0x44 DUP3 ADD MSTORE PUSH1 0x64 ADD PUSH1 0x40 MLOAD DUP1 SWAP2 SUB SWAP1 REVERT JUMPDEST PUSH1 0x1 PUSH1 0x1 PUSH1 0xA0 SHL SUB DUP3 AND PUSH1 0x80 MSTORE PUSH1 0x0 DUP1 SLOAD PUSH1 0x1 PUSH1 0x1 PUSH1 0xA0 SHL SUB NOT AND CALLER OR DUP2 SSTORE JUMPDEST DUP2 MLOAD DUP2 LT ISZERO PUSH3 0x17E JUMPI PUSH1 0x1 DUP1 PUSH1 0x0 DUP5 DUP5 DUP2 MLOAD DUP2 LT PUSH3 0xD3 JUMPI PUSH3 0xD3 PUSH3 0x2A3 JUMP JUMPDEST PUSH1 0x20 MUL PUSH1 0x20 ADD ADD MLOAD PUSH1 0x1 PUSH1 0x1 PUSH1 0xA0 SHL SUB AND PUSH1 0x1 PUSH1 0x1 PUSH1 0xA0 SHL SUB AND DUP2 MSTORE PUSH1 0x20 ADD SWAP1 DUP2 MSTORE PUSH1 0x20 ADD PUSH1 0x0 KECCAK256 PUSH1 0x0 PUSH2 0x100 EXP DUP2 SLOAD DUP2 PUSH1 0xFF MUL NOT AND SWAP1 DUP4 ISZERO ISZERO MUL OR SWAP1 SSTORE POP DUP2 DUP2 DUP2 MLOAD DUP2 LT PUSH3 0x127 JUMPI PUSH3 0x127 PUSH3 0x2A3 JUMP JUMPDEST PUSH1 0x20 MUL PUSH1 0x20 ADD ADD MLOAD PUSH1 0x1 PUSH1 0x1 PUSH1 0xA0 SHL SUB AND PUSH32 0xEF81A9943B96C8DF4EF243401C9BF5159146166211356898B52D382086168D92 PUSH1 0x1 PUSH1 0x40 MLOAD PUSH3 0x16D SWAP2 ISZERO ISZERO DUP2 MSTORE PUSH1 0x20 ADD SWAP1 JUMP JUMPDEST PUSH1 0x40 MLOAD DUP1 SWAP2 SUB SWAP1 LOG2 PUSH1 0x1 ADD PUSH3 0xAF JUMP JUMPDEST POP POP POP PUSH3 0x2B9 JUMP JUMPDEST DUP1 MLOAD PUSH1 0x1 PUSH1 0x1 PUSH1 0xA0 SHL SUB DUP2 AND DUP2 EQ PUSH3 0x19F JUMPI PUSH1 0x0 DUP1 REVERT JUMPDEST SWAP2 SWAP1 POP JUMP JUMPDEST PUSH4 0x4E487B71 PUSH1 0xE0 SHL PUSH1 0x0 MSTORE PUSH1 0x41 PUSH1 0x4 MSTORE PUSH1 0x24 PUSH1 0x0 REVERT JUMPDEST PUSH1 0x0 DUP1 PUSH1 0x40 DUP4 DUP6 SUB SLT ISZERO PUSH3 0x1CE JUMPI PUSH1 0x0 DUP1 REVERT JUMPDEST PUSH3 0x1D9 DUP4 PUSH3 0x187 JUMP JUMPDEST PUSH1 0x20 DUP5 DUP2 ADD MLOAD SWAP2 SWAP4 POP SWAP1 PUSH1 0x1 PUSH1 0x1 PUSH1 0x40 SHL SUB DUP1 DUP3 GT ISZERO PUSH3 0x1F9 JUMPI PUSH1 0x0 DUP1 REVERT JUMPDEST DUP2 DUP7 ADD SWAP2 POP DUP7 PUSH1 0x1F DUP4 ADD SLT PUSH3 0x20E JUMPI PUSH1 0x0 DUP1 REVERT JUMPDEST DUP2 MLOAD DUP2 DUP2 GT ISZERO PUSH3 0x223 JUMPI PUSH3 0x223 PUSH3 0x1A4 JUMP JUMPDEST DUP1 PUSH1 0x5 SHL PUSH1 0x40 MLOAD PUSH1 0x1F NOT PUSH1 0x3F DUP4 ADD AND DUP2 ADD DUP2 DUP2 LT DUP6 DUP3 GT OR ISZERO PUSH3 0x24B JUMPI PUSH3 0x24B PUSH3 0x1A4 JUMP JUMPDEST PUSH1 0x40 MSTORE SWAP2 DUP3 MSTORE DUP5 DUP3 ADD SWAP3 POP DUP4 DUP2 ADD DUP6 ADD SWAP2 DUP10 DUP4 GT ISZERO PUSH3 0x26A JUMPI PUSH1 0x0 DUP1 REVERT JUMPDEST SWAP4 DUP6 ADD SWAP4 JUMPDEST DUP3 DUP6 LT ISZERO PUSH3 0x293 JUMPI PUSH3 0x283 DUP6 PUSH3 0x187 JUMP JUMPDEST DUP5 MSTORE SWAP4 DUP6 ADD SWAP4 SWAP3 DUP6 ADD SWAP3 PUSH3 0x26F JUMP JUMPDEST DUP1 SWAP7 POP POP POP POP POP POP POP SWAP3 POP SWAP3 SWAP1 POP JUMP JUMPDEST PUSH4 0x4E487B71 PUSH1 0xE0 SHL PUSH1 0x0 MSTORE PUSH1 0x32 PUSH1 0x4 MSTORE PUSH1 0x24 PUSH1 0x0 REVERT JUMPDEST PUSH1 0x80 MLOAD PUSH2 0x9CE PUSH3 0x2DC PUSH1 0x0 CODECOPY PUSH1 0x0 DUP2 DUP2 PUSH2 0x127 ADD MSTORE PUSH2 0x44D ADD MSTORE PUSH2 0x9CE PUSH1 0x0 RETURN INVALID PUSH1 0x80 PUSH1 0x40 MSTORE CALLVALUE DUP1 ISZERO PUSH2 0x10 JUMPI PUSH1 0x0 DUP1 REVERT JUMPDEST POP PUSH1 0x4 CALLDATASIZE LT PUSH2 0x9E JUMPI PUSH1 0x0 CALLDATALOAD PUSH1 0xE0 SHR DUP1 PUSH4 0x82DC4A05 GT PUSH2 0x66 JUMPI DUP1 PUSH4 0x82DC4A05 EQ PUSH2 0x149 JUMPI DUP1 PUSH4 0x8DA5CB5B EQ PUSH2 0x17C JUMPI DUP1 PUSH4 0xC5FE36D4 EQ PUSH2 0x18F JUMPI DUP1 PUSH4 0xF023B811 EQ PUSH2 0x1A2 JUMPI DUP1 PUSH4 0xF2FDE38B EQ PUSH2 0x1CB JUMPI PUSH1 0x0 DUP1 REVERT JUMPDEST DUP1 PUSH4 0x16B15135 EQ PUSH2 0xA3 JUMPI DUP1 PUSH4 0x1D3AFEE6 EQ PUSH2 0xB9 JUMPI DUP1 PUSH4 0x2D83549C EQ PUSH2 0xE4 JUMPI DUP1 PUSH4 0x4349597A EQ PUSH2 0x10D JUMPI DUP1 PUSH4 0x5C60DA1B EQ PUSH2 0x122 JUMPI JUMPDEST PUSH1 0x0 DUP1 REVERT JUMPDEST PUSH1 0x3 SLOAD PUSH1 0x40 MLOAD SWAP1 DUP2 MSTORE PUSH1 0x20 ADD JUMPDEST PUSH1 0x40 MLOAD DUP1 SWAP2 SUB SWAP1 RETURN JUMPDEST PUSH2 0xCC PUSH2 0xC7 CALLDATASIZE PUSH1 0x4 PUSH2 0x6FF JUMP JUMPDEST PUSH2 0x1DE JUMP JUMPDEST PUSH1 0x40 MLOAD PUSH1 0x1 PUSH1 0x1 PUSH1 0xA0 SHL SUB SWAP1 SWAP2 AND DUP2 MSTORE PUSH1 0x20 ADD PUSH2 0xB0 JUMP JUMPDEST PUSH2 0xCC PUSH2 0xF2 CALLDATASIZE PUSH1 0x4 PUSH2 0x6FF JUMP JUMPDEST PUSH1 0x2 PUSH1 0x20 MSTORE PUSH1 0x0 SWAP1 DUP2 MSTORE PUSH1 0x40 SWAP1 KECCAK256 SLOAD PUSH1 0x1 PUSH1 0x1 PUSH1 0xA0 SHL SUB AND DUP2 JUMP JUMPDEST PUSH2 0x120 PUSH2 0x11B CALLDATASIZE PUSH1 0x4 PUSH2 0x72F JUMP JUMPDEST PUSH2 0x208 JUMP JUMPDEST STOP JUMPDEST PUSH2 0xCC PUSH32 0x0 DUP2 JUMP JUMPDEST PUSH2 0x16C PUSH2 0x157 CALLDATASIZE PUSH1 0x4 PUSH2 0x76B JUMP JUMPDEST PUSH1 0x1 PUSH1 0x20 MSTORE PUSH1 0x0 SWAP1 DUP2 MSTORE PUSH1 0x40 SWAP1 KECCAK256 SLOAD PUSH1 0xFF AND DUP2 JUMP JUMPDEST PUSH1 0x40 MLOAD SWAP1 ISZERO ISZERO DUP2 MSTORE PUSH1 0x20 ADD PUSH2 0xB0 JUMP JUMPDEST PUSH1 0x0 SLOAD PUSH2 0xCC SWAP1 PUSH1 0x1 PUSH1 0x1 PUSH1 0xA0 SHL SUB AND DUP2 JUMP JUMPDEST PUSH2 0xCC PUSH2 0x19D CALLDATASIZE PUSH1 0x4 PUSH2 0x7A5 JUMP JUMPDEST PUSH2 0x2BC JUMP JUMPDEST PUSH2 0xCC PUSH2 0x1B0 CALLDATASIZE PUSH1 0x4 PUSH2 0x6FF JUMP JUMPDEST PUSH1 0x0 SWAP1 DUP2 MSTORE PUSH1 0x2 PUSH1 0x20 MSTORE PUSH1 0x40 SWAP1 KECCAK256 SLOAD PUSH1 0x1 PUSH1 0x1 PUSH1 0xA0 SHL SUB AND SWAP1 JUMP JUMPDEST PUSH2 0x120 PUSH2 0x1D9 CALLDATASIZE PUSH1 0x4 PUSH2 0x76B JUMP JUMPDEST PUSH2 0x5A7 JUMP JUMPDEST PUSH1 0x3 DUP2 DUP2 SLOAD DUP2 LT PUSH2 0x1EE JUMPI PUSH1 0x0 DUP1 REVERT JUMPDEST PUSH1 0x0 SWAP2 DUP3 MSTORE PUSH1 0x20 SWAP1 SWAP2 KECCAK256 ADD SLOAD PUSH1 0x1 PUSH1 0x1 PUSH1 0xA0 SHL SUB AND SWAP1 POP DUP2 JUMP JUMPDEST PUSH1 0x0 SLOAD PUSH1 0x1 PUSH1 0x1 PUSH1 0xA0 SHL SUB AND CALLER EQ PUSH2 0x25D JUMPI PUSH1 0x40 MLOAD PUSH3 0x461BCD PUSH1 0xE5 SHL DUP2 MSTORE PUSH1 0x20 PUSH1 0x4 DUP3 ADD MSTORE PUSH1 0x13 PUSH1 0x24 DUP3 ADD MSTORE PUSH19 0x2330B1BA37B93C9D1037B7363C9037BBB732B9 PUSH1 0x69 SHL PUSH1 0x44 DUP3 ADD MSTORE PUSH1 0x64 ADD JUMPDEST PUSH1 0x40 MLOAD DUP1 SWAP2 SUB SWAP1 REVERT JUMPDEST PUSH1 0x1 PUSH1 0x1 PUSH1 0xA0 SHL SUB DUP3 AND PUSH1 0x0 DUP2 DUP2 MSTORE PUSH1 0x1 PUSH1 0x20 SWAP1 DUP2 MSTORE PUSH1 0x40 SWAP2 DUP3 SWAP1 KECCAK256 DUP1 SLOAD PUSH1 0xFF NOT AND DUP6 ISZERO ISZERO SWAP1 DUP2 OR SWAP1 SWAP2 SSTORE SWAP2 MLOAD SWAP2 DUP3 MSTORE PUSH32 0xEF81A9943B96C8DF4EF243401C9BF5159146166211356898B52D382086168D92 SWAP2 ADD PUSH1 0x40 MLOAD DUP1 SWAP2 SUB SWAP1 LOG2 POP POP JUMP JUMPDEST PUSH1 0x0 DUP10 DUP2 MSTORE PUSH1 0x2 PUSH1 0x20 MSTORE PUSH1 0x40 DUP2 KECCAK256 SLOAD PUSH1 0x1 PUSH1 0x1 PUSH1 0xA0 SHL SUB AND ISZERO PUSH2 0x321 JUMPI PUSH1 0x40 MLOAD PUSH3 0x461BCD PUSH1 0xE5 SHL DUP2 MSTORE PUSH1 0x20 PUSH1 0x4 DUP3 ADD MSTORE PUSH1 0x19 PUSH1 0x24 DUP3 ADD MSTORE PUSH32 0x466163746F72793A2061677265656D656E742065786973747300000000000000 PUSH1 0x44 DUP3 ADD MSTORE PUSH1 0x64 ADD PUSH2 0x254 JUMP JUMPDEST PUSH1 0x1 PUSH1 0x1 PUSH1 0xA0 SHL SUB DUP8 AND PUSH1 0x0 SWAP1 DUP2 MSTORE PUSH1 0x1 PUSH1 0x20 MSTORE PUSH1 0x40 SWAP1 KECCAK256 SLOAD PUSH1 0xFF AND PUSH2 0x39E JUMPI PUSH1 0x40 MLOAD PUSH3 0x461BCD PUSH1 0xE5 SHL DUP2 MSTORE PUSH1 0x20 PUSH1 0x4 DUP3 ADD MSTORE PUSH1 0x2C PUSH1 0x24 DUP3 ADD MSTORE PUSH32 0x466163746F72793A20746F6B656E206E6F742061636365707465642028555344 PUSH1 0x44 DUP3 ADD MSTORE PUSH12 0x432F45555243206F6E6C7929 PUSH1 0xA0 SHL PUSH1 0x64 DUP3 ADD MSTORE PUSH1 0x84 ADD PUSH2 0x254 JUMP JUMPDEST PUSH1 0x1 PUSH1 0x1 PUSH1 0xA0 SHL SUB DUP10 AND ISZERO DUP1 ISZERO SWAP1 PUSH2 0x3BE JUMPI POP PUSH1 0x1 PUSH1 0x1 PUSH1 0xA0 SHL SUB DUP9 AND ISZERO ISZERO JUMPDEST PUSH2 0x402 JUMPI PUSH1 0x40 MLOAD PUSH3 0x461BCD PUSH1 0xE5 SHL DUP2 MSTORE PUSH1 0x20 PUSH1 0x4 DUP3 ADD MSTORE PUSH1 0x15 PUSH1 0x24 DUP3 ADD MSTORE PUSH21 0x466163746F72793A207A65726F2061646472657373 PUSH1 0x58 SHL PUSH1 0x44 DUP3 ADD MSTORE PUSH1 0x64 ADD PUSH2 0x254 JUMP JUMPDEST DUP2 PUSH2 0x448 JUMPI PUSH1 0x40 MLOAD PUSH3 0x461BCD PUSH1 0xE5 SHL DUP2 MSTORE PUSH1 0x20 PUSH1 0x4 DUP3 ADD MSTORE PUSH1 0x16 PUSH1 0x24 DUP3 ADD MSTORE PUSH22 0x466163746F72793A206E6F206D696C6573746F6E6573 PUSH1 0x50 SHL PUSH1 0x44 DUP3 ADD MSTORE PUSH1 0x64 ADD PUSH2 0x254 JUMP JUMPDEST PUSH2 0x47A PUSH32 0x0 PUSH1 0x1 PUSH1 0x1 PUSH1 0xA0 SHL SUB AND PUSH2 0x665 JUMP JUMPDEST PUSH1 0x40 MLOAD PUSH3 0xA962AF PUSH1 0xE4 SHL DUP2 MSTORE SWAP1 SWAP2 POP PUSH1 0x1 PUSH1 0x1 PUSH1 0xA0 SHL SUB DUP3 AND SWAP1 PUSH4 0xA962AF0 SWAP1 PUSH2 0x4B6 SWAP1 DUP13 SWAP1 DUP13 SWAP1 DUP13 SWAP1 DUP13 SWAP1 DUP13 SWAP1 DUP13 SWAP1 DUP13 SWAP1 DUP13 SWAP1 PUSH1 0x4 ADD PUSH2 0x8FD JUMP JUMPDEST PUSH1 0x0 PUSH1 0x40 MLOAD DUP1 DUP4 SUB DUP2 PUSH1 0x0 DUP8 DUP1 EXTCODESIZE ISZERO DUP1 ISZERO PUSH2 0x4D0 JUMPI PUSH1 0x0 DUP1 REVERT JUMPDEST POP GAS CALL ISZERO DUP1 ISZERO PUSH2 0x4E4 JUMPI RETURNDATASIZE PUSH1 0x0 DUP1 RETURNDATACOPY RETURNDATASIZE PUSH1 0x0 REVERT JUMPDEST POP POP POP PUSH1 0x0 DUP12 DUP2 MSTORE PUSH1 0x2 PUSH1 0x20 SWAP1 DUP2 MSTORE PUSH1 0x40 DUP1 DUP4 KECCAK256 DUP1 SLOAD PUSH1 0x1 PUSH1 0x1 PUSH1 0xA0 SHL SUB NOT SWAP1 DUP2 AND PUSH1 0x1 PUSH1 0x1 PUSH1 0xA0 SHL SUB DUP9 DUP2 AND SWAP2 DUP3 OR SWAP1 SWAP4 SSTORE PUSH1 0x3 DUP1 SLOAD PUSH1 0x1 DUP2 ADD DUP3 SSTORE SWAP7 MSTORE PUSH32 0xC2575A0E9E593C00F959F8C92F12DB2869C3395A3B0502D05E2516446F71F85B SWAP1 SWAP6 ADD DUP1 SLOAD SWAP1 SWAP2 AND DUP6 OR SWAP1 SSTORE DUP2 MLOAD DUP15 DUP3 AND DUP2 MSTORE DUP14 DUP3 AND SWAP4 DUP2 ADD SWAP4 SWAP1 SWAP4 MSTORE SWAP1 DUP3 ADD DUP7 SWAP1 MSTORE DUP11 AND SWAP3 POP DUP13 SWAP1 PUSH32 0x93FCC1AEDA5C60E5EF54EE2D91BF76A6D2ABFB7A111D0A2D4B52771B48D9FB07 SWAP1 PUSH1 0x60 ADD PUSH1 0x40 MLOAD DUP1 SWAP2 SUB SWAP1 LOG4 SWAP10 SWAP9 POP POP POP POP POP POP POP POP POP JUMP JUMPDEST PUSH1 0x0 SLOAD PUSH1 0x1 PUSH1 0x1 PUSH1 0xA0 SHL SUB AND CALLER EQ PUSH2 0x5F7 JUMPI PUSH1 0x40 MLOAD PUSH3 0x461BCD PUSH1 0xE5 SHL DUP2 MSTORE PUSH1 0x20 PUSH1 0x4 DUP3 ADD MSTORE PUSH1 0x13 PUSH1 0x24 DUP3 ADD MSTORE PUSH19 0x2330B1BA37B93C9D1037B7363C9037BBB732B9 PUSH1 0x69 SHL PUSH1 0x44 DUP3 ADD MSTORE PUSH1 0x64 ADD PUSH2 0x254 JUMP JUMPDEST PUSH1 0x1 PUSH1 0x1 PUSH1 0xA0 SHL SUB DUP2 AND PUSH2 0x643 JUMPI PUSH1 0x40 MLOAD PUSH3 0x461BCD PUSH1 0xE5 SHL DUP2 MSTORE PUSH1 0x20 PUSH1 0x4 DUP3 ADD MSTORE PUSH1 0x13 PUSH1 0x24 DUP3 ADD MSTORE PUSH19 0x2330B1BA37B93C9D103D32B9379037BBB732B9 PUSH1 0x69 SHL PUSH1 0x44 DUP3 ADD MSTORE PUSH1 0x64 ADD PUSH2 0x254 JUMP JUMPDEST PUSH1 0x0 DUP1 SLOAD PUSH1 0x1 PUSH1 0x1 PUSH1 0xA0 SHL SUB NOT AND PUSH1 0x1 PUSH1 0x1 PUSH1 0xA0 SHL SUB SWAP3 SWAP1 SWAP3 AND SWAP2 SWAP1 SWAP2 OR SWAP1 SSTORE JUMP JUMPDEST PUSH1 0x0 PUSH23 0x3D602D80600A3D3981F3363D3D373D3D3D363D73000000 DUP3 PUSH1 0x60 SHL PUSH1 0xE8 SHR OR PUSH1 0x0 MSTORE PUSH15 0x5AF43D82803E903D91602B57FD5BF3 DUP3 PUSH1 0x78 SHL OR PUSH1 0x20 MSTORE PUSH1 0x37 PUSH1 0x9 PUSH1 0x0 CREATE SWAP1 POP PUSH1 0x1 PUSH1 0x1 PUSH1 0xA0 SHL SUB DUP2 AND PUSH2 0x6FA JUMPI PUSH1 0x40 MLOAD PUSH3 0x461BCD PUSH1 0xE5 SHL DUP2 MSTORE PUSH1 0x20 PUSH1 0x4 DUP3 ADD MSTORE PUSH1 0x16 PUSH1 0x24 DUP3 ADD MSTORE PUSH22 0x115490CC4C4D8DCE8818DC99585D194819985A5B1959 PUSH1 0x52 SHL PUSH1 0x44 DUP3 ADD MSTORE PUSH1 0x64 ADD PUSH2 0x254 JUMP JUMPDEST SWAP2 SWAP1 POP JUMP JUMPDEST PUSH1 0x0 PUSH1 0x20 DUP3 DUP5 SUB SLT ISZERO PUSH2 0x711 JUMPI PUSH1 0x0 DUP1 REVERT JUMPDEST POP CALLDATALOAD SWAP2 SWAP1 POP JUMP JUMPDEST DUP1 CALLDATALOAD PUSH1 0x1 PUSH1 0x1 PUSH1 0xA0 SHL SUB DUP2 AND DUP2 EQ PUSH2 0x6FA JUMPI PUSH1 0x0 DUP1 REVERT JUMPDEST PUSH1 0x0 DUP1 PUSH1 0x40 DUP4 DUP6 SUB SLT ISZERO PUSH2 0x742 JUMPI PUSH1 0x0 DUP1 REVERT JUMPDEST PUSH2 0x74B DUP4 PUSH2 0x718 JUMP JUMPDEST SWAP2 POP PUSH1 0x20 DUP4 ADD CALLDATALOAD DUP1 ISZERO ISZERO DUP2 EQ PUSH2 0x760 JUMPI PUSH1 0x0 DUP1 REVERT JUMPDEST DUP1 SWAP2 POP POP SWAP3 POP SWAP3 SWAP1 POP JUMP JUMPDEST PUSH1 0x0 PUSH1 0x20 DUP3 DUP5 SUB SLT ISZERO PUSH2 0x77D JUMPI PUSH1 0x0 DUP1 REVERT JUMPDEST PUSH2 0x786 DUP3 PUSH2 0x718 JUMP JUMPDEST SWAP4 SWAP3 POP POP POP JUMP JUMPDEST PUSH1 0x0 PUSH1 0x40 DUP3 DUP5 SUB SLT ISZERO PUSH2 0x79F JUMPI PUSH1 0x0 DUP1 REVERT JUMPDEST POP SWAP2 SWAP1 POP JUMP JUMPDEST PUSH1 0x0 DUP1 PUSH1 0x0 DUP1 PUSH1 0x0 DUP1 PUSH1 0x0 DUP1 PUSH1 0x0 PUSH2 0x160 DUP11 DUP13 SUB SLT ISZERO PUSH2 0x7C4 JUMPI PUSH1 0x0 DUP1 REVERT JUMPDEST DUP10 CALLDATALOAD SWAP9 POP PUSH2 0x7D4 PUSH1 0x20 DUP12 ADD PUSH2 0x718 JUMP JUMPDEST SWAP8 POP PUSH2 0x7E2 PUSH1 0x40 DUP12 ADD PUSH2 0x718 JUMP JUMPDEST SWAP7 POP PUSH2 0x7F0 PUSH1 0x60 DUP12 ADD PUSH2 0x718 JUMP JUMPDEST SWAP6 POP PUSH2 0x7FF DUP12 PUSH1 0x80 DUP13 ADD PUSH2 0x78D JUMP JUMPDEST SWAP5 POP PUSH2 0x80E DUP12 PUSH1 0xC0 DUP13 ADD PUSH2 0x78D JUMP JUMPDEST SWAP4 POP PUSH2 0x81E DUP12 PUSH2 0x100 DUP13 ADD PUSH2 0x78D JUMP JUMPDEST SWAP3 POP PUSH2 0x140 DUP11 ADD CALLDATALOAD PUSH8 0xFFFFFFFFFFFFFFFF DUP1 DUP3 GT ISZERO PUSH2 0x83C JUMPI PUSH1 0x0 DUP1 REVERT JUMPDEST DUP2 DUP13 ADD SWAP2 POP DUP13 PUSH1 0x1F DUP4 ADD SLT PUSH2 0x850 JUMPI PUSH1 0x0 DUP1 REVERT JUMPDEST DUP2 CALLDATALOAD DUP2 DUP2 GT ISZERO PUSH2 0x85F JUMPI PUSH1 0x0 DUP1 REVERT JUMPDEST DUP14 PUSH1 0x20 DUP3 PUSH1 0x5 SHL DUP6 ADD ADD GT ISZERO PUSH2 0x874 JUMPI PUSH1 0x0 DUP1 REVERT JUMPDEST PUSH1 0x20 DUP4 ADD SWAP5 POP DUP1 SWAP4 POP POP POP POP SWAP3 SWAP6 SWAP9 POP SWAP3 SWAP6 SWAP9 POP SWAP3 SWAP6 SWAP9 JUMP JUMPDEST DUP1 CALLDATALOAD PUSH4 0xFFFFFFFF DUP2 AND DUP2 EQ PUSH2 0x6FA JUMPI PUSH1 0x0 DUP1 REVERT JUMPDEST PUSH4 0xFFFFFFFF DUP1 PUSH2 0x8B0 DUP4 PUSH2 0x88D JUMP JUMPDEST AND DUP4 MSTORE DUP1 PUSH2 0x8C0 PUSH1 0x20 DUP5 ADD PUSH2 0x88D JUMP JUMPDEST AND PUSH1 0x20 DUP5 ADD MSTORE POP POP POP JUMP JUMPDEST DUP2 DUP4 MSTORE PUSH1 0x0 PUSH1 0x1 PUSH1 0x1 PUSH1 0xFB SHL SUB DUP4 GT ISZERO PUSH2 0x8E4 JUMPI PUSH1 0x0 DUP1 REVERT JUMPDEST DUP3 PUSH1 0x5 SHL DUP1 DUP4 PUSH1 0x20 DUP8 ADD CALLDATACOPY SWAP4 SWAP1 SWAP4 ADD PUSH1 0x20 ADD SWAP4 SWAP3 POP POP POP JUMP JUMPDEST PUSH1 0x1 PUSH1 0x1 PUSH1 0xA0 SHL SUB DUP10 DUP2 AND DUP3 MSTORE DUP9 DUP2 AND PUSH1 0x20 DUP4 ADD MSTORE DUP8 DUP2 AND PUSH1 0x40 DUP4 ADD MSTORE PUSH1 0x0 SWAP1 PUSH2 0x140 SWAP1 DUP9 CALLDATALOAD PUSH2 0xFFFF DUP2 AND DUP1 DUP3 EQ PUSH2 0x934 JUMPI PUSH1 0x0 DUP1 REVERT JUMPDEST PUSH1 0x60 DUP7 ADD MSTORE POP DUP1 PUSH2 0x947 PUSH1 0x20 DUP12 ADD PUSH2 0x718 JUMP JUMPDEST AND PUSH1 0x80 DUP6 ADD MSTORE DUP1 PUSH2 0x957 DUP10 PUSH2 0x718 JUMP JUMPDEST AND PUSH1 0xA0 DUP6 ADD MSTORE POP PUSH1 0x20 DUP8 ADD CALLDATALOAD PUSH1 0xC0 DUP5 ADD MSTORE PUSH2 0x975 PUSH1 0xE0 DUP5 ADD DUP8 PUSH2 0x8A1 JUMP JUMPDEST DUP1 PUSH2 0x120 DUP5 ADD MSTORE PUSH2 0x989 DUP2 DUP5 ADD DUP6 DUP8 PUSH2 0x8CB JUMP JUMPDEST SWAP12 SWAP11 POP POP POP POP POP POP POP POP POP POP POP JUMP INVALID LOG2 PUSH5 0x6970667358 0x22 SLT KECCAK256 CALLDATALOAD 0xD PUSH29 0xD071A6ADD1C2BF6DC6FCDDBC8FDC8A5054624DF373A1838E7694003CBE PUSH5 0x736F6C6343 STOP ADDMOD XOR STOP CALLER "},"methodIdentifiers":{"acceptedTokens(address)":"82dc4a05","allEscrows(uint256)":"1d3afee6","createAgreement(bytes32,address,address,address,(uint16,address),(address,uint256),(uint32,uint32),uint256[])":"c5fe36d4","escrows(bytes32)":"2d83549c","getEscrow(bytes32)":"f023b811","getEscrowCount()":"16b15135","implementation()":"5c60da1b","owner()":"8da5cb5b","setTokenAccepted(address,bool)":"4349597a","transferOwnership(address)":"f2fde38b"}}}}}