{"contracts/bufi/extractors/EscrowExtractor.sol":{"EscrowExtractor":{"abi":[{"inputs":[],"name":"ACTION_EXECUTE","outputs":[{"internalType":"uint8","name":"","type":"uint8"}],"stateMutability":"view","type":"function"},{"inputs":[],"name":"ACTION_FUND","outputs":[{"internalType":"uint8","name":"","type":"uint8"}],"stateMutability":"view","type":"function"},{"inputs":[],"name":"ACTION_LOCK","outputs":[{"internalType":"uint8","name":"","type":"uint8"}],"stateMutability":"view","type":"function"},{"inputs":[],"name":"ACTION_SET_DECISION","outputs":[{"internalType":"uint8","name":"","type":"uint8"}],"stateMutability":"view","type":"function"},{"inputs":[],"name":"ACTION_STATUS","outputs":[{"internalType":"uint8","name":"","type":"uint8"}],"stateMutability":"view","type":"function"},{"inputs":[],"name":"PARAM_ACTION_TYPE","outputs":[{"internalType":"bytes32","name":"","type":"bytes32"}],"stateMutability":"view","type":"function"},{"inputs":[],"name":"PARAM_EXECUTOR_AGENT","outputs":[{"internalType":"bytes32","name":"","type":"bytes32"}],"stateMutability":"view","type":"function"},{"inputs":[],"name":"PARAM_MILESTONE_INDEX","outputs":[{"internalType":"bytes32","name":"","type":"bytes32"}],"stateMutability":"view","type":"function"},{"inputs":[],"name":"PARAM_PAYEE_BPS","outputs":[{"internalType":"bytes32","name":"","type":"bytes32"}],"stateMutability":"view","type":"function"},{"inputs":[],"name":"PARAM_RECEIPT_HASH","outputs":[{"internalType":"bytes32","name":"","type":"bytes32"}],"stateMutability":"view","type":"function"},{"inputs":[{"components":[{"internalType":"address","name":"target","type":"address"},{"internalType":"bytes4","name":"selector","type":"bytes4"},{"internalType":"bytes","name":"data","type":"bytes"}],"internalType":"struct IPolicyEngine.Payload","name":"payload","type":"tuple"}],"name":"extract","outputs":[{"components":[{"internalType":"bytes32","name":"name","type":"bytes32"},{"internalType":"bytes","name":"value","type":"bytes"}],"internalType":"struct IPolicyEngine.Parameter[]","name":"","type":"tuple[]"}],"stateMutability":"pure","type":"function"}],"evm":{"bytecode":{"linkReferences":{},"object":"608060405234801561001057600080fd5b50610871806100206000396000f3fe608060405234801561001057600080fd5b50600436106100a95760003560e01c80636316aa55116100715780636316aa551461013257806368b43292146101595780639263edd514610180578063b228698c146101a7578063e879442b146101af578063f05b55ef146101d657600080fd5b806313259940146100ae57806322efcc4f146100cd5780633a90c290146100d55780633d19d5d71461010a578063466c4ca31461012a575b600080fd5b6100b6600581565b60405160ff90911681526020015b60405180910390f35b6100b6600181565b6100fc7fc16bd8ad5a4ac1866ad768961bbdc5768e29c0ed46981ba1bf1aa05b40ef27a281565b6040519081526020016100c4565b61011d61011836600461057d565b6101de565b6040516100c49190610687565b6100b6600281565b6100fc7f8d6ae6557a1b665a8217f86cbde0677827f5bb852e3ceff475871efb0f7ca41781565b6100fc7f35364aa2d8638d8ce167cd0c60590f777d870e3c32d07da9d14cc2c54235ede781565b6100fc7fb312940f9f99e3337a9bbd311a3b0145234930258fa7b71f4542b0a42ae9dcd281565b6100b6600381565b6100fc7f04300f71330244d2e2981352994b28d017ca9cebeaf9943595591cc9f83ce11881565b6100b6600481565b6060600082604001518060200190518101906101fa9190610767565b91505060008060008060008580602001905181019061021991906107cb565b60408051600580825260c08201909252959a509398509196509450925060009190816020015b60408051808201909152600081526060602082015281526020019060019003908161023f57905050905060405180604001604052807f8d6ae6557a1b665a8217f86cbde0677827f5bb852e3ceff475871efb0f7ca4178152602001876040516020016102b4919060ff91909116815260200190565b604051602081830303815290604052815250816000815181106102d9576102d9610825565b602002602001018190525060405180604001604052807f35364aa2d8638d8ce167cd0c60590f777d870e3c32d07da9d14cc2c54235ede781526020018660405160200161032891815260200190565b6040516020818303038152906040528152508160018151811061034d5761034d610825565b602002602001018190525060405180604001604052807f04300f71330244d2e2981352994b28d017ca9cebeaf9943595591cc9f83ce1188152602001856040516020016103a991906001600160a01b0391909116815260200190565b604051602081830303815290604052815250816002815181106103ce576103ce610825565b602002602001018190525060405180604001604052807fb312940f9f99e3337a9bbd311a3b0145234930258fa7b71f4542b0a42ae9dcd281526020018460405160200161041d91815260200190565b6040516020818303038152906040528152508160038151811061044257610442610825565b602002602001018190525060405180604001604052807fc16bd8ad5a4ac1866ad768961bbdc5768e29c0ed46981ba1bf1aa05b40ef27a281526020018360405160200161049191815260200190565b604051602081830303815290604052815250816004815181106104b6576104b6610825565b602090810291909101015298975050505050505050565b634e487b7160e01b600052604160045260246000fd5b6040516060810167ffffffffffffffff81118282101715610506576105066104cd565b60405290565b604051601f8201601f1916810167ffffffffffffffff81118282101715610535576105356104cd565b604052919050565b6001600160a01b038116811461055257600080fd5b50565b600067ffffffffffffffff82111561056f5761056f6104cd565b50601f01601f191660200190565b6000602080838503121561059057600080fd5b823567ffffffffffffffff808211156105a857600080fd5b90840190606082870312156105bc57600080fd5b6105c46104e3565b82356105cf8161053d565b8152828401356001600160e01b0319811681146105eb57600080fd5b8185015260408301358281111561060157600080fd5b80840193505086601f84011261061657600080fd5b8235915061062b61062683610555565b61050c565b828152878584860101111561063f57600080fd5b82858501868301376000858483010152806040830152508094505050505092915050565b60005b8381101561067e578181015183820152602001610666565b50506000910152565b600060208083018184528085518083526040925060408601915060408160051b87010184880160005b8381101561070c57888303603f19018552815180518452870151878401879052805187850181905260606106e982828801858d01610663565b96890196601f91909101601f1916949094019093019250908601906001016106b0565b509098975050505050505050565b600082601f83011261072b57600080fd5b815161073961062682610555565b81815284602083860101111561074e57600080fd5b61075f826020830160208701610663565b949350505050565b6000806040838503121561077a57600080fd5b825167ffffffffffffffff8082111561079257600080fd5b61079e8683870161071a565b935060208501519150808211156107b457600080fd5b506107c18582860161071a565b9150509250929050565b600080600080600060a086880312156107e357600080fd5b855160ff811681146107f457600080fd5b60208701516040880151919650945061080c8161053d565b6060870151608090970151959894975095949392505050565b634e487b7160e01b600052603260045260246000fdfea2646970667358221220b8954fd1d7e6464018321cbb0d77e604562480157bd77e6cc63a44f704c6a96664736f6c63430008180033","opcodes":"PUSH1 0x80 PUSH1 0x40 MSTORE CALLVALUE DUP1 ISZERO PUSH2 0x10 JUMPI PUSH1 0x0 DUP1 REVERT JUMPDEST POP PUSH2 0x871 DUP1 PUSH2 0x20 PUSH1 0x0 CODECOPY PUSH1 0x0 RETURN INVALID PUSH1 0x80 PUSH1 0x40 MSTORE CALLVALUE DUP1 ISZERO PUSH2 0x10 JUMPI PUSH1 0x0 DUP1 REVERT JUMPDEST POP PUSH1 0x4 CALLDATASIZE LT PUSH2 0xA9 JUMPI PUSH1 0x0 CALLDATALOAD PUSH1 0xE0 SHR DUP1 PUSH4 0x6316AA55 GT PUSH2 0x71 JUMPI DUP1 PUSH4 0x6316AA55 EQ PUSH2 0x132 JUMPI DUP1 PUSH4 0x68B43292 EQ PUSH2 0x159 JUMPI DUP1 PUSH4 0x9263EDD5 EQ PUSH2 0x180 JUMPI DUP1 PUSH4 0xB228698C EQ PUSH2 0x1A7 JUMPI DUP1 PUSH4 0xE879442B EQ PUSH2 0x1AF JUMPI DUP1 PUSH4 0xF05B55EF EQ PUSH2 0x1D6 JUMPI PUSH1 0x0 DUP1 REVERT JUMPDEST DUP1 PUSH4 0x13259940 EQ PUSH2 0xAE JUMPI DUP1 PUSH4 0x22EFCC4F EQ PUSH2 0xCD JUMPI DUP1 PUSH4 0x3A90C290 EQ PUSH2 0xD5 JUMPI DUP1 PUSH4 0x3D19D5D7 EQ PUSH2 0x10A JUMPI DUP1 PUSH4 0x466C4CA3 EQ PUSH2 0x12A JUMPI JUMPDEST PUSH1 0x0 DUP1 REVERT JUMPDEST PUSH2 0xB6 PUSH1 0x5 DUP2 JUMP JUMPDEST PUSH1 0x40 MLOAD PUSH1 0xFF SWAP1 SWAP2 AND DUP2 MSTORE PUSH1 0x20 ADD JUMPDEST PUSH1 0x40 MLOAD DUP1 SWAP2 SUB SWAP1 RETURN JUMPDEST PUSH2 0xB6 PUSH1 0x1 DUP2 JUMP JUMPDEST PUSH2 0xFC PUSH32 0xC16BD8AD5A4AC1866AD768961BBDC5768E29C0ED46981BA1BF1AA05B40EF27A2 DUP2 JUMP JUMPDEST PUSH1 0x40 MLOAD SWAP1 DUP2 MSTORE PUSH1 0x20 ADD PUSH2 0xC4 JUMP JUMPDEST PUSH2 0x11D PUSH2 0x118 CALLDATASIZE PUSH1 0x4 PUSH2 0x57D JUMP JUMPDEST PUSH2 0x1DE JUMP JUMPDEST PUSH1 0x40 MLOAD PUSH2 0xC4 SWAP2 SWAP1 PUSH2 0x687 JUMP JUMPDEST PUSH2 0xB6 PUSH1 0x2 DUP2 JUMP JUMPDEST PUSH2 0xFC PUSH32 0x8D6AE6557A1B665A8217F86CBDE0677827F5BB852E3CEFF475871EFB0F7CA417 DUP2 JUMP JUMPDEST PUSH2 0xFC PUSH32 0x35364AA2D8638D8CE167CD0C60590F777D870E3C32D07DA9D14CC2C54235EDE7 DUP2 JUMP JUMPDEST PUSH2 0xFC PUSH32 0xB312940F9F99E3337A9BBD311A3B0145234930258FA7B71F4542B0A42AE9DCD2 DUP2 JUMP JUMPDEST PUSH2 0xB6 PUSH1 0x3 DUP2 JUMP JUMPDEST PUSH2 0xFC PUSH32 0x4300F71330244D2E2981352994B28D017CA9CEBEAF9943595591CC9F83CE118 DUP2 JUMP JUMPDEST PUSH2 0xB6 PUSH1 0x4 DUP2 JUMP JUMPDEST PUSH1 0x60 PUSH1 0x0 DUP3 PUSH1 0x40 ADD MLOAD DUP1 PUSH1 0x20 ADD SWAP1 MLOAD DUP2 ADD SWAP1 PUSH2 0x1FA SWAP2 SWAP1 PUSH2 0x767 JUMP JUMPDEST SWAP2 POP POP PUSH1 0x0 DUP1 PUSH1 0x0 DUP1 PUSH1 0x0 DUP6 DUP1 PUSH1 0x20 ADD SWAP1 MLOAD DUP2 ADD SWAP1 PUSH2 0x219 SWAP2 SWAP1 PUSH2 0x7CB JUMP JUMPDEST PUSH1 0x40 DUP1 MLOAD PUSH1 0x5 DUP1 DUP3 MSTORE PUSH1 0xC0 DUP3 ADD SWAP1 SWAP3 MSTORE SWAP6 SWAP11 POP SWAP4 SWAP9 POP SWAP2 SWAP7 POP SWAP5 POP SWAP3 POP PUSH1 0x0 SWAP2 SWAP1 DUP2 PUSH1 0x20 ADD JUMPDEST PUSH1 0x40 DUP1 MLOAD DUP1 DUP3 ADD SWAP1 SWAP2 MSTORE PUSH1 0x0 DUP2 MSTORE PUSH1 0x60 PUSH1 0x20 DUP3 ADD MSTORE DUP2 MSTORE PUSH1 0x20 ADD SWAP1 PUSH1 0x1 SWAP1 SUB SWAP1 DUP2 PUSH2 0x23F JUMPI SWAP1 POP POP SWAP1 POP PUSH1 0x40 MLOAD DUP1 PUSH1 0x40 ADD PUSH1 0x40 MSTORE DUP1 PUSH32 0x8D6AE6557A1B665A8217F86CBDE0677827F5BB852E3CEFF475871EFB0F7CA417 DUP2 MSTORE PUSH1 0x20 ADD DUP8 PUSH1 0x40 MLOAD PUSH1 0x20 ADD PUSH2 0x2B4 SWAP2 SWAP1 PUSH1 0xFF SWAP2 SWAP1 SWAP2 AND DUP2 MSTORE PUSH1 0x20 ADD SWAP1 JUMP JUMPDEST PUSH1 0x40 MLOAD PUSH1 0x20 DUP2 DUP4 SUB SUB DUP2 MSTORE SWAP1 PUSH1 0x40 MSTORE DUP2 MSTORE POP DUP2 PUSH1 0x0 DUP2 MLOAD DUP2 LT PUSH2 0x2D9 JUMPI PUSH2 0x2D9 PUSH2 0x825 JUMP JUMPDEST PUSH1 0x20 MUL PUSH1 0x20 ADD ADD DUP2 SWAP1 MSTORE POP PUSH1 0x40 MLOAD DUP1 PUSH1 0x40 ADD PUSH1 0x40 MSTORE DUP1 PUSH32 0x35364AA2D8638D8CE167CD0C60590F777D870E3C32D07DA9D14CC2C54235EDE7 DUP2 MSTORE PUSH1 0x20 ADD DUP7 PUSH1 0x40 MLOAD PUSH1 0x20 ADD PUSH2 0x328 SWAP2 DUP2 MSTORE PUSH1 0x20 ADD SWAP1 JUMP JUMPDEST PUSH1 0x40 MLOAD PUSH1 0x20 DUP2 DUP4 SUB SUB DUP2 MSTORE SWAP1 PUSH1 0x40 MSTORE DUP2 MSTORE POP DUP2 PUSH1 0x1 DUP2 MLOAD DUP2 LT PUSH2 0x34D JUMPI PUSH2 0x34D PUSH2 0x825 JUMP JUMPDEST PUSH1 0x20 MUL PUSH1 0x20 ADD ADD DUP2 SWAP1 MSTORE POP PUSH1 0x40 MLOAD DUP1 PUSH1 0x40 ADD PUSH1 0x40 MSTORE DUP1 PUSH32 0x4300F71330244D2E2981352994B28D017CA9CEBEAF9943595591CC9F83CE118 DUP2 MSTORE PUSH1 0x20 ADD DUP6 PUSH1 0x40 MLOAD PUSH1 0x20 ADD PUSH2 0x3A9 SWAP2 SWAP1 PUSH1 0x1 PUSH1 0x1 PUSH1 0xA0 SHL SUB SWAP2 SWAP1 SWAP2 AND DUP2 MSTORE PUSH1 0x20 ADD SWAP1 JUMP JUMPDEST PUSH1 0x40 MLOAD PUSH1 0x20 DUP2 DUP4 SUB SUB DUP2 MSTORE SWAP1 PUSH1 0x40 MSTORE DUP2 MSTORE POP DUP2 PUSH1 0x2 DUP2 MLOAD DUP2 LT PUSH2 0x3CE JUMPI PUSH2 0x3CE PUSH2 0x825 JUMP JUMPDEST PUSH1 0x20 MUL PUSH1 0x20 ADD ADD DUP2 SWAP1 MSTORE POP PUSH1 0x40 MLOAD DUP1 PUSH1 0x40 ADD PUSH1 0x40 MSTORE DUP1 PUSH32 0xB312940F9F99E3337A9BBD311A3B0145234930258FA7B71F4542B0A42AE9DCD2 DUP2 MSTORE PUSH1 0x20 ADD DUP5 PUSH1 0x40 MLOAD PUSH1 0x20 ADD PUSH2 0x41D SWAP2 DUP2 MSTORE PUSH1 0x20 ADD SWAP1 JUMP JUMPDEST PUSH1 0x40 MLOAD PUSH1 0x20 DUP2 DUP4 SUB SUB DUP2 MSTORE SWAP1 PUSH1 0x40 MSTORE DUP2 MSTORE POP DUP2 PUSH1 0x3 DUP2 MLOAD DUP2 LT PUSH2 0x442 JUMPI PUSH2 0x442 PUSH2 0x825 JUMP JUMPDEST PUSH1 0x20 MUL PUSH1 0x20 ADD ADD DUP2 SWAP1 MSTORE POP PUSH1 0x40 MLOAD DUP1 PUSH1 0x40 ADD PUSH1 0x40 MSTORE DUP1 PUSH32 0xC16BD8AD5A4AC1866AD768961BBDC5768E29C0ED46981BA1BF1AA05B40EF27A2 DUP2 MSTORE PUSH1 0x20 ADD DUP4 PUSH1 0x40 MLOAD PUSH1 0x20 ADD PUSH2 0x491 SWAP2 DUP2 MSTORE PUSH1 0x20 ADD SWAP1 JUMP JUMPDEST PUSH1 0x40 MLOAD PUSH1 0x20 DUP2 DUP4 SUB SUB DUP2 MSTORE SWAP1 PUSH1 0x40 MSTORE DUP2 MSTORE POP DUP2 PUSH1 0x4 DUP2 MLOAD DUP2 LT PUSH2 0x4B6 JUMPI PUSH2 0x4B6 PUSH2 0x825 JUMP JUMPDEST PUSH1 0x20 SWAP1 DUP2 MUL SWAP2 SWAP1 SWAP2 ADD ADD MSTORE SWAP9 SWAP8 POP POP POP POP POP POP POP POP JUMP JUMPDEST PUSH4 0x4E487B71 PUSH1 0xE0 SHL PUSH1 0x0 MSTORE PUSH1 0x41 PUSH1 0x4 MSTORE PUSH1 0x24 PUSH1 0x0 REVERT JUMPDEST PUSH1 0x40 MLOAD PUSH1 0x60 DUP2 ADD PUSH8 0xFFFFFFFFFFFFFFFF DUP2 GT DUP3 DUP3 LT OR ISZERO PUSH2 0x506 JUMPI PUSH2 0x506 PUSH2 0x4CD JUMP JUMPDEST PUSH1 0x40 MSTORE SWAP1 JUMP JUMPDEST PUSH1 0x40 MLOAD PUSH1 0x1F DUP3 ADD PUSH1 0x1F NOT AND DUP2 ADD PUSH8 0xFFFFFFFFFFFFFFFF DUP2 GT DUP3 DUP3 LT OR ISZERO PUSH2 0x535 JUMPI PUSH2 0x535 PUSH2 0x4CD JUMP JUMPDEST PUSH1 0x40 MSTORE SWAP2 SWAP1 POP JUMP JUMPDEST PUSH1 0x1 PUSH1 0x1 PUSH1 0xA0 SHL SUB DUP2 AND DUP2 EQ PUSH2 0x552 JUMPI PUSH1 0x0 DUP1 REVERT JUMPDEST POP JUMP JUMPDEST PUSH1 0x0 PUSH8 0xFFFFFFFFFFFFFFFF DUP3 GT ISZERO PUSH2 0x56F JUMPI PUSH2 0x56F PUSH2 0x4CD JUMP JUMPDEST POP PUSH1 0x1F ADD PUSH1 0x1F NOT AND PUSH1 0x20 ADD SWAP1 JUMP JUMPDEST PUSH1 0x0 PUSH1 0x20 DUP1 DUP4 DUP6 SUB SLT ISZERO PUSH2 0x590 JUMPI PUSH1 0x0 DUP1 REVERT JUMPDEST DUP3 CALLDATALOAD PUSH8 0xFFFFFFFFFFFFFFFF DUP1 DUP3 GT ISZERO PUSH2 0x5A8 JUMPI PUSH1 0x0 DUP1 REVERT JUMPDEST SWAP1 DUP5 ADD SWAP1 PUSH1 0x60 DUP3 DUP8 SUB SLT ISZERO PUSH2 0x5BC JUMPI PUSH1 0x0 DUP1 REVERT JUMPDEST PUSH2 0x5C4 PUSH2 0x4E3 JUMP JUMPDEST DUP3 CALLDATALOAD PUSH2 0x5CF DUP2 PUSH2 0x53D JUMP JUMPDEST DUP2 MSTORE DUP3 DUP5 ADD CALLDATALOAD PUSH1 0x1 PUSH1 0x1 PUSH1 0xE0 SHL SUB NOT DUP2 AND DUP2 EQ PUSH2 0x5EB JUMPI PUSH1 0x0 DUP1 REVERT JUMPDEST DUP2 DUP6 ADD MSTORE PUSH1 0x40 DUP4 ADD CALLDATALOAD DUP3 DUP2 GT ISZERO PUSH2 0x601 JUMPI PUSH1 0x0 DUP1 REVERT JUMPDEST DUP1 DUP5 ADD SWAP4 POP POP DUP7 PUSH1 0x1F DUP5 ADD SLT PUSH2 0x616 JUMPI PUSH1 0x0 DUP1 REVERT JUMPDEST DUP3 CALLDATALOAD SWAP2 POP PUSH2 0x62B PUSH2 0x626 DUP4 PUSH2 0x555 JUMP JUMPDEST PUSH2 0x50C JUMP JUMPDEST DUP3 DUP2 MSTORE DUP8 DUP6 DUP5 DUP7 ADD ADD GT ISZERO PUSH2 0x63F JUMPI PUSH1 0x0 DUP1 REVERT JUMPDEST DUP3 DUP6 DUP6 ADD DUP7 DUP4 ADD CALLDATACOPY PUSH1 0x0 DUP6 DUP5 DUP4 ADD ADD MSTORE DUP1 PUSH1 0x40 DUP4 ADD MSTORE POP DUP1 SWAP5 POP POP POP POP POP SWAP3 SWAP2 POP POP JUMP JUMPDEST PUSH1 0x0 JUMPDEST DUP4 DUP2 LT ISZERO PUSH2 0x67E JUMPI DUP2 DUP2 ADD MLOAD DUP4 DUP3 ADD MSTORE PUSH1 0x20 ADD PUSH2 0x666 JUMP JUMPDEST POP POP PUSH1 0x0 SWAP2 ADD MSTORE JUMP JUMPDEST PUSH1 0x0 PUSH1 0x20 DUP1 DUP4 ADD DUP2 DUP5 MSTORE DUP1 DUP6 MLOAD DUP1 DUP4 MSTORE PUSH1 0x40 SWAP3 POP PUSH1 0x40 DUP7 ADD SWAP2 POP PUSH1 0x40 DUP2 PUSH1 0x5 SHL DUP8 ADD ADD DUP5 DUP9 ADD PUSH1 0x0 JUMPDEST DUP4 DUP2 LT ISZERO PUSH2 0x70C JUMPI DUP9 DUP4 SUB PUSH1 0x3F NOT ADD DUP6 MSTORE DUP2 MLOAD DUP1 MLOAD DUP5 MSTORE DUP8 ADD MLOAD DUP8 DUP5 ADD DUP8 SWAP1 MSTORE DUP1 MLOAD DUP8 DUP6 ADD DUP2 SWAP1 MSTORE PUSH1 0x60 PUSH2 0x6E9 DUP3 DUP3 DUP9 ADD DUP6 DUP14 ADD PUSH2 0x663 JUMP JUMPDEST SWAP7 DUP10 ADD SWAP7 PUSH1 0x1F SWAP2 SWAP1 SWAP2 ADD PUSH1 0x1F NOT AND SWAP5 SWAP1 SWAP5 ADD SWAP1 SWAP4 ADD SWAP3 POP SWAP1 DUP7 ADD SWAP1 PUSH1 0x1 ADD PUSH2 0x6B0 JUMP JUMPDEST POP SWAP1 SWAP9 SWAP8 POP POP POP POP POP POP POP POP JUMP JUMPDEST PUSH1 0x0 DUP3 PUSH1 0x1F DUP4 ADD SLT PUSH2 0x72B JUMPI PUSH1 0x0 DUP1 REVERT JUMPDEST DUP2 MLOAD PUSH2 0x739 PUSH2 0x626 DUP3 PUSH2 0x555 JUMP JUMPDEST DUP2 DUP2 MSTORE DUP5 PUSH1 0x20 DUP4 DUP7 ADD ADD GT ISZERO PUSH2 0x74E JUMPI PUSH1 0x0 DUP1 REVERT JUMPDEST PUSH2 0x75F DUP3 PUSH1 0x20 DUP4 ADD PUSH1 0x20 DUP8 ADD PUSH2 0x663 JUMP JUMPDEST SWAP5 SWAP4 POP POP POP POP JUMP JUMPDEST PUSH1 0x0 DUP1 PUSH1 0x40 DUP4 DUP6 SUB SLT ISZERO PUSH2 0x77A JUMPI PUSH1 0x0 DUP1 REVERT JUMPDEST DUP3 MLOAD PUSH8 0xFFFFFFFFFFFFFFFF DUP1 DUP3 GT ISZERO PUSH2 0x792 JUMPI PUSH1 0x0 DUP1 REVERT JUMPDEST PUSH2 0x79E DUP7 DUP4 DUP8 ADD PUSH2 0x71A JUMP JUMPDEST SWAP4 POP PUSH1 0x20 DUP6 ADD MLOAD SWAP2 POP DUP1 DUP3 GT ISZERO PUSH2 0x7B4 JUMPI PUSH1 0x0 DUP1 REVERT JUMPDEST POP PUSH2 0x7C1 DUP6 DUP3 DUP7 ADD PUSH2 0x71A JUMP JUMPDEST SWAP2 POP POP SWAP3 POP SWAP3 SWAP1 POP JUMP JUMPDEST PUSH1 0x0 DUP1 PUSH1 0x0 DUP1 PUSH1 0x0 PUSH1 0xA0 DUP7 DUP9 SUB SLT ISZERO PUSH2 0x7E3 JUMPI PUSH1 0x0 DUP1 REVERT JUMPDEST DUP6 MLOAD PUSH1 0xFF DUP2 AND DUP2 EQ PUSH2 0x7F4 JUMPI PUSH1 0x0 DUP1 REVERT JUMPDEST PUSH1 0x20 DUP8 ADD MLOAD PUSH1 0x40 DUP9 ADD MLOAD SWAP2 SWAP7 POP SWAP5 POP PUSH2 0x80C DUP2 PUSH2 0x53D JUMP JUMPDEST PUSH1 0x60 DUP8 ADD MLOAD PUSH1 0x80 SWAP1 SWAP8 ADD MLOAD SWAP6 SWAP9 SWAP5 SWAP8 POP SWAP6 SWAP5 SWAP4 SWAP3 POP POP POP JUMP JUMPDEST PUSH4 0x4E487B71 PUSH1 0xE0 SHL PUSH1 0x0 MSTORE PUSH1 0x32 PUSH1 0x4 MSTORE PUSH1 0x24 PUSH1 0x0 REVERT INVALID LOG2 PUSH5 0x6970667358 0x22 SLT KECCAK256 0xB8 SWAP6 0x4F 0xD1 0xD7 0xE6 CHAINID BLOCKHASH XOR ORIGIN SHR 0xBB 0xD PUSH24 0xE604562480157BD77E6CC63A44F704C6A96664736F6C6343 STOP ADDMOD XOR STOP CALLER "},"methodIdentifiers":{"ACTION_EXECUTE()":"f05b55ef","ACTION_FUND()":"22efcc4f","ACTION_LOCK()":"466c4ca3","ACTION_SET_DECISION()":"b228698c","ACTION_STATUS()":"13259940","PARAM_ACTION_TYPE()":"6316aa55","PARAM_EXECUTOR_AGENT()":"e879442b","PARAM_MILESTONE_INDEX()":"68b43292","PARAM_PAYEE_BPS()":"9263edd5","PARAM_RECEIPT_HASH()":"3a90c290","extract((address,bytes4,bytes))":"3d19d5d7"}}}}}