{"contracts/bufi/policies/DisputeWindowPolicy.sol":{"DisputeWindowPolicy":{"abi":[{"inputs":[{"internalType":"string","name":"reason","type":"string"}],"name":"PolicyRejected","type":"error"},{"inputs":[],"name":"escrowContract","outputs":[{"internalType":"address","name":"","type":"address"}],"stateMutability":"view","type":"function"},{"inputs":[{"internalType":"address","name":"_owner","type":"address"},{"internalType":"address","name":"_escrowContract","type":"address"}],"name":"initialize","outputs":[],"stateMutability":"nonpayable","type":"function"},{"inputs":[],"name":"owner","outputs":[{"internalType":"address","name":"","type":"address"}],"stateMutability":"view","type":"function"},{"inputs":[{"internalType":"address","name":"","type":"address"},{"internalType":"address","name":"","type":"address"},{"internalType":"bytes4","name":"","type":"bytes4"},{"internalType":"bytes[]","name":"parameters","type":"bytes[]"},{"internalType":"bytes","name":"","type":"bytes"}],"name":"run","outputs":[{"internalType":"enum IPolicyEngineForPolicy.PolicyResult","name":"","type":"uint8"}],"stateMutability":"view","type":"function"},{"inputs":[{"internalType":"address","name":"_escrowContract","type":"address"}],"name":"setEscrowContract","outputs":[],"stateMutability":"nonpayable","type":"function"}],"evm":{"bytecode":{"linkReferences":{},"object":"608060405234801561001057600080fd5b506107cc806100206000396000f3fe608060405234801561001057600080fd5b50600436106100575760003560e01c8063485cc9551461005c5780638da5cb5b14610071578063e3e3094e146100a1578063e42a96e7146100c1578063f42375b5146100d4575b600080fd5b61006f61006a36600461048f565b6100e7565b005b600154610084906001600160a01b031681565b6040516001600160a01b0390911681526020015b60405180910390f35b6100b46100af36600461050b565b610193565b60405161009891906105ed565b600054610084906001600160a01b031681565b61006f6100e2366004610615565b6103f7565b600154600160a01b900460ff16156101575760405162461bcd60e51b815260206004820152602860248201527f4469737075746557696e646f77506f6c6963793a20616c726561647920696e696044820152671d1a585b1a5e995960c21b60648201526084015b60405180910390fd5b60018054600080546001600160a01b039485166001600160a01b0319919091161790556001600160a81b0319169190921617600160a01b179055565b600060028410156102045760405162461bcd60e51b815260206004820152603560248201527f4469737075746557696e646f77506f6c6963793a206e656564206d696c6573746044820152746f6e65496e646578202b20616374696f6e5479706560581b606482015260840161014e565b60008585600081811061021957610219610637565b905060200281019061022b919061064d565b8101906102389190610694565b905060008686600181811061024f5761024f610637565b9050602002810190610261919061064d565b81019061026e91906106ad565b905060ff8116600214801590610288575060ff8116600414155b15610298576000925050506103ec565b60008054604051632442e1cb60e01b8152600481018590526001600160a01b0390911690632442e1cb9060240160e060405180830381865afa1580156102e2573d6000803e3d6000fd5b505050506040513d601f19601f8201168201806040525081019061030691906106ef565b905060031960ff8316016103795760008160a0015111801561032b57508060a0015142105b1561037957604051630e4254bb60e31b815260206004820152601960248201527f646973707574652077696e646f77207374696c6c206f70656e00000000000000604482015260640161014e565b60011960ff8316016103e45760008160a0015111801561039d57508060a001514210155b156103e457604051630e4254bb60e31b8152602060048201526016602482015275191a5cdc1d5d19481dda5b991bddc8195e1c1a5c995960521b604482015260640161014e565b600093505050505b979650505050505050565b6001546001600160a01b031633146104515760405162461bcd60e51b815260206004820152601f60248201527f4469737075746557696e646f77506f6c6963793a206f6e6c79206f776e657200604482015260640161014e565b600080546001600160a01b0319166001600160a01b0392909216919091179055565b80356001600160a01b038116811461048a57600080fd5b919050565b600080604083850312156104a257600080fd5b6104ab83610473565b91506104b960208401610473565b90509250929050565b60008083601f8401126104d457600080fd5b50813567ffffffffffffffff8111156104ec57600080fd5b60208301915083602082850101111561050457600080fd5b9250929050565b600080600080600080600060a0888a03121561052657600080fd5b61052f88610473565b965061053d60208901610473565b955060408801356001600160e01b03198116811461055a57600080fd5b9450606088013567ffffffffffffffff8082111561057757600080fd5b818a0191508a601f83011261058b57600080fd5b81358181111561059a57600080fd5b8b60208260051b85010111156105af57600080fd5b6020830196508095505060808a01359150808211156105cd57600080fd5b506105da8a828b016104c2565b989b979a50959850939692959293505050565b602081016002831061060f57634e487b7160e01b600052602160045260246000fd5b91905290565b60006020828403121561062757600080fd5b61063082610473565b9392505050565b634e487b7160e01b600052603260045260246000fd5b6000808335601e1984360301811261066457600080fd5b83018035915067ffffffffffffffff82111561067f57600080fd5b60200191503681900382131561050457600080fd5b6000602082840312156106a657600080fd5b5035919050565b6000602082840312156106bf57600080fd5b813560ff8116811461063057600080fd5b8051801515811461048a57600080fd5b80516009811061048a57600080fd5b600060e0828403121561070157600080fd5b60405160e0810181811067ffffffffffffffff8211171561073257634e487b7160e01b600052604160045260246000fd5b80604052508251815260208301516020820152610751604084016106d0565b6040820152610762606084016106d0565b6060820152610773608084016106e0565b608082015260a083015160a082015260c083015160c0820152809150509291505056fea26469706673582212204fef74a1181e7ecaad30cd1c976b2e74c47a8ac99ac1718eb4cab440a47d36ae64736f6c63430008180033","opcodes":"PUSH1 0x80 PUSH1 0x40 MSTORE CALLVALUE DUP1 ISZERO PUSH2 0x10 JUMPI PUSH1 0x0 DUP1 REVERT JUMPDEST POP PUSH2 0x7CC DUP1 PUSH2 0x20 PUSH1 0x0 CODECOPY PUSH1 0x0 RETURN INVALID PUSH1 0x80 PUSH1 0x40 MSTORE CALLVALUE DUP1 ISZERO PUSH2 0x10 JUMPI PUSH1 0x0 DUP1 REVERT JUMPDEST POP PUSH1 0x4 CALLDATASIZE LT PUSH2 0x57 JUMPI PUSH1 0x0 CALLDATALOAD PUSH1 0xE0 SHR DUP1 PUSH4 0x485CC955 EQ PUSH2 0x5C JUMPI DUP1 PUSH4 0x8DA5CB5B EQ PUSH2 0x71 JUMPI DUP1 PUSH4 0xE3E3094E EQ PUSH2 0xA1 JUMPI DUP1 PUSH4 0xE42A96E7 EQ PUSH2 0xC1 JUMPI DUP1 PUSH4 0xF42375B5 EQ PUSH2 0xD4 JUMPI JUMPDEST PUSH1 0x0 DUP1 REVERT JUMPDEST PUSH2 0x6F PUSH2 0x6A CALLDATASIZE PUSH1 0x4 PUSH2 0x48F JUMP JUMPDEST PUSH2 0xE7 JUMP JUMPDEST STOP JUMPDEST PUSH1 0x1 SLOAD PUSH2 0x84 SWAP1 PUSH1 0x1 PUSH1 0x1 PUSH1 0xA0 SHL SUB AND DUP2 JUMP JUMPDEST PUSH1 0x40 MLOAD PUSH1 0x1 PUSH1 0x1 PUSH1 0xA0 SHL SUB SWAP1 SWAP2 AND DUP2 MSTORE PUSH1 0x20 ADD JUMPDEST PUSH1 0x40 MLOAD DUP1 SWAP2 SUB SWAP1 RETURN JUMPDEST PUSH2 0xB4 PUSH2 0xAF CALLDATASIZE PUSH1 0x4 PUSH2 0x50B JUMP JUMPDEST PUSH2 0x193 JUMP JUMPDEST PUSH1 0x40 MLOAD PUSH2 0x98 SWAP2 SWAP1 PUSH2 0x5ED JUMP JUMPDEST PUSH1 0x0 SLOAD PUSH2 0x84 SWAP1 PUSH1 0x1 PUSH1 0x1 PUSH1 0xA0 SHL SUB AND DUP2 JUMP JUMPDEST PUSH2 0x6F PUSH2 0xE2 CALLDATASIZE PUSH1 0x4 PUSH2 0x615 JUMP JUMPDEST PUSH2 0x3F7 JUMP JUMPDEST PUSH1 0x1 SLOAD PUSH1 0x1 PUSH1 0xA0 SHL SWAP1 DIV PUSH1 0xFF AND ISZERO PUSH2 0x157 JUMPI PUSH1 0x40 MLOAD PUSH3 0x461BCD PUSH1 0xE5 SHL DUP2 MSTORE PUSH1 0x20 PUSH1 0x4 DUP3 ADD MSTORE PUSH1 0x28 PUSH1 0x24 DUP3 ADD MSTORE PUSH32 0x4469737075746557696E646F77506F6C6963793A20616C726561647920696E69 PUSH1 0x44 DUP3 ADD MSTORE PUSH8 0x1D1A585B1A5E9959 PUSH1 0xC2 SHL PUSH1 0x64 DUP3 ADD MSTORE PUSH1 0x84 ADD JUMPDEST PUSH1 0x40 MLOAD DUP1 SWAP2 SUB SWAP1 REVERT JUMPDEST PUSH1 0x1 DUP1 SLOAD PUSH1 0x0 DUP1 SLOAD PUSH1 0x1 PUSH1 0x1 PUSH1 0xA0 SHL SUB SWAP5 DUP6 AND PUSH1 0x1 PUSH1 0x1 PUSH1 0xA0 SHL SUB NOT SWAP2 SWAP1 SWAP2 AND OR SWAP1 SSTORE PUSH1 0x1 PUSH1 0x1 PUSH1 0xA8 SHL SUB NOT AND SWAP2 SWAP1 SWAP3 AND OR PUSH1 0x1 PUSH1 0xA0 SHL OR SWAP1 SSTORE JUMP JUMPDEST PUSH1 0x0 PUSH1 0x2 DUP5 LT ISZERO PUSH2 0x204 JUMPI PUSH1 0x40 MLOAD PUSH3 0x461BCD PUSH1 0xE5 SHL DUP2 MSTORE PUSH1 0x20 PUSH1 0x4 DUP3 ADD MSTORE PUSH1 0x35 PUSH1 0x24 DUP3 ADD MSTORE PUSH32 0x4469737075746557696E646F77506F6C6963793A206E656564206D696C657374 PUSH1 0x44 DUP3 ADD MSTORE PUSH21 0x6F6E65496E646578202B20616374696F6E54797065 PUSH1 0x58 SHL PUSH1 0x64 DUP3 ADD MSTORE PUSH1 0x84 ADD PUSH2 0x14E JUMP JUMPDEST PUSH1 0x0 DUP6 DUP6 PUSH1 0x0 DUP2 DUP2 LT PUSH2 0x219 JUMPI PUSH2 0x219 PUSH2 0x637 JUMP JUMPDEST SWAP1 POP PUSH1 0x20 MUL DUP2 ADD SWAP1 PUSH2 0x22B SWAP2 SWAP1 PUSH2 0x64D JUMP JUMPDEST DUP2 ADD SWAP1 PUSH2 0x238 SWAP2 SWAP1 PUSH2 0x694 JUMP JUMPDEST SWAP1 POP PUSH1 0x0 DUP7 DUP7 PUSH1 0x1 DUP2 DUP2 LT PUSH2 0x24F JUMPI PUSH2 0x24F PUSH2 0x637 JUMP JUMPDEST SWAP1 POP PUSH1 0x20 MUL DUP2 ADD SWAP1 PUSH2 0x261 SWAP2 SWAP1 PUSH2 0x64D JUMP JUMPDEST DUP2 ADD SWAP1 PUSH2 0x26E SWAP2 SWAP1 PUSH2 0x6AD JUMP JUMPDEST SWAP1 POP PUSH1 0xFF DUP2 AND PUSH1 0x2 EQ DUP1 ISZERO SWAP1 PUSH2 0x288 JUMPI POP PUSH1 0xFF DUP2 AND PUSH1 0x4 EQ ISZERO JUMPDEST ISZERO PUSH2 0x298 JUMPI PUSH1 0x0 SWAP3 POP POP POP PUSH2 0x3EC JUMP JUMPDEST PUSH1 0x0 DUP1 SLOAD PUSH1 0x40 MLOAD PUSH4 0x2442E1CB PUSH1 0xE0 SHL DUP2 MSTORE PUSH1 0x4 DUP2 ADD DUP6 SWAP1 MSTORE PUSH1 0x1 PUSH1 0x1 PUSH1 0xA0 SHL SUB SWAP1 SWAP2 AND SWAP1 PUSH4 0x2442E1CB SWAP1 PUSH1 0x24 ADD PUSH1 0xE0 PUSH1 0x40 MLOAD DUP1 DUP4 SUB DUP2 DUP7 GAS STATICCALL ISZERO DUP1 ISZERO PUSH2 0x2E2 JUMPI RETURNDATASIZE PUSH1 0x0 DUP1 RETURNDATACOPY RETURNDATASIZE PUSH1 0x0 REVERT JUMPDEST POP POP POP POP PUSH1 0x40 MLOAD RETURNDATASIZE PUSH1 0x1F NOT PUSH1 0x1F DUP3 ADD AND DUP3 ADD DUP1 PUSH1 0x40 MSTORE POP DUP2 ADD SWAP1 PUSH2 0x306 SWAP2 SWAP1 PUSH2 0x6EF JUMP JUMPDEST SWAP1 POP PUSH1 0x3 NOT PUSH1 0xFF DUP4 AND ADD PUSH2 0x379 JUMPI PUSH1 0x0 DUP2 PUSH1 0xA0 ADD MLOAD GT DUP1 ISZERO PUSH2 0x32B JUMPI POP DUP1 PUSH1 0xA0 ADD MLOAD TIMESTAMP LT JUMPDEST ISZERO PUSH2 0x379 JUMPI PUSH1 0x40 MLOAD PUSH4 0xE4254BB PUSH1 0xE3 SHL DUP2 MSTORE PUSH1 0x20 PUSH1 0x4 DUP3 ADD MSTORE PUSH1 0x19 PUSH1 0x24 DUP3 ADD MSTORE PUSH32 0x646973707574652077696E646F77207374696C6C206F70656E00000000000000 PUSH1 0x44 DUP3 ADD MSTORE PUSH1 0x64 ADD PUSH2 0x14E JUMP JUMPDEST PUSH1 0x1 NOT PUSH1 0xFF DUP4 AND ADD PUSH2 0x3E4 JUMPI PUSH1 0x0 DUP2 PUSH1 0xA0 ADD MLOAD GT DUP1 ISZERO PUSH2 0x39D JUMPI POP DUP1 PUSH1 0xA0 ADD MLOAD TIMESTAMP LT ISZERO JUMPDEST ISZERO PUSH2 0x3E4 JUMPI PUSH1 0x40 MLOAD PUSH4 0xE4254BB PUSH1 0xE3 SHL DUP2 MSTORE PUSH1 0x20 PUSH1 0x4 DUP3 ADD MSTORE PUSH1 0x16 PUSH1 0x24 DUP3 ADD MSTORE PUSH22 0x191A5CDC1D5D19481DDA5B991BDDC8195E1C1A5C9959 PUSH1 0x52 SHL PUSH1 0x44 DUP3 ADD MSTORE PUSH1 0x64 ADD PUSH2 0x14E JUMP JUMPDEST PUSH1 0x0 SWAP4 POP POP POP POP JUMPDEST SWAP8 SWAP7 POP POP POP POP POP POP POP JUMP JUMPDEST PUSH1 0x1 SLOAD PUSH1 0x1 PUSH1 0x1 PUSH1 0xA0 SHL SUB AND CALLER EQ PUSH2 0x451 JUMPI PUSH1 0x40 MLOAD PUSH3 0x461BCD PUSH1 0xE5 SHL DUP2 MSTORE PUSH1 0x20 PUSH1 0x4 DUP3 ADD MSTORE PUSH1 0x1F PUSH1 0x24 DUP3 ADD MSTORE PUSH32 0x4469737075746557696E646F77506F6C6963793A206F6E6C79206F776E657200 PUSH1 0x44 DUP3 ADD MSTORE PUSH1 0x64 ADD PUSH2 0x14E JUMP JUMPDEST PUSH1 0x0 DUP1 SLOAD PUSH1 0x1 PUSH1 0x1 PUSH1 0xA0 SHL SUB NOT AND PUSH1 0x1 PUSH1 0x1 PUSH1 0xA0 SHL SUB SWAP3 SWAP1 SWAP3 AND SWAP2 SWAP1 SWAP2 OR SWAP1 SSTORE JUMP JUMPDEST DUP1 CALLDATALOAD PUSH1 0x1 PUSH1 0x1 PUSH1 0xA0 SHL SUB DUP2 AND DUP2 EQ PUSH2 0x48A JUMPI PUSH1 0x0 DUP1 REVERT JUMPDEST SWAP2 SWAP1 POP JUMP JUMPDEST PUSH1 0x0 DUP1 PUSH1 0x40 DUP4 DUP6 SUB SLT ISZERO PUSH2 0x4A2 JUMPI PUSH1 0x0 DUP1 REVERT JUMPDEST PUSH2 0x4AB DUP4 PUSH2 0x473 JUMP JUMPDEST SWAP2 POP PUSH2 0x4B9 PUSH1 0x20 DUP5 ADD PUSH2 0x473 JUMP JUMPDEST SWAP1 POP SWAP3 POP SWAP3 SWAP1 POP JUMP JUMPDEST PUSH1 0x0 DUP1 DUP4 PUSH1 0x1F DUP5 ADD SLT PUSH2 0x4D4 JUMPI PUSH1 0x0 DUP1 REVERT JUMPDEST POP DUP2 CALLDATALOAD PUSH8 0xFFFFFFFFFFFFFFFF DUP2 GT ISZERO PUSH2 0x4EC JUMPI PUSH1 0x0 DUP1 REVERT JUMPDEST PUSH1 0x20 DUP4 ADD SWAP2 POP DUP4 PUSH1 0x20 DUP3 DUP6 ADD ADD GT ISZERO PUSH2 0x504 JUMPI PUSH1 0x0 DUP1 REVERT JUMPDEST SWAP3 POP SWAP3 SWAP1 POP JUMP JUMPDEST PUSH1 0x0 DUP1 PUSH1 0x0 DUP1 PUSH1 0x0 DUP1 PUSH1 0x0 PUSH1 0xA0 DUP9 DUP11 SUB SLT ISZERO PUSH2 0x526 JUMPI PUSH1 0x0 DUP1 REVERT JUMPDEST PUSH2 0x52F DUP9 PUSH2 0x473 JUMP JUMPDEST SWAP7 POP PUSH2 0x53D PUSH1 0x20 DUP10 ADD PUSH2 0x473 JUMP JUMPDEST SWAP6 POP PUSH1 0x40 DUP9 ADD CALLDATALOAD PUSH1 0x1 PUSH1 0x1 PUSH1 0xE0 SHL SUB NOT DUP2 AND DUP2 EQ PUSH2 0x55A JUMPI PUSH1 0x0 DUP1 REVERT JUMPDEST SWAP5 POP PUSH1 0x60 DUP9 ADD CALLDATALOAD PUSH8 0xFFFFFFFFFFFFFFFF DUP1 DUP3 GT ISZERO PUSH2 0x577 JUMPI PUSH1 0x0 DUP1 REVERT JUMPDEST DUP2 DUP11 ADD SWAP2 POP DUP11 PUSH1 0x1F DUP4 ADD SLT PUSH2 0x58B JUMPI PUSH1 0x0 DUP1 REVERT JUMPDEST DUP2 CALLDATALOAD DUP2 DUP2 GT ISZERO PUSH2 0x59A JUMPI PUSH1 0x0 DUP1 REVERT JUMPDEST DUP12 PUSH1 0x20 DUP3 PUSH1 0x5 SHL DUP6 ADD ADD GT ISZERO PUSH2 0x5AF JUMPI PUSH1 0x0 DUP1 REVERT JUMPDEST PUSH1 0x20 DUP4 ADD SWAP7 POP DUP1 SWAP6 POP POP PUSH1 0x80 DUP11 ADD CALLDATALOAD SWAP2 POP DUP1 DUP3 GT ISZERO PUSH2 0x5CD JUMPI PUSH1 0x0 DUP1 REVERT JUMPDEST POP PUSH2 0x5DA DUP11 DUP3 DUP12 ADD PUSH2 0x4C2 JUMP JUMPDEST SWAP9 SWAP12 SWAP8 SWAP11 POP SWAP6 SWAP9 POP SWAP4 SWAP7 SWAP3 SWAP6 SWAP3 SWAP4 POP POP POP JUMP JUMPDEST PUSH1 0x20 DUP2 ADD PUSH1 0x2 DUP4 LT PUSH2 0x60F JUMPI PUSH4 0x4E487B71 PUSH1 0xE0 SHL PUSH1 0x0 MSTORE PUSH1 0x21 PUSH1 0x4 MSTORE PUSH1 0x24 PUSH1 0x0 REVERT JUMPDEST SWAP2 SWAP1 MSTORE SWAP1 JUMP JUMPDEST PUSH1 0x0 PUSH1 0x20 DUP3 DUP5 SUB SLT ISZERO PUSH2 0x627 JUMPI PUSH1 0x0 DUP1 REVERT JUMPDEST PUSH2 0x630 DUP3 PUSH2 0x473 JUMP JUMPDEST SWAP4 SWAP3 POP POP POP JUMP JUMPDEST PUSH4 0x4E487B71 PUSH1 0xE0 SHL PUSH1 0x0 MSTORE PUSH1 0x32 PUSH1 0x4 MSTORE PUSH1 0x24 PUSH1 0x0 REVERT JUMPDEST PUSH1 0x0 DUP1 DUP4 CALLDATALOAD PUSH1 0x1E NOT DUP5 CALLDATASIZE SUB ADD DUP2 SLT PUSH2 0x664 JUMPI PUSH1 0x0 DUP1 REVERT JUMPDEST DUP4 ADD DUP1 CALLDATALOAD SWAP2 POP PUSH8 0xFFFFFFFFFFFFFFFF DUP3 GT ISZERO PUSH2 0x67F JUMPI PUSH1 0x0 DUP1 REVERT JUMPDEST PUSH1 0x20 ADD SWAP2 POP CALLDATASIZE DUP2 SWAP1 SUB DUP3 SGT ISZERO PUSH2 0x504 JUMPI PUSH1 0x0 DUP1 REVERT JUMPDEST PUSH1 0x0 PUSH1 0x20 DUP3 DUP5 SUB SLT ISZERO PUSH2 0x6A6 JUMPI PUSH1 0x0 DUP1 REVERT JUMPDEST POP CALLDATALOAD SWAP2 SWAP1 POP JUMP JUMPDEST PUSH1 0x0 PUSH1 0x20 DUP3 DUP5 SUB SLT ISZERO PUSH2 0x6BF JUMPI PUSH1 0x0 DUP1 REVERT JUMPDEST DUP2 CALLDATALOAD PUSH1 0xFF DUP2 AND DUP2 EQ PUSH2 0x630 JUMPI PUSH1 0x0 DUP1 REVERT JUMPDEST DUP1 MLOAD DUP1 ISZERO ISZERO DUP2 EQ PUSH2 0x48A JUMPI PUSH1 0x0 DUP1 REVERT JUMPDEST DUP1 MLOAD PUSH1 0x9 DUP2 LT PUSH2 0x48A JUMPI PUSH1 0x0 DUP1 REVERT JUMPDEST PUSH1 0x0 PUSH1 0xE0 DUP3 DUP5 SUB SLT ISZERO PUSH2 0x701 JUMPI PUSH1 0x0 DUP1 REVERT JUMPDEST PUSH1 0x40 MLOAD PUSH1 0xE0 DUP2 ADD DUP2 DUP2 LT PUSH8 0xFFFFFFFFFFFFFFFF DUP3 GT OR ISZERO PUSH2 0x732 JUMPI PUSH4 0x4E487B71 PUSH1 0xE0 SHL PUSH1 0x0 MSTORE PUSH1 0x41 PUSH1 0x4 MSTORE PUSH1 0x24 PUSH1 0x0 REVERT JUMPDEST DUP1 PUSH1 0x40 MSTORE POP DUP3 MLOAD DUP2 MSTORE PUSH1 0x20 DUP4 ADD MLOAD PUSH1 0x20 DUP3 ADD MSTORE PUSH2 0x751 PUSH1 0x40 DUP5 ADD PUSH2 0x6D0 JUMP JUMPDEST PUSH1 0x40 DUP3 ADD MSTORE PUSH2 0x762 PUSH1 0x60 DUP5 ADD PUSH2 0x6D0 JUMP JUMPDEST PUSH1 0x60 DUP3 ADD MSTORE PUSH2 0x773 PUSH1 0x80 DUP5 ADD PUSH2 0x6E0 JUMP JUMPDEST PUSH1 0x80 DUP3 ADD MSTORE PUSH1 0xA0 DUP4 ADD MLOAD PUSH1 0xA0 DUP3 ADD MSTORE PUSH1 0xC0 DUP4 ADD MLOAD PUSH1 0xC0 DUP3 ADD MSTORE DUP1 SWAP2 POP POP SWAP3 SWAP2 POP POP JUMP INVALID LOG2 PUSH5 0x6970667358 0x22 SLT KECCAK256 0x4F 0xEF PUSH21 0xA1181E7ECAAD30CD1C976B2E74C47A8AC99AC1718E 0xB4 0xCA 0xB4 BLOCKHASH LOG4 PUSH30 0x36AE64736F6C634300081800330000000000000000000000000000000000 "},"methodIdentifiers":{"escrowContract()":"e42a96e7","initialize(address,address)":"485cc955","owner()":"8da5cb5b","run(address,address,bytes4,bytes[],bytes)":"e3e3094e","setEscrowContract(address)":"f42375b5"}}}}}