{"contracts/bufi/EscrowWithAgentV3.sol":{"EscrowWithAgentV3":{"abi":[{"anonymous":false,"inputs":[{"indexed":true,"internalType":"uint256","name":"milestoneIndex","type":"uint256"},{"indexed":false,"internalType":"uint256","name":"payeeAmount","type":"uint256"},{"indexed":false,"internalType":"uint256","name":"payerAmount","type":"uint256"}],"name":"DecisionExecuted","type":"event"},{"anonymous":false,"inputs":[{"indexed":true,"internalType":"uint256","name":"milestoneIndex","type":"uint256"},{"indexed":false,"internalType":"uint16","name":"payeeBps","type":"uint16"},{"indexed":false,"internalType":"bytes32","name":"finalReceiptHash","type":"bytes32"}],"name":"DecisionSet","type":"event"},{"anonymous":false,"inputs":[{"indexed":true,"internalType":"uint256","name":"milestoneIndex","type":"uint256"},{"indexed":false,"internalType":"uint256","name":"windowEnd","type":"uint256"}],"name":"DisputeWindowStarted","type":"event"},{"anonymous":false,"inputs":[{"indexed":true,"internalType":"uint256","name":"milestoneIndex","type":"uint256"},{"indexed":false,"internalType":"uint256","name":"amount","type":"uint256"}],"name":"MilestoneFunded","type":"event"},{"anonymous":false,"inputs":[{"indexed":true,"internalType":"uint256","name":"milestoneIndex","type":"uint256"},{"indexed":false,"internalType":"bytes32","name":"disputeHash","type":"bytes32"}],"name":"MilestoneLocked","type":"event"},{"anonymous":false,"inputs":[{"indexed":true,"internalType":"uint256","name":"milestoneIndex","type":"uint256"},{"indexed":false,"internalType":"enum IEscrowWithAgentV3.MilestoneStatus","name":"newStatus","type":"uint8"}],"name":"MilestoneStatusChanged","type":"event"},{"inputs":[],"name":"agents","outputs":[{"internalType":"address","name":"identityRegistry","type":"address"},{"internalType":"uint256","name":"executorAgentId","type":"uint256"}],"stateMutability":"view","type":"function"},{"inputs":[{"internalType":"uint256","name":"milestoneIndex","type":"uint256"}],"name":"executeDecision","outputs":[],"stateMutability":"nonpayable","type":"function"},{"inputs":[],"name":"fees","outputs":[{"internalType":"uint16","name":"protocolFeeBps","type":"uint16"},{"internalType":"address","name":"protocolFeeRecipient","type":"address"}],"stateMutability":"view","type":"function"},{"inputs":[{"internalType":"uint256","name":"milestoneIndex","type":"uint256"}],"name":"fundMilestone","outputs":[],"stateMutability":"nonpayable","type":"function"},{"inputs":[{"internalType":"uint256","name":"milestoneIndex","type":"uint256"}],"name":"getDecision","outputs":[{"internalType":"uint16","name":"payeeBps","type":"uint16"},{"internalType":"bytes32","name":"receiptHash","type":"bytes32"},{"internalType":"bool","name":"isSet","type":"bool"},{"internalType":"uint256","name":"extraPayoutsCount","type":"uint256"}],"stateMutability":"view","type":"function"},{"inputs":[{"internalType":"uint256","name":"milestoneIndex","type":"uint256"}],"name":"getMilestone","outputs":[{"components":[{"internalType":"uint256","name":"amount","type":"uint256"},{"internalType":"uint256","name":"released","type":"uint256"},{"internalType":"bool","name":"funded","type":"bool"},{"internalType":"bool","name":"locked","type":"bool"},{"internalType":"enum IEscrowWithAgentV3.MilestoneStatus","name":"status","type":"uint8"},{"internalType":"uint256","name":"disputeWindowEnd","type":"uint256"},{"internalType":"bytes32","name":"finalReceiptHash","type":"bytes32"}],"internalType":"struct IEscrowWithAgentV3.Milestone","name":"","type":"tuple"}],"stateMutability":"view","type":"function"},{"inputs":[],"name":"getMilestoneCount","outputs":[{"internalType":"uint256","name":"","type":"uint256"}],"stateMutability":"view","type":"function"},{"inputs":[],"name":"getPayee","outputs":[{"internalType":"address","name":"","type":"address"}],"stateMutability":"view","type":"function"},{"inputs":[],"name":"getPayer","outputs":[{"internalType":"address","name":"","type":"address"}],"stateMutability":"view","type":"function"},{"inputs":[],"name":"getToken","outputs":[{"internalType":"address","name":"","type":"address"}],"stateMutability":"view","type":"function"},{"inputs":[{"internalType":"address","name":"_payer","type":"address"},{"internalType":"address","name":"_payee","type":"address"},{"internalType":"address","name":"_token","type":"address"},{"components":[{"internalType":"uint16","name":"protocolFeeBps","type":"uint16"},{"internalType":"address","name":"protocolFeeRecipient","type":"address"}],"internalType":"struct IEscrowWithAgentV3.FeeConfig","name":"_fees","type":"tuple"},{"components":[{"internalType":"address","name":"identityRegistry","type":"address"},{"internalType":"uint256","name":"executorAgentId","type":"uint256"}],"internalType":"struct IEscrowWithAgentV3.AgentConfig","name":"_agents","type":"tuple"},{"components":[{"internalType":"uint32","name":"disputeWindowSeconds","type":"uint32"},{"internalType":"uint32","name":"appealWindowSeconds","type":"uint32"}],"internalType":"struct IEscrowWithAgentV3.WindowConfig","name":"_windows","type":"tuple"},{"internalType":"uint256[]","name":"milestoneAmounts","type":"uint256[]"}],"name":"initialize","outputs":[],"stateMutability":"nonpayable","type":"function"},{"inputs":[{"internalType":"uint256","name":"milestoneIndex","type":"uint256"},{"internalType":"bytes32","name":"disputeHash","type":"bytes32"}],"name":"lockMilestone","outputs":[],"stateMutability":"nonpayable","type":"function"},{"inputs":[{"internalType":"uint256","name":"","type":"uint256"}],"name":"milestones","outputs":[{"internalType":"uint256","name":"amount","type":"uint256"},{"internalType":"uint256","name":"released","type":"uint256"},{"internalType":"bool","name":"funded","type":"bool"},{"internalType":"bool","name":"locked","type":"bool"},{"internalType":"enum IEscrowWithAgentV3.MilestoneStatus","name":"status","type":"uint8"},{"internalType":"uint256","name":"disputeWindowEnd","type":"uint256"},{"internalType":"bytes32","name":"finalReceiptHash","type":"bytes32"}],"stateMutability":"view","type":"function"},{"inputs":[],"name":"payee","outputs":[{"internalType":"address","name":"","type":"address"}],"stateMutability":"view","type":"function"},{"inputs":[],"name":"payer","outputs":[{"internalType":"address","name":"","type":"address"}],"stateMutability":"view","type":"function"},{"inputs":[{"internalType":"uint256","name":"milestoneIndex","type":"uint256"},{"internalType":"uint16","name":"payeeBps","type":"uint16"},{"components":[{"internalType":"address","name":"to","type":"address"},{"internalType":"uint256","name":"amount","type":"uint256"}],"internalType":"struct IEscrowWithAgentV3.Payout[]","name":"extraPayouts","type":"tuple[]"},{"internalType":"bytes32","name":"finalReceiptHash","type":"bytes32"}],"name":"setDecision","outputs":[],"stateMutability":"nonpayable","type":"function"},{"inputs":[{"internalType":"uint256","name":"milestoneIndex","type":"uint256"},{"internalType":"enum IEscrowWithAgentV3.MilestoneStatus","name":"newStatus","type":"uint8"}],"name":"setMilestoneStatus","outputs":[],"stateMutability":"nonpayable","type":"function"},{"inputs":[],"name":"token","outputs":[{"internalType":"contract IERC20","name":"","type":"address"}],"stateMutability":"view","type":"function"},{"inputs":[],"name":"windows","outputs":[{"internalType":"uint32","name":"disputeWindowSeconds","type":"uint32"},{"internalType":"uint32","name":"appealWindowSeconds","type":"uint32"}],"stateMutability":"view","type":"function"}],"evm":{"bytecode":{"linkReferences":{},"object":"608060405234801561001057600080fd5b50611bf7806100206000396000f3fe608060405234801561001057600080fd5b50600436106101215760003560e01c80635d9bf255116100ad578063af75484811610071578063af754848146102cd578063cd44673514610336578063e89e4ed614610347578063fbcb09d31461036d578063fc0c546a1461038057600080fd5b80635d9bf2551461024257806373a482e9146102555780638f4cf247146102685780639af1d35a14610279578063ae90b213146102ba57600080fd5b80632582d4c4116100f45780632582d4c41461019c5780632713f36e146101af57806330aa81c6146101e8578063403de107146101f9578063585166611461020c57600080fd5b80630a962af014610126578063123119cd1461013b57806321df0da71461016b5780632442e1cb1461017c575b600080fd5b61013961013436600461166f565b610393565b005b60005461014e906001600160a01b031681565b6040516001600160a01b0390911681526020015b60405180910390f35b6002546001600160a01b031661014e565b61018f61018a366004611753565b6106b6565b60405161016291906117a4565b6101396101aa36600461180f565b6107c1565b6006546101cb9063ffffffff8082169164010000000090041682565b6040805163ffffffff938416815292909116602083015201610162565b6000546001600160a01b031661014e565b610139610207366004611753565b6109d9565b600454600554610223916001600160a01b03169082565b604080516001600160a01b039093168352602083019190915201610162565b6101396102503660046118a3565b610d8d565b610139610263366004611753565b610ea2565b600754604051908152602001610162565b6003546102989061ffff8116906201000090046001600160a01b031682565b6040805161ffff90931683526001600160a01b03909116602083015201610162565b60015461014e906001600160a01b031681565b61030b6102db366004611753565b600090815260086020526040902080546002820154600383015460019093015461ffff90921693909260ff169190565b6040805161ffff90951685526020850193909352901515918301919091526060820152608001610162565b6001546001600160a01b031661014e565b61035a610355366004611753565b61108b565b60405161016297969594939291906118d7565b61013961037b366004611917565b6110e3565b60025461014e906001600160a01b031681565b60095460ff16156103eb5760405162461bcd60e51b815260206004820152601d60248201527f457363726f7756333a20616c726561647920696e697469616c697a656400000060448201526064015b60405180910390fd5b6001600160a01b0388166104385760405162461bcd60e51b815260206004820152601460248201527322b9b1b937bbab199d103d32b937903830bcb2b960611b60448201526064016103e2565b6001600160a01b0387166104855760405162461bcd60e51b8152602060048201526014602482015273457363726f7756333a207a65726f20706179656560601b60448201526064016103e2565b6001600160a01b0386166104d25760405162461bcd60e51b815260206004820152601460248201527322b9b1b937bbab199d103d32b937903a37b5b2b760611b60448201526064016103e2565b8061051f5760405162461bcd60e51b815260206004820152601760248201527f457363726f7756333a206e6f206d696c6573746f6e657300000000000000000060448201526064016103e2565b600080546001600160a01b03808b166001600160a01b031992831617909255600180548a841690831617905560028054928916929091169190911790558460036105698282611939565b50849050600461057982826119c2565b50839050600661058982826119e8565b90505060005b8181101561069e5760076040518060e001604052808585858181106105b6576105b6611a35565b90506020020135815260200160008152602001600015158152602001600015158152602001600060088111156105ee576105ee61176c565b815260006020808301829052604092830182905284546001818101875595835291819020845160059093020191825583015193810193909355810151600283018054606084015115156101000261ff00199315159390931661ffff1990911617919091178082556080830151929392919062ff000019166201000083600881111561067b5761067b61176c565b021790555060a0820151600382015560c09091015160049091015560010161058f565b50506009805460ff1916600117905550505050505050565b6040805160e081018252600080825260208201819052918101829052606081018290526080810182905260a0810182905260c081019190915260075482106107105760405162461bcd60e51b81526004016103e290611a4b565b6007828154811061072357610723611a35565b60009182526020918290206040805160e081018252600590930290910180548352600181015493830193909352600283015460ff80821615159284019290925261010081048216151560608401529192916080840191620100009091041660088111156107925761079261176c565b60088111156107a3576107a361176c565b81526003820154602082015260049091015460409091015292915050565b60075485106107e25760405162461bcd60e51b81526004016103e290611a4b565b6127108461ffff1611156108305760405162461bcd60e51b81526020600482015260156024820152740457363726f7756333a20627073203e20313030303605c1b60448201526064016103e2565b8061087d5760405162461bcd60e51b815260206004820152601c60248201527f457363726f7756333a20656d707479207265636569707420686173680000000060448201526064016103e2565b6000858152600860205260409020600381015460ff16156108e05760405162461bcd60e51b815260206004820152601e60248201527f457363726f7756333a206465636973696f6e20616c726561647920736574000060448201526064016103e2565b805461ffff191661ffff86161781556002810182905560038101805460ff1916600117905560005b8381101561095e578160010185858381811061092657610926611a35565b83546001810185556000948552602090942060409091029290920192600202909101905061095482826119c2565b5050600101610908565b50816007878154811061097357610973611a35565b906000526020600020906005020160040181905550857f2d3855befd5f5814ae4aee94725e3de5987b5e85eab02d7aa248277232b81e3186846040516109c992919061ffff929092168252602082015260400190565b60405180910390a2505050505050565b60075481106109fa5760405162461bcd60e51b81526004016103e290611a4b565b600060078281548110610a0f57610a0f611a35565b60009182526020909120600590910201600281015490915060ff16610a6d5760405162461bcd60e51b8152602060048201526014602482015273115cd8dc9bddd58cce881b9bdd08199d5b99195960621b60448201526064016103e2565b6007600282015462010000900460ff166008811115610a8e57610a8e61176c565b03610adb5760405162461bcd60e51b815260206004820152601a60248201527f457363726f7756333a20616c72656164792072656c656173656400000000000060448201526064016103e2565b6000828152600860205260409020600381015460ff16610b3d5760405162461bcd60e51b815260206004820152601960248201527f457363726f7756333a206e6f206465636973696f6e207365740000000000000060448201526064016103e2565b81546000805b6001840154811015610c23576000846001018281548110610b6657610b66611a35565b60009182526020918290206040805180820190915260029092020180546001600160a01b0316808352600190910154928201929092529150610bea5760405162461bcd60e51b815260206004820152601d60248201527f457363726f7756333a207a65726f207061796f7574206164647265737300000060448201526064016103e2565b6020810151610bf99084611a98565b81516020830151600254929550610c1a926001600160a01b03169190611330565b50600101610b43565b5081811115610c825760405162461bcd60e51b815260206004820152602560248201527f457363726f7756333a206578747261207061796f7574732065786365656420616044820152641b5bdd5b9d60da1b60648201526084016103e2565b6000610c8e8284611aab565b845490915060009061271090610ca89061ffff1684611abe565b610cb29190611ad5565b90506000610cc08284611aab565b90508115610ce557600154600254610ce5916001600160a01b03918216911684611330565b8015610d0857600054600254610d08916001600160a01b03918216911683611330565b6001870185905560028701805462ffff00191662070000179055604080518381526020810183905281518a927f5aa18d940fdb8628e11cf6c2b62e85275d52867aab6a35f333d253e88927759c928290030190a287600080516020611ba28339815191526007604051610d7b9190611af7565b60405180910390a25050505050505050565b6007548210610dae5760405162461bcd60e51b81526004016103e290611a4b565b600060078381548110610dc357610dc3611a35565b6000918252602090912060059091020190506004826008811115610de957610de961176c565b148015610df857506003810154155b15610e4d57600654610e109063ffffffff1642611a98565b6003820181905560405190815283907ff6c61a62ffb7cb3704ebe58ffa420fd3387f0352155fd4ccf9e2f7a326f3d5c89060200160405180910390a25b60028101805483919062ff0000191662010000836008811115610e7257610e7261176c565b021790555082600080516020611ba283398151915283604051610e959190611af7565b60405180910390a2505050565b6000546001600160a01b03163314610ef35760405162461bcd60e51b815260206004820152601460248201527322b9b1b937bbab199d1037b7363c903830bcb2b960611b60448201526064016103e2565b6007548110610f145760405162461bcd60e51b81526004016103e290611a4b565b600060078281548110610f2957610f29611a35565b60009182526020909120600590910201600281015490915060ff1615610f915760405162461bcd60e51b815260206004820152601860248201527f457363726f7756333a20616c72656164792066756e646564000000000000000060448201526064016103e2565b6000600282015462010000900460ff166008811115610fb257610fb261176c565b14610ff85760405162461bcd60e51b8152602060048201526016602482015275457363726f7756333a2077726f6e672073746174757360501b60448201526064016103e2565b8054600254611016916001600160a01b039091169033903090611398565b60028101805462ff00ff1916620100011790558054604080519182525183917fad6f5443f0021bc2808ac5204f3c96a037dc9406ec9bfdf92a8e81539f04c605919081900360200190a281600080516020611ba2833981519152600160405161107f9190611af7565b60405180910390a25050565b6007818154811061109b57600080fd5b600091825260209091206005909102018054600182015460028301546003840154600490940154929450909260ff808316936101008404821693620100009004909116919087565b60075482106111045760405162461bcd60e51b81526004016103e290611a4b565b60006007838154811061111957611119611a35565b60009182526020909120600590910201600281015490915060ff166111775760405162461bcd60e51b8152602060048201526014602482015273115cd8dc9bddd58cce881b9bdd08199d5b99195960621b60448201526064016103e2565b6002810154610100900460ff16156111d15760405162461bcd60e51b815260206004820152601860248201527f457363726f7756333a20616c7265616479206c6f636b6564000000000000000060448201526064016103e2565b6001600282015462010000900460ff1660088111156111f2576111f261176c565b148061121b575060028082015462010000900460ff1660088111156112195761121961176c565b145b8061124457506004600282015462010000900460ff1660088111156112425761124261176c565b145b8061126d57506005600282015462010000900460ff16600881111561126b5761126b61176c565b145b6112c95760405162461bcd60e51b815260206004820152602760248201527f457363726f7756333a2063616e6e6f74206c6f636b20696e2063757272656e746044820152662073746174757360c81b60648201526084016103e2565b60028101805462ffff0019166206010017905560405182815283907f06c0cea54ae93e2f1b088b80844e61a9fe6e721430c6f82f3389516ce4961ed49060200160405180910390a282600080516020611ba28339815191526006604051610e959190611af7565b6040516001600160a01b03831660248201526044810182905261139390849063a9059cbb60e01b906064015b60408051601f198184030181529190526020810180516001600160e01b03166001600160e01b0319909316929092179091526113d6565b505050565b6040516001600160a01b03808516602483015283166044820152606481018290526113d09085906323b872dd60e01b9060840161135c565b50505050565b600061142b826040518060400160405280602081526020017f5361666545524332303a206c6f772d6c6576656c2063616c6c206661696c6564815250856001600160a01b03166114ab9092919063ffffffff16565b905080516000148061144c57508080602001905181019061144c9190611b05565b6113935760405162461bcd60e51b815260206004820152602a60248201527f5361666545524332303a204552433230206f7065726174696f6e20646964206e6044820152691bdd081cdd58d8d9595960b21b60648201526084016103e2565b60606114ba84846000856114c2565b949350505050565b6060824710156115235760405162461bcd60e51b815260206004820152602660248201527f416464726573733a20696e73756666696369656e742062616c616e636520666f6044820152651c8818d85b1b60d21b60648201526084016103e2565b600080866001600160a01b0316858760405161153f9190611b52565b60006040518083038185875af1925050503d806000811461157c576040519150601f19603f3d011682016040523d82523d6000602084013e611581565b606091505b50915091506115928783838761159d565b979650505050505050565b6060831561160c578251600003611605576001600160a01b0385163b6116055760405162461bcd60e51b815260206004820152601d60248201527f416464726573733a2063616c6c20746f206e6f6e2d636f6e747261637400000060448201526064016103e2565b50816114ba565b6114ba83838151156116215781518083602001fd5b8060405162461bcd60e51b81526004016103e29190611b6e565b5050565b6001600160a01b038116811461165457600080fd5b50565b60006040828403121561166957600080fd5b50919050565b600080600080600080600080610140898b03121561168c57600080fd5b88356116978161163f565b975060208901356116a78161163f565b965060408901356116b78161163f565b95506116c68a60608b01611657565b94506116d58a60a08b01611657565b93506116e48a60e08b01611657565b925061012089013567ffffffffffffffff8082111561170257600080fd5b818b0191508b601f83011261171657600080fd5b81358181111561172557600080fd5b8c60208260051b850101111561173a57600080fd5b6020830194508093505050509295985092959890939650565b60006020828403121561176557600080fd5b5035919050565b634e487b7160e01b600052602160045260246000fd5b600981106117a057634e487b7160e01b600052602160045260246000fd5b9052565b600060e082019050825182526020830151602083015260408301511515604083015260608301511515606083015260808301516117e46080840182611782565b5060a083015160a083015260c083015160c083015292915050565b61ffff8116811461165457600080fd5b60008060008060006080868803121561182757600080fd5b853594506020860135611839816117ff565b9350604086013567ffffffffffffffff8082111561185657600080fd5b818801915088601f83011261186a57600080fd5b81358181111561187957600080fd5b8960208260061b850101111561188e57600080fd5b96999598505060200195606001359392505050565b600080604083850312156118b657600080fd5b823591506020830135600981106118cc57600080fd5b809150509250929050565b878152602081018790528515156040820152841515606082015260e081016119026080830186611782565b60a082019390935260c0015295945050505050565b6000806040838503121561192a57600080fd5b50508035926020909101359150565b8135611944816117ff565b61ffff8116905081548161ffff19821617835560208401356119658161163f565b6001600160b01b03199190911690911760109190911b62010000600160b01b031617905550565b81356119978161163f565b81546001600160a01b0319166001600160a01b03919091161781556020919091013560019190910155565b61163b828261198c565b6000813563ffffffff811681146119e257600080fd5b92915050565b63ffffffff6119f6836119cc565b1681548163ffffffff19821617835567ffffffff00000000611a1a602086016119cc565b60201b168267ffffffffffffffff1983161717835550505050565b634e487b7160e01b600052603260045260246000fd5b6020808252601b908201527f457363726f7756333a20696e76616c6964206d696c6573746f6e650000000000604082015260600190565b634e487b7160e01b600052601160045260246000fd5b808201808211156119e2576119e2611a82565b818103818111156119e2576119e2611a82565b80820281158282048414176119e2576119e2611a82565b600082611af257634e487b7160e01b600052601260045260246000fd5b500490565b602081016119e28284611782565b600060208284031215611b1757600080fd5b81518015158114611b2757600080fd5b9392505050565b60005b83811015611b49578181015183820152602001611b31565b50506000910152565b60008251611b64818460208701611b2e565b9190910192915050565b6020815260008251806020840152611b8d816040850160208701611b2e565b601f01601f1916919091016040019291505056fee6971e1fa5069ef0ac111c9a8c3c6ae90667ddd05771ece6c5f0dfd64fc3e700a2646970667358221220cb9692744542881fcbc0b89eb731ffef9e334626d0eee6395d5ab23b0bf997fa64736f6c63430008180033","opcodes":"PUSH1 0x80 PUSH1 0x40 MSTORE CALLVALUE DUP1 ISZERO PUSH2 0x10 JUMPI PUSH1 0x0 DUP1 REVERT JUMPDEST POP PUSH2 0x1BF7 DUP1 PUSH2 0x20 PUSH1 0x0 CODECOPY PUSH1 0x0 RETURN INVALID PUSH1 0x80 PUSH1 0x40 MSTORE CALLVALUE DUP1 ISZERO PUSH2 0x10 JUMPI PUSH1 0x0 DUP1 REVERT JUMPDEST POP PUSH1 0x4 CALLDATASIZE LT PUSH2 0x121 JUMPI PUSH1 0x0 CALLDATALOAD PUSH1 0xE0 SHR DUP1 PUSH4 0x5D9BF255 GT PUSH2 0xAD JUMPI DUP1 PUSH4 0xAF754848 GT PUSH2 0x71 JUMPI DUP1 PUSH4 0xAF754848 EQ PUSH2 0x2CD JUMPI DUP1 PUSH4 0xCD446735 EQ PUSH2 0x336 JUMPI DUP1 PUSH4 0xE89E4ED6 EQ PUSH2 0x347 JUMPI DUP1 PUSH4 0xFBCB09D3 EQ PUSH2 0x36D JUMPI DUP1 PUSH4 0xFC0C546A EQ PUSH2 0x380 JUMPI PUSH1 0x0 DUP1 REVERT JUMPDEST DUP1 PUSH4 0x5D9BF255 EQ PUSH2 0x242 JUMPI DUP1 PUSH4 0x73A482E9 EQ PUSH2 0x255 JUMPI DUP1 PUSH4 0x8F4CF247 EQ PUSH2 0x268 JUMPI DUP1 PUSH4 0x9AF1D35A EQ PUSH2 0x279 JUMPI DUP1 PUSH4 0xAE90B213 EQ PUSH2 0x2BA JUMPI PUSH1 0x0 DUP1 REVERT JUMPDEST DUP1 PUSH4 0x2582D4C4 GT PUSH2 0xF4 JUMPI DUP1 PUSH4 0x2582D4C4 EQ PUSH2 0x19C JUMPI DUP1 PUSH4 0x2713F36E EQ PUSH2 0x1AF JUMPI DUP1 PUSH4 0x30AA81C6 EQ PUSH2 0x1E8 JUMPI DUP1 PUSH4 0x403DE107 EQ PUSH2 0x1F9 JUMPI DUP1 PUSH4 0x58516661 EQ PUSH2 0x20C JUMPI PUSH1 0x0 DUP1 REVERT JUMPDEST DUP1 PUSH4 0xA962AF0 EQ PUSH2 0x126 JUMPI DUP1 PUSH4 0x123119CD EQ PUSH2 0x13B JUMPI DUP1 PUSH4 0x21DF0DA7 EQ PUSH2 0x16B JUMPI DUP1 PUSH4 0x2442E1CB EQ PUSH2 0x17C JUMPI JUMPDEST PUSH1 0x0 DUP1 REVERT JUMPDEST PUSH2 0x139 PUSH2 0x134 CALLDATASIZE PUSH1 0x4 PUSH2 0x166F JUMP JUMPDEST PUSH2 0x393 JUMP JUMPDEST STOP JUMPDEST PUSH1 0x0 SLOAD PUSH2 0x14E SWAP1 PUSH1 0x1 PUSH1 0x1 PUSH1 0xA0 SHL SUB AND DUP2 JUMP JUMPDEST PUSH1 0x40 MLOAD PUSH1 0x1 PUSH1 0x1 PUSH1 0xA0 SHL SUB SWAP1 SWAP2 AND DUP2 MSTORE PUSH1 0x20 ADD JUMPDEST PUSH1 0x40 MLOAD DUP1 SWAP2 SUB SWAP1 RETURN JUMPDEST PUSH1 0x2 SLOAD PUSH1 0x1 PUSH1 0x1 PUSH1 0xA0 SHL SUB AND PUSH2 0x14E JUMP JUMPDEST PUSH2 0x18F PUSH2 0x18A CALLDATASIZE PUSH1 0x4 PUSH2 0x1753 JUMP JUMPDEST PUSH2 0x6B6 JUMP JUMPDEST PUSH1 0x40 MLOAD PUSH2 0x162 SWAP2 SWAP1 PUSH2 0x17A4 JUMP JUMPDEST PUSH2 0x139 PUSH2 0x1AA CALLDATASIZE PUSH1 0x4 PUSH2 0x180F JUMP JUMPDEST PUSH2 0x7C1 JUMP JUMPDEST PUSH1 0x6 SLOAD PUSH2 0x1CB SWAP1 PUSH4 0xFFFFFFFF DUP1 DUP3 AND SWAP2 PUSH5 0x100000000 SWAP1 DIV AND DUP3 JUMP JUMPDEST PUSH1 0x40 DUP1 MLOAD PUSH4 0xFFFFFFFF SWAP4 DUP5 AND DUP2 MSTORE SWAP3 SWAP1 SWAP2 AND PUSH1 0x20 DUP4 ADD MSTORE ADD PUSH2 0x162 JUMP JUMPDEST PUSH1 0x0 SLOAD PUSH1 0x1 PUSH1 0x1 PUSH1 0xA0 SHL SUB AND PUSH2 0x14E JUMP JUMPDEST PUSH2 0x139 PUSH2 0x207 CALLDATASIZE PUSH1 0x4 PUSH2 0x1753 JUMP JUMPDEST PUSH2 0x9D9 JUMP JUMPDEST PUSH1 0x4 SLOAD PUSH1 0x5 SLOAD PUSH2 0x223 SWAP2 PUSH1 0x1 PUSH1 0x1 PUSH1 0xA0 SHL SUB AND SWAP1 DUP3 JUMP JUMPDEST PUSH1 0x40 DUP1 MLOAD PUSH1 0x1 PUSH1 0x1 PUSH1 0xA0 SHL SUB SWAP1 SWAP4 AND DUP4 MSTORE PUSH1 0x20 DUP4 ADD SWAP2 SWAP1 SWAP2 MSTORE ADD PUSH2 0x162 JUMP JUMPDEST PUSH2 0x139 PUSH2 0x250 CALLDATASIZE PUSH1 0x4 PUSH2 0x18A3 JUMP JUMPDEST PUSH2 0xD8D JUMP JUMPDEST PUSH2 0x139 PUSH2 0x263 CALLDATASIZE PUSH1 0x4 PUSH2 0x1753 JUMP JUMPDEST PUSH2 0xEA2 JUMP JUMPDEST PUSH1 0x7 SLOAD PUSH1 0x40 MLOAD SWAP1 DUP2 MSTORE PUSH1 0x20 ADD PUSH2 0x162 JUMP JUMPDEST PUSH1 0x3 SLOAD PUSH2 0x298 SWAP1 PUSH2 0xFFFF DUP2 AND SWAP1 PUSH3 0x10000 SWAP1 DIV PUSH1 0x1 PUSH1 0x1 PUSH1 0xA0 SHL SUB AND DUP3 JUMP JUMPDEST PUSH1 0x40 DUP1 MLOAD PUSH2 0xFFFF SWAP1 SWAP4 AND DUP4 MSTORE PUSH1 0x1 PUSH1 0x1 PUSH1 0xA0 SHL SUB SWAP1 SWAP2 AND PUSH1 0x20 DUP4 ADD MSTORE ADD PUSH2 0x162 JUMP JUMPDEST PUSH1 0x1 SLOAD PUSH2 0x14E SWAP1 PUSH1 0x1 PUSH1 0x1 PUSH1 0xA0 SHL SUB AND DUP2 JUMP JUMPDEST PUSH2 0x30B PUSH2 0x2DB CALLDATASIZE PUSH1 0x4 PUSH2 0x1753 JUMP JUMPDEST PUSH1 0x0 SWAP1 DUP2 MSTORE PUSH1 0x8 PUSH1 0x20 MSTORE PUSH1 0x40 SWAP1 KECCAK256 DUP1 SLOAD PUSH1 0x2 DUP3 ADD SLOAD PUSH1 0x3 DUP4 ADD SLOAD PUSH1 0x1 SWAP1 SWAP4 ADD SLOAD PUSH2 0xFFFF SWAP1 SWAP3 AND SWAP4 SWAP1 SWAP3 PUSH1 0xFF AND SWAP2 SWAP1 JUMP JUMPDEST PUSH1 0x40 DUP1 MLOAD PUSH2 0xFFFF SWAP1 SWAP6 AND DUP6 MSTORE PUSH1 0x20 DUP6 ADD SWAP4 SWAP1 SWAP4 MSTORE SWAP1 ISZERO ISZERO SWAP2 DUP4 ADD SWAP2 SWAP1 SWAP2 MSTORE PUSH1 0x60 DUP3 ADD MSTORE PUSH1 0x80 ADD PUSH2 0x162 JUMP JUMPDEST PUSH1 0x1 SLOAD PUSH1 0x1 PUSH1 0x1 PUSH1 0xA0 SHL SUB AND PUSH2 0x14E JUMP JUMPDEST PUSH2 0x35A PUSH2 0x355 CALLDATASIZE PUSH1 0x4 PUSH2 0x1753 JUMP JUMPDEST PUSH2 0x108B JUMP JUMPDEST PUSH1 0x40 MLOAD PUSH2 0x162 SWAP8 SWAP7 SWAP6 SWAP5 SWAP4 SWAP3 SWAP2 SWAP1 PUSH2 0x18D7 JUMP JUMPDEST PUSH2 0x139 PUSH2 0x37B CALLDATASIZE PUSH1 0x4 PUSH2 0x1917 JUMP JUMPDEST PUSH2 0x10E3 JUMP JUMPDEST PUSH1 0x2 SLOAD PUSH2 0x14E SWAP1 PUSH1 0x1 PUSH1 0x1 PUSH1 0xA0 SHL SUB AND DUP2 JUMP JUMPDEST PUSH1 0x9 SLOAD PUSH1 0xFF AND ISZERO PUSH2 0x3EB JUMPI PUSH1 0x40 MLOAD PUSH3 0x461BCD PUSH1 0xE5 SHL DUP2 MSTORE PUSH1 0x20 PUSH1 0x4 DUP3 ADD MSTORE PUSH1 0x1D PUSH1 0x24 DUP3 ADD MSTORE PUSH32 0x457363726F7756333A20616C726561647920696E697469616C697A6564000000 PUSH1 0x44 DUP3 ADD MSTORE PUSH1 0x64 ADD JUMPDEST PUSH1 0x40 MLOAD DUP1 SWAP2 SUB SWAP1 REVERT JUMPDEST PUSH1 0x1 PUSH1 0x1 PUSH1 0xA0 SHL SUB DUP9 AND PUSH2 0x438 JUMPI PUSH1 0x40 MLOAD PUSH3 0x461BCD PUSH1 0xE5 SHL DUP2 MSTORE PUSH1 0x20 PUSH1 0x4 DUP3 ADD MSTORE PUSH1 0x14 PUSH1 0x24 DUP3 ADD MSTORE PUSH20 0x22B9B1B937BBAB199D103D32B937903830BCB2B9 PUSH1 0x61 SHL PUSH1 0x44 DUP3 ADD MSTORE PUSH1 0x64 ADD PUSH2 0x3E2 JUMP JUMPDEST PUSH1 0x1 PUSH1 0x1 PUSH1 0xA0 SHL SUB DUP8 AND PUSH2 0x485 JUMPI PUSH1 0x40 MLOAD PUSH3 0x461BCD PUSH1 0xE5 SHL DUP2 MSTORE PUSH1 0x20 PUSH1 0x4 DUP3 ADD MSTORE PUSH1 0x14 PUSH1 0x24 DUP3 ADD MSTORE PUSH20 0x457363726F7756333A207A65726F207061796565 PUSH1 0x60 SHL PUSH1 0x44 DUP3 ADD MSTORE PUSH1 0x64 ADD PUSH2 0x3E2 JUMP JUMPDEST PUSH1 0x1 PUSH1 0x1 PUSH1 0xA0 SHL SUB DUP7 AND PUSH2 0x4D2 JUMPI PUSH1 0x40 MLOAD PUSH3 0x461BCD PUSH1 0xE5 SHL DUP2 MSTORE PUSH1 0x20 PUSH1 0x4 DUP3 ADD MSTORE PUSH1 0x14 PUSH1 0x24 DUP3 ADD MSTORE PUSH20 0x22B9B1B937BBAB199D103D32B937903A37B5B2B7 PUSH1 0x61 SHL PUSH1 0x44 DUP3 ADD MSTORE PUSH1 0x64 ADD PUSH2 0x3E2 JUMP JUMPDEST DUP1 PUSH2 0x51F JUMPI PUSH1 0x40 MLOAD PUSH3 0x461BCD PUSH1 0xE5 SHL DUP2 MSTORE PUSH1 0x20 PUSH1 0x4 DUP3 ADD MSTORE PUSH1 0x17 PUSH1 0x24 DUP3 ADD MSTORE PUSH32 0x457363726F7756333A206E6F206D696C6573746F6E6573000000000000000000 PUSH1 0x44 DUP3 ADD MSTORE PUSH1 0x64 ADD PUSH2 0x3E2 JUMP JUMPDEST PUSH1 0x0 DUP1 SLOAD PUSH1 0x1 PUSH1 0x1 PUSH1 0xA0 SHL SUB DUP1 DUP12 AND PUSH1 0x1 PUSH1 0x1 PUSH1 0xA0 SHL SUB NOT SWAP3 DUP4 AND OR SWAP1 SWAP3 SSTORE PUSH1 0x1 DUP1 SLOAD DUP11 DUP5 AND SWAP1 DUP4 AND OR SWAP1 SSTORE PUSH1 0x2 DUP1 SLOAD SWAP3 DUP10 AND SWAP3 SWAP1 SWAP2 AND SWAP2 SWAP1 SWAP2 OR SWAP1 SSTORE DUP5 PUSH1 0x3 PUSH2 0x569 DUP3 DUP3 PUSH2 0x1939 JUMP JUMPDEST POP DUP5 SWAP1 POP PUSH1 0x4 PUSH2 0x579 DUP3 DUP3 PUSH2 0x19C2 JUMP JUMPDEST POP DUP4 SWAP1 POP PUSH1 0x6 PUSH2 0x589 DUP3 DUP3 PUSH2 0x19E8 JUMP JUMPDEST SWAP1 POP POP PUSH1 0x0 JUMPDEST DUP2 DUP2 LT ISZERO PUSH2 0x69E JUMPI PUSH1 0x7 PUSH1 0x40 MLOAD DUP1 PUSH1 0xE0 ADD PUSH1 0x40 MSTORE DUP1 DUP6 DUP6 DUP6 DUP2 DUP2 LT PUSH2 0x5B6 JUMPI PUSH2 0x5B6 PUSH2 0x1A35 JUMP JUMPDEST SWAP1 POP PUSH1 0x20 MUL ADD CALLDATALOAD DUP2 MSTORE PUSH1 0x20 ADD PUSH1 0x0 DUP2 MSTORE PUSH1 0x20 ADD PUSH1 0x0 ISZERO ISZERO DUP2 MSTORE PUSH1 0x20 ADD PUSH1 0x0 ISZERO ISZERO DUP2 MSTORE PUSH1 0x20 ADD PUSH1 0x0 PUSH1 0x8 DUP2 GT ISZERO PUSH2 0x5EE JUMPI PUSH2 0x5EE PUSH2 0x176C JUMP JUMPDEST DUP2 MSTORE PUSH1 0x0 PUSH1 0x20 DUP1 DUP4 ADD DUP3 SWAP1 MSTORE PUSH1 0x40 SWAP3 DUP4 ADD DUP3 SWAP1 MSTORE DUP5 SLOAD PUSH1 0x1 DUP2 DUP2 ADD DUP8 SSTORE SWAP6 DUP4 MSTORE SWAP2 DUP2 SWAP1 KECCAK256 DUP5 MLOAD PUSH1 0x5 SWAP1 SWAP4 MUL ADD SWAP2 DUP3 SSTORE DUP4 ADD MLOAD SWAP4 DUP2 ADD SWAP4 SWAP1 SWAP4 SSTORE DUP2 ADD MLOAD PUSH1 0x2 DUP4 ADD DUP1 SLOAD PUSH1 0x60 DUP5 ADD MLOAD ISZERO ISZERO PUSH2 0x100 MUL PUSH2 0xFF00 NOT SWAP4 ISZERO ISZERO SWAP4 SWAP1 SWAP4 AND PUSH2 0xFFFF NOT SWAP1 SWAP2 AND OR SWAP2 SWAP1 SWAP2 OR DUP1 DUP3 SSTORE PUSH1 0x80 DUP4 ADD MLOAD SWAP3 SWAP4 SWAP3 SWAP2 SWAP1 PUSH3 0xFF0000 NOT AND PUSH3 0x10000 DUP4 PUSH1 0x8 DUP2 GT ISZERO PUSH2 0x67B JUMPI PUSH2 0x67B PUSH2 0x176C JUMP JUMPDEST MUL OR SWAP1 SSTORE POP PUSH1 0xA0 DUP3 ADD MLOAD PUSH1 0x3 DUP3 ADD SSTORE PUSH1 0xC0 SWAP1 SWAP2 ADD MLOAD PUSH1 0x4 SWAP1 SWAP2 ADD SSTORE PUSH1 0x1 ADD PUSH2 0x58F JUMP JUMPDEST POP POP PUSH1 0x9 DUP1 SLOAD PUSH1 0xFF NOT AND PUSH1 0x1 OR SWAP1 SSTORE POP POP POP POP POP POP POP JUMP JUMPDEST PUSH1 0x40 DUP1 MLOAD PUSH1 0xE0 DUP2 ADD DUP3 MSTORE PUSH1 0x0 DUP1 DUP3 MSTORE PUSH1 0x20 DUP3 ADD DUP2 SWAP1 MSTORE SWAP2 DUP2 ADD DUP3 SWAP1 MSTORE PUSH1 0x60 DUP2 ADD DUP3 SWAP1 MSTORE PUSH1 0x80 DUP2 ADD DUP3 SWAP1 MSTORE PUSH1 0xA0 DUP2 ADD DUP3 SWAP1 MSTORE PUSH1 0xC0 DUP2 ADD SWAP2 SWAP1 SWAP2 MSTORE PUSH1 0x7 SLOAD DUP3 LT PUSH2 0x710 JUMPI PUSH1 0x40 MLOAD PUSH3 0x461BCD PUSH1 0xE5 SHL DUP2 MSTORE PUSH1 0x4 ADD PUSH2 0x3E2 SWAP1 PUSH2 0x1A4B JUMP JUMPDEST PUSH1 0x7 DUP3 DUP2 SLOAD DUP2 LT PUSH2 0x723 JUMPI PUSH2 0x723 PUSH2 0x1A35 JUMP JUMPDEST PUSH1 0x0 SWAP2 DUP3 MSTORE PUSH1 0x20 SWAP2 DUP3 SWAP1 KECCAK256 PUSH1 0x40 DUP1 MLOAD PUSH1 0xE0 DUP2 ADD DUP3 MSTORE PUSH1 0x5 SWAP1 SWAP4 MUL SWAP1 SWAP2 ADD DUP1 SLOAD DUP4 MSTORE PUSH1 0x1 DUP2 ADD SLOAD SWAP4 DUP4 ADD SWAP4 SWAP1 SWAP4 MSTORE PUSH1 0x2 DUP4 ADD SLOAD PUSH1 0xFF DUP1 DUP3 AND ISZERO ISZERO SWAP3 DUP5 ADD SWAP3 SWAP1 SWAP3 MSTORE PUSH2 0x100 DUP2 DIV DUP3 AND ISZERO ISZERO PUSH1 0x60 DUP5 ADD MSTORE SWAP2 SWAP3 SWAP2 PUSH1 0x80 DUP5 ADD SWAP2 PUSH3 0x10000 SWAP1 SWAP2 DIV AND PUSH1 0x8 DUP2 GT ISZERO PUSH2 0x792 JUMPI PUSH2 0x792 PUSH2 0x176C JUMP JUMPDEST PUSH1 0x8 DUP2 GT ISZERO PUSH2 0x7A3 JUMPI PUSH2 0x7A3 PUSH2 0x176C JUMP JUMPDEST DUP2 MSTORE PUSH1 0x3 DUP3 ADD SLOAD PUSH1 0x20 DUP3 ADD MSTORE PUSH1 0x4 SWAP1 SWAP2 ADD SLOAD PUSH1 0x40 SWAP1 SWAP2 ADD MSTORE SWAP3 SWAP2 POP POP JUMP JUMPDEST PUSH1 0x7 SLOAD DUP6 LT PUSH2 0x7E2 JUMPI PUSH1 0x40 MLOAD PUSH3 0x461BCD PUSH1 0xE5 SHL DUP2 MSTORE PUSH1 0x4 ADD PUSH2 0x3E2 SWAP1 PUSH2 0x1A4B JUMP JUMPDEST PUSH2 0x2710 DUP5 PUSH2 0xFFFF AND GT ISZERO PUSH2 0x830 JUMPI PUSH1 0x40 MLOAD PUSH3 0x461BCD PUSH1 0xE5 SHL DUP2 MSTORE PUSH1 0x20 PUSH1 0x4 DUP3 ADD MSTORE PUSH1 0x15 PUSH1 0x24 DUP3 ADD MSTORE PUSH21 0x457363726F7756333A20627073203E20313030303 PUSH1 0x5C SHL PUSH1 0x44 DUP3 ADD MSTORE PUSH1 0x64 ADD PUSH2 0x3E2 JUMP JUMPDEST DUP1 PUSH2 0x87D JUMPI PUSH1 0x40 MLOAD PUSH3 0x461BCD PUSH1 0xE5 SHL DUP2 MSTORE PUSH1 0x20 PUSH1 0x4 DUP3 ADD MSTORE PUSH1 0x1C PUSH1 0x24 DUP3 ADD MSTORE PUSH32 0x457363726F7756333A20656D7074792072656365697074206861736800000000 PUSH1 0x44 DUP3 ADD MSTORE PUSH1 0x64 ADD PUSH2 0x3E2 JUMP JUMPDEST PUSH1 0x0 DUP6 DUP2 MSTORE PUSH1 0x8 PUSH1 0x20 MSTORE PUSH1 0x40 SWAP1 KECCAK256 PUSH1 0x3 DUP2 ADD SLOAD PUSH1 0xFF AND ISZERO PUSH2 0x8E0 JUMPI PUSH1 0x40 MLOAD PUSH3 0x461BCD PUSH1 0xE5 SHL DUP2 MSTORE PUSH1 0x20 PUSH1 0x4 DUP3 ADD MSTORE PUSH1 0x1E PUSH1 0x24 DUP3 ADD MSTORE PUSH32 0x457363726F7756333A206465636973696F6E20616C7265616479207365740000 PUSH1 0x44 DUP3 ADD MSTORE PUSH1 0x64 ADD PUSH2 0x3E2 JUMP JUMPDEST DUP1 SLOAD PUSH2 0xFFFF NOT AND PUSH2 0xFFFF DUP7 AND OR DUP2 SSTORE PUSH1 0x2 DUP2 ADD DUP3 SWAP1 SSTORE PUSH1 0x3 DUP2 ADD DUP1 SLOAD PUSH1 0xFF NOT AND PUSH1 0x1 OR SWAP1 SSTORE PUSH1 0x0 JUMPDEST DUP4 DUP2 LT ISZERO PUSH2 0x95E JUMPI DUP2 PUSH1 0x1 ADD DUP6 DUP6 DUP4 DUP2 DUP2 LT PUSH2 0x926 JUMPI PUSH2 0x926 PUSH2 0x1A35 JUMP JUMPDEST DUP4 SLOAD PUSH1 0x1 DUP2 ADD DUP6 SSTORE PUSH1 0x0 SWAP5 DUP6 MSTORE PUSH1 0x20 SWAP1 SWAP5 KECCAK256 PUSH1 0x40 SWAP1 SWAP2 MUL SWAP3 SWAP1 SWAP3 ADD SWAP3 PUSH1 0x2 MUL SWAP1 SWAP2 ADD SWAP1 POP PUSH2 0x954 DUP3 DUP3 PUSH2 0x19C2 JUMP JUMPDEST POP POP PUSH1 0x1 ADD PUSH2 0x908 JUMP JUMPDEST POP DUP2 PUSH1 0x7 DUP8 DUP2 SLOAD DUP2 LT PUSH2 0x973 JUMPI PUSH2 0x973 PUSH2 0x1A35 JUMP JUMPDEST SWAP1 PUSH1 0x0 MSTORE PUSH1 0x20 PUSH1 0x0 KECCAK256 SWAP1 PUSH1 0x5 MUL ADD PUSH1 0x4 ADD DUP2 SWAP1 SSTORE POP DUP6 PUSH32 0x2D3855BEFD5F5814AE4AEE94725E3DE5987B5E85EAB02D7AA248277232B81E31 DUP7 DUP5 PUSH1 0x40 MLOAD PUSH2 0x9C9 SWAP3 SWAP2 SWAP1 PUSH2 0xFFFF SWAP3 SWAP1 SWAP3 AND DUP3 MSTORE PUSH1 0x20 DUP3 ADD MSTORE PUSH1 0x40 ADD SWAP1 JUMP JUMPDEST PUSH1 0x40 MLOAD DUP1 SWAP2 SUB SWAP1 LOG2 POP POP POP POP POP POP JUMP JUMPDEST PUSH1 0x7 SLOAD DUP2 LT PUSH2 0x9FA JUMPI PUSH1 0x40 MLOAD PUSH3 0x461BCD PUSH1 0xE5 SHL DUP2 MSTORE PUSH1 0x4 ADD PUSH2 0x3E2 SWAP1 PUSH2 0x1A4B JUMP JUMPDEST PUSH1 0x0 PUSH1 0x7 DUP3 DUP2 SLOAD DUP2 LT PUSH2 0xA0F JUMPI PUSH2 0xA0F PUSH2 0x1A35 JUMP JUMPDEST PUSH1 0x0 SWAP2 DUP3 MSTORE PUSH1 0x20 SWAP1 SWAP2 KECCAK256 PUSH1 0x5 SWAP1 SWAP2 MUL ADD PUSH1 0x2 DUP2 ADD SLOAD SWAP1 SWAP2 POP PUSH1 0xFF AND PUSH2 0xA6D JUMPI PUSH1 0x40 MLOAD PUSH3 0x461BCD PUSH1 0xE5 SHL DUP2 MSTORE PUSH1 0x20 PUSH1 0x4 DUP3 ADD MSTORE PUSH1 0x14 PUSH1 0x24 DUP3 ADD MSTORE PUSH20 0x115CD8DC9BDDD58CCE881B9BDD08199D5B991959 PUSH1 0x62 SHL PUSH1 0x44 DUP3 ADD MSTORE PUSH1 0x64 ADD PUSH2 0x3E2 JUMP JUMPDEST PUSH1 0x7 PUSH1 0x2 DUP3 ADD SLOAD PUSH3 0x10000 SWAP1 DIV PUSH1 0xFF AND PUSH1 0x8 DUP2 GT ISZERO PUSH2 0xA8E JUMPI PUSH2 0xA8E PUSH2 0x176C JUMP JUMPDEST SUB PUSH2 0xADB JUMPI PUSH1 0x40 MLOAD PUSH3 0x461BCD PUSH1 0xE5 SHL DUP2 MSTORE PUSH1 0x20 PUSH1 0x4 DUP3 ADD MSTORE PUSH1 0x1A PUSH1 0x24 DUP3 ADD MSTORE PUSH32 0x457363726F7756333A20616C72656164792072656C6561736564000000000000 PUSH1 0x44 DUP3 ADD MSTORE PUSH1 0x64 ADD PUSH2 0x3E2 JUMP JUMPDEST PUSH1 0x0 DUP3 DUP2 MSTORE PUSH1 0x8 PUSH1 0x20 MSTORE PUSH1 0x40 SWAP1 KECCAK256 PUSH1 0x3 DUP2 ADD SLOAD PUSH1 0xFF AND PUSH2 0xB3D JUMPI PUSH1 0x40 MLOAD PUSH3 0x461BCD PUSH1 0xE5 SHL DUP2 MSTORE PUSH1 0x20 PUSH1 0x4 DUP3 ADD MSTORE PUSH1 0x19 PUSH1 0x24 DUP3 ADD MSTORE PUSH32 0x457363726F7756333A206E6F206465636973696F6E2073657400000000000000 PUSH1 0x44 DUP3 ADD MSTORE PUSH1 0x64 ADD PUSH2 0x3E2 JUMP JUMPDEST DUP2 SLOAD PUSH1 0x0 DUP1 JUMPDEST PUSH1 0x1 DUP5 ADD SLOAD DUP2 LT ISZERO PUSH2 0xC23 JUMPI PUSH1 0x0 DUP5 PUSH1 0x1 ADD DUP3 DUP2 SLOAD DUP2 LT PUSH2 0xB66 JUMPI PUSH2 0xB66 PUSH2 0x1A35 JUMP JUMPDEST PUSH1 0x0 SWAP2 DUP3 MSTORE PUSH1 0x20 SWAP2 DUP3 SWAP1 KECCAK256 PUSH1 0x40 DUP1 MLOAD DUP1 DUP3 ADD SWAP1 SWAP2 MSTORE PUSH1 0x2 SWAP1 SWAP3 MUL ADD DUP1 SLOAD PUSH1 0x1 PUSH1 0x1 PUSH1 0xA0 SHL SUB AND DUP1 DUP4 MSTORE PUSH1 0x1 SWAP1 SWAP2 ADD SLOAD SWAP3 DUP3 ADD SWAP3 SWAP1 SWAP3 MSTORE SWAP2 POP PUSH2 0xBEA JUMPI PUSH1 0x40 MLOAD PUSH3 0x461BCD PUSH1 0xE5 SHL DUP2 MSTORE PUSH1 0x20 PUSH1 0x4 DUP3 ADD MSTORE PUSH1 0x1D PUSH1 0x24 DUP3 ADD MSTORE PUSH32 0x457363726F7756333A207A65726F207061796F75742061646472657373000000 PUSH1 0x44 DUP3 ADD MSTORE PUSH1 0x64 ADD PUSH2 0x3E2 JUMP JUMPDEST PUSH1 0x20 DUP2 ADD MLOAD PUSH2 0xBF9 SWAP1 DUP5 PUSH2 0x1A98 JUMP JUMPDEST DUP2 MLOAD PUSH1 0x20 DUP4 ADD MLOAD PUSH1 0x2 SLOAD SWAP3 SWAP6 POP PUSH2 0xC1A SWAP3 PUSH1 0x1 PUSH1 0x1 PUSH1 0xA0 SHL SUB AND SWAP2 SWAP1 PUSH2 0x1330 JUMP JUMPDEST POP PUSH1 0x1 ADD PUSH2 0xB43 JUMP JUMPDEST POP DUP2 DUP2 GT ISZERO PUSH2 0xC82 JUMPI PUSH1 0x40 MLOAD PUSH3 0x461BCD PUSH1 0xE5 SHL DUP2 MSTORE PUSH1 0x20 PUSH1 0x4 DUP3 ADD MSTORE PUSH1 0x25 PUSH1 0x24 DUP3 ADD MSTORE PUSH32 0x457363726F7756333A206578747261207061796F757473206578636565642061 PUSH1 0x44 DUP3 ADD MSTORE PUSH5 0x1B5BDD5B9D PUSH1 0xDA SHL PUSH1 0x64 DUP3 ADD MSTORE PUSH1 0x84 ADD PUSH2 0x3E2 JUMP JUMPDEST PUSH1 0x0 PUSH2 0xC8E DUP3 DUP5 PUSH2 0x1AAB JUMP JUMPDEST DUP5 SLOAD SWAP1 SWAP2 POP PUSH1 0x0 SWAP1 PUSH2 0x2710 SWAP1 PUSH2 0xCA8 SWAP1 PUSH2 0xFFFF AND DUP5 PUSH2 0x1ABE JUMP JUMPDEST PUSH2 0xCB2 SWAP2 SWAP1 PUSH2 0x1AD5 JUMP JUMPDEST SWAP1 POP PUSH1 0x0 PUSH2 0xCC0 DUP3 DUP5 PUSH2 0x1AAB JUMP JUMPDEST SWAP1 POP DUP2 ISZERO PUSH2 0xCE5 JUMPI PUSH1 0x1 SLOAD PUSH1 0x2 SLOAD PUSH2 0xCE5 SWAP2 PUSH1 0x1 PUSH1 0x1 PUSH1 0xA0 SHL SUB SWAP2 DUP3 AND SWAP2 AND DUP5 PUSH2 0x1330 JUMP JUMPDEST DUP1 ISZERO PUSH2 0xD08 JUMPI PUSH1 0x0 SLOAD PUSH1 0x2 SLOAD PUSH2 0xD08 SWAP2 PUSH1 0x1 PUSH1 0x1 PUSH1 0xA0 SHL SUB SWAP2 DUP3 AND SWAP2 AND DUP4 PUSH2 0x1330 JUMP JUMPDEST PUSH1 0x1 DUP8 ADD DUP6 SWAP1 SSTORE PUSH1 0x2 DUP8 ADD DUP1 SLOAD PUSH3 0xFFFF00 NOT AND PUSH3 0x70000 OR SWAP1 SSTORE PUSH1 0x40 DUP1 MLOAD DUP4 DUP2 MSTORE PUSH1 0x20 DUP2 ADD DUP4 SWAP1 MSTORE DUP2 MLOAD DUP11 SWAP3 PUSH32 0x5AA18D940FDB8628E11CF6C2B62E85275D52867AAB6A35F333D253E88927759C SWAP3 DUP3 SWAP1 SUB ADD SWAP1 LOG2 DUP8 PUSH1 0x0 DUP1 MLOAD PUSH1 0x20 PUSH2 0x1BA2 DUP4 CODECOPY DUP2 MLOAD SWAP2 MSTORE PUSH1 0x7 PUSH1 0x40 MLOAD PUSH2 0xD7B SWAP2 SWAP1 PUSH2 0x1AF7 JUMP JUMPDEST PUSH1 0x40 MLOAD DUP1 SWAP2 SUB SWAP1 LOG2 POP POP POP POP POP POP POP POP JUMP JUMPDEST PUSH1 0x7 SLOAD DUP3 LT PUSH2 0xDAE JUMPI PUSH1 0x40 MLOAD PUSH3 0x461BCD PUSH1 0xE5 SHL DUP2 MSTORE PUSH1 0x4 ADD PUSH2 0x3E2 SWAP1 PUSH2 0x1A4B JUMP JUMPDEST PUSH1 0x0 PUSH1 0x7 DUP4 DUP2 SLOAD DUP2 LT PUSH2 0xDC3 JUMPI PUSH2 0xDC3 PUSH2 0x1A35 JUMP JUMPDEST PUSH1 0x0 SWAP2 DUP3 MSTORE PUSH1 0x20 SWAP1 SWAP2 KECCAK256 PUSH1 0x5 SWAP1 SWAP2 MUL ADD SWAP1 POP PUSH1 0x4 DUP3 PUSH1 0x8 DUP2 GT ISZERO PUSH2 0xDE9 JUMPI PUSH2 0xDE9 PUSH2 0x176C JUMP JUMPDEST EQ DUP1 ISZERO PUSH2 0xDF8 JUMPI POP PUSH1 0x3 DUP2 ADD SLOAD ISZERO JUMPDEST ISZERO PUSH2 0xE4D JUMPI PUSH1 0x6 SLOAD PUSH2 0xE10 SWAP1 PUSH4 0xFFFFFFFF AND TIMESTAMP PUSH2 0x1A98 JUMP JUMPDEST PUSH1 0x3 DUP3 ADD DUP2 SWAP1 SSTORE PUSH1 0x40 MLOAD SWAP1 DUP2 MSTORE DUP4 SWAP1 PUSH32 0xF6C61A62FFB7CB3704EBE58FFA420FD3387F0352155FD4CCF9E2F7A326F3D5C8 SWAP1 PUSH1 0x20 ADD PUSH1 0x40 MLOAD DUP1 SWAP2 SUB SWAP1 LOG2 JUMPDEST PUSH1 0x2 DUP2 ADD DUP1 SLOAD DUP4 SWAP2 SWAP1 PUSH3 0xFF0000 NOT AND PUSH3 0x10000 DUP4 PUSH1 0x8 DUP2 GT ISZERO PUSH2 0xE72 JUMPI PUSH2 0xE72 PUSH2 0x176C JUMP JUMPDEST MUL OR SWAP1 SSTORE POP DUP3 PUSH1 0x0 DUP1 MLOAD PUSH1 0x20 PUSH2 0x1BA2 DUP4 CODECOPY DUP2 MLOAD SWAP2 MSTORE DUP4 PUSH1 0x40 MLOAD PUSH2 0xE95 SWAP2 SWAP1 PUSH2 0x1AF7 JUMP JUMPDEST PUSH1 0x40 MLOAD DUP1 SWAP2 SUB SWAP1 LOG2 POP POP POP JUMP JUMPDEST PUSH1 0x0 SLOAD PUSH1 0x1 PUSH1 0x1 PUSH1 0xA0 SHL SUB AND CALLER EQ PUSH2 0xEF3 JUMPI PUSH1 0x40 MLOAD PUSH3 0x461BCD PUSH1 0xE5 SHL DUP2 MSTORE PUSH1 0x20 PUSH1 0x4 DUP3 ADD MSTORE PUSH1 0x14 PUSH1 0x24 DUP3 ADD MSTORE PUSH20 0x22B9B1B937BBAB199D1037B7363C903830BCB2B9 PUSH1 0x61 SHL PUSH1 0x44 DUP3 ADD MSTORE PUSH1 0x64 ADD PUSH2 0x3E2 JUMP JUMPDEST PUSH1 0x7 SLOAD DUP2 LT PUSH2 0xF14 JUMPI PUSH1 0x40 MLOAD PUSH3 0x461BCD PUSH1 0xE5 SHL DUP2 MSTORE PUSH1 0x4 ADD PUSH2 0x3E2 SWAP1 PUSH2 0x1A4B JUMP JUMPDEST PUSH1 0x0 PUSH1 0x7 DUP3 DUP2 SLOAD DUP2 LT PUSH2 0xF29 JUMPI PUSH2 0xF29 PUSH2 0x1A35 JUMP JUMPDEST PUSH1 0x0 SWAP2 DUP3 MSTORE PUSH1 0x20 SWAP1 SWAP2 KECCAK256 PUSH1 0x5 SWAP1 SWAP2 MUL ADD PUSH1 0x2 DUP2 ADD SLOAD SWAP1 SWAP2 POP PUSH1 0xFF AND ISZERO PUSH2 0xF91 JUMPI PUSH1 0x40 MLOAD PUSH3 0x461BCD PUSH1 0xE5 SHL DUP2 MSTORE PUSH1 0x20 PUSH1 0x4 DUP3 ADD MSTORE PUSH1 0x18 PUSH1 0x24 DUP3 ADD MSTORE PUSH32 0x457363726F7756333A20616C72656164792066756E6465640000000000000000 PUSH1 0x44 DUP3 ADD MSTORE PUSH1 0x64 ADD PUSH2 0x3E2 JUMP JUMPDEST PUSH1 0x0 PUSH1 0x2 DUP3 ADD SLOAD PUSH3 0x10000 SWAP1 DIV PUSH1 0xFF AND PUSH1 0x8 DUP2 GT ISZERO PUSH2 0xFB2 JUMPI PUSH2 0xFB2 PUSH2 0x176C JUMP JUMPDEST EQ PUSH2 0xFF8 JUMPI PUSH1 0x40 MLOAD PUSH3 0x461BCD PUSH1 0xE5 SHL DUP2 MSTORE PUSH1 0x20 PUSH1 0x4 DUP3 ADD MSTORE PUSH1 0x16 PUSH1 0x24 DUP3 ADD MSTORE PUSH22 0x457363726F7756333A2077726F6E6720737461747573 PUSH1 0x50 SHL PUSH1 0x44 DUP3 ADD MSTORE PUSH1 0x64 ADD PUSH2 0x3E2 JUMP JUMPDEST DUP1 SLOAD PUSH1 0x2 SLOAD PUSH2 0x1016 SWAP2 PUSH1 0x1 PUSH1 0x1 PUSH1 0xA0 SHL SUB SWAP1 SWAP2 AND SWAP1 CALLER SWAP1 ADDRESS SWAP1 PUSH2 0x1398 JUMP JUMPDEST PUSH1 0x2 DUP2 ADD DUP1 SLOAD PUSH3 0xFF00FF NOT AND PUSH3 0x10001 OR SWAP1 SSTORE DUP1 SLOAD PUSH1 0x40 DUP1 MLOAD SWAP2 DUP3 MSTORE MLOAD DUP4 SWAP2 PUSH32 0xAD6F5443F0021BC2808AC5204F3C96A037DC9406EC9BFDF92A8E81539F04C605 SWAP2 SWAP1 DUP2 SWAP1 SUB PUSH1 0x20 ADD SWAP1 LOG2 DUP2 PUSH1 0x0 DUP1 MLOAD PUSH1 0x20 PUSH2 0x1BA2 DUP4 CODECOPY DUP2 MLOAD SWAP2 MSTORE PUSH1 0x1 PUSH1 0x40 MLOAD PUSH2 0x107F SWAP2 SWAP1 PUSH2 0x1AF7 JUMP JUMPDEST PUSH1 0x40 MLOAD DUP1 SWAP2 SUB SWAP1 LOG2 POP POP JUMP JUMPDEST PUSH1 0x7 DUP2 DUP2 SLOAD DUP2 LT PUSH2 0x109B JUMPI PUSH1 0x0 DUP1 REVERT JUMPDEST PUSH1 0x0 SWAP2 DUP3 MSTORE PUSH1 0x20 SWAP1 SWAP2 KECCAK256 PUSH1 0x5 SWAP1 SWAP2 MUL ADD DUP1 SLOAD PUSH1 0x1 DUP3 ADD SLOAD PUSH1 0x2 DUP4 ADD SLOAD PUSH1 0x3 DUP5 ADD SLOAD PUSH1 0x4 SWAP1 SWAP5 ADD SLOAD SWAP3 SWAP5 POP SWAP1 SWAP3 PUSH1 0xFF DUP1 DUP4 AND SWAP4 PUSH2 0x100 DUP5 DIV DUP3 AND SWAP4 PUSH3 0x10000 SWAP1 DIV SWAP1 SWAP2 AND SWAP2 SWAP1 DUP8 JUMP JUMPDEST PUSH1 0x7 SLOAD DUP3 LT PUSH2 0x1104 JUMPI PUSH1 0x40 MLOAD PUSH3 0x461BCD PUSH1 0xE5 SHL DUP2 MSTORE PUSH1 0x4 ADD PUSH2 0x3E2 SWAP1 PUSH2 0x1A4B JUMP JUMPDEST PUSH1 0x0 PUSH1 0x7 DUP4 DUP2 SLOAD DUP2 LT PUSH2 0x1119 JUMPI PUSH2 0x1119 PUSH2 0x1A35 JUMP JUMPDEST PUSH1 0x0 SWAP2 DUP3 MSTORE PUSH1 0x20 SWAP1 SWAP2 KECCAK256 PUSH1 0x5 SWAP1 SWAP2 MUL ADD PUSH1 0x2 DUP2 ADD SLOAD SWAP1 SWAP2 POP PUSH1 0xFF AND PUSH2 0x1177 JUMPI PUSH1 0x40 MLOAD PUSH3 0x461BCD PUSH1 0xE5 SHL DUP2 MSTORE PUSH1 0x20 PUSH1 0x4 DUP3 ADD MSTORE PUSH1 0x14 PUSH1 0x24 DUP3 ADD MSTORE PUSH20 0x115CD8DC9BDDD58CCE881B9BDD08199D5B991959 PUSH1 0x62 SHL PUSH1 0x44 DUP3 ADD MSTORE PUSH1 0x64 ADD PUSH2 0x3E2 JUMP JUMPDEST PUSH1 0x2 DUP2 ADD SLOAD PUSH2 0x100 SWAP1 DIV PUSH1 0xFF AND ISZERO PUSH2 0x11D1 JUMPI PUSH1 0x40 MLOAD PUSH3 0x461BCD PUSH1 0xE5 SHL DUP2 MSTORE PUSH1 0x20 PUSH1 0x4 DUP3 ADD MSTORE PUSH1 0x18 PUSH1 0x24 DUP3 ADD MSTORE PUSH32 0x457363726F7756333A20616C7265616479206C6F636B65640000000000000000 PUSH1 0x44 DUP3 ADD MSTORE PUSH1 0x64 ADD PUSH2 0x3E2 JUMP JUMPDEST PUSH1 0x1 PUSH1 0x2 DUP3 ADD SLOAD PUSH3 0x10000 SWAP1 DIV PUSH1 0xFF AND PUSH1 0x8 DUP2 GT ISZERO PUSH2 0x11F2 JUMPI PUSH2 0x11F2 PUSH2 0x176C JUMP JUMPDEST EQ DUP1 PUSH2 0x121B JUMPI POP PUSH1 0x2 DUP1 DUP3 ADD SLOAD PUSH3 0x10000 SWAP1 DIV PUSH1 0xFF AND PUSH1 0x8 DUP2 GT ISZERO PUSH2 0x1219 JUMPI PUSH2 0x1219 PUSH2 0x176C JUMP JUMPDEST EQ JUMPDEST DUP1 PUSH2 0x1244 JUMPI POP PUSH1 0x4 PUSH1 0x2 DUP3 ADD SLOAD PUSH3 0x10000 SWAP1 DIV PUSH1 0xFF AND PUSH1 0x8 DUP2 GT ISZERO PUSH2 0x1242 JUMPI PUSH2 0x1242 PUSH2 0x176C JUMP JUMPDEST EQ JUMPDEST DUP1 PUSH2 0x126D JUMPI POP PUSH1 0x5 PUSH1 0x2 DUP3 ADD SLOAD PUSH3 0x10000 SWAP1 DIV PUSH1 0xFF AND PUSH1 0x8 DUP2 GT ISZERO PUSH2 0x126B JUMPI PUSH2 0x126B PUSH2 0x176C JUMP JUMPDEST EQ JUMPDEST PUSH2 0x12C9 JUMPI PUSH1 0x40 MLOAD PUSH3 0x461BCD PUSH1 0xE5 SHL DUP2 MSTORE PUSH1 0x20 PUSH1 0x4 DUP3 ADD MSTORE PUSH1 0x27 PUSH1 0x24 DUP3 ADD MSTORE PUSH32 0x457363726F7756333A2063616E6E6F74206C6F636B20696E2063757272656E74 PUSH1 0x44 DUP3 ADD MSTORE PUSH7 0x20737461747573 PUSH1 0xC8 SHL PUSH1 0x64 DUP3 ADD MSTORE PUSH1 0x84 ADD PUSH2 0x3E2 JUMP JUMPDEST PUSH1 0x2 DUP2 ADD DUP1 SLOAD PUSH3 0xFFFF00 NOT AND PUSH3 0x60100 OR SWAP1 SSTORE PUSH1 0x40 MLOAD DUP3 DUP2 MSTORE DUP4 SWAP1 PUSH32 0x6C0CEA54AE93E2F1B088B80844E61A9FE6E721430C6F82F3389516CE4961ED4 SWAP1 PUSH1 0x20 ADD PUSH1 0x40 MLOAD DUP1 SWAP2 SUB SWAP1 LOG2 DUP3 PUSH1 0x0 DUP1 MLOAD PUSH1 0x20 PUSH2 0x1BA2 DUP4 CODECOPY DUP2 MLOAD SWAP2 MSTORE PUSH1 0x6 PUSH1 0x40 MLOAD PUSH2 0xE95 SWAP2 SWAP1 PUSH2 0x1AF7 JUMP JUMPDEST PUSH1 0x40 MLOAD PUSH1 0x1 PUSH1 0x1 PUSH1 0xA0 SHL SUB DUP4 AND PUSH1 0x24 DUP3 ADD MSTORE PUSH1 0x44 DUP2 ADD DUP3 SWAP1 MSTORE PUSH2 0x1393 SWAP1 DUP5 SWAP1 PUSH4 0xA9059CBB PUSH1 0xE0 SHL SWAP1 PUSH1 0x64 ADD JUMPDEST PUSH1 0x40 DUP1 MLOAD PUSH1 0x1F NOT DUP2 DUP5 SUB ADD DUP2 MSTORE SWAP2 SWAP1 MSTORE PUSH1 0x20 DUP2 ADD DUP1 MLOAD PUSH1 0x1 PUSH1 0x1 PUSH1 0xE0 SHL SUB AND PUSH1 0x1 PUSH1 0x1 PUSH1 0xE0 SHL SUB NOT SWAP1 SWAP4 AND SWAP3 SWAP1 SWAP3 OR SWAP1 SWAP2 MSTORE PUSH2 0x13D6 JUMP JUMPDEST POP POP POP JUMP JUMPDEST PUSH1 0x40 MLOAD PUSH1 0x1 PUSH1 0x1 PUSH1 0xA0 SHL SUB DUP1 DUP6 AND PUSH1 0x24 DUP4 ADD MSTORE DUP4 AND PUSH1 0x44 DUP3 ADD MSTORE PUSH1 0x64 DUP2 ADD DUP3 SWAP1 MSTORE PUSH2 0x13D0 SWAP1 DUP6 SWAP1 PUSH4 0x23B872DD PUSH1 0xE0 SHL SWAP1 PUSH1 0x84 ADD PUSH2 0x135C JUMP JUMPDEST POP POP POP POP JUMP JUMPDEST PUSH1 0x0 PUSH2 0x142B DUP3 PUSH1 0x40 MLOAD DUP1 PUSH1 0x40 ADD PUSH1 0x40 MSTORE DUP1 PUSH1 0x20 DUP2 MSTORE PUSH1 0x20 ADD PUSH32 0x5361666545524332303A206C6F772D6C6576656C2063616C6C206661696C6564 DUP2 MSTORE POP DUP6 PUSH1 0x1 PUSH1 0x1 PUSH1 0xA0 SHL SUB AND PUSH2 0x14AB SWAP1 SWAP3 SWAP2 SWAP1 PUSH4 0xFFFFFFFF AND JUMP JUMPDEST SWAP1 POP DUP1 MLOAD PUSH1 0x0 EQ DUP1 PUSH2 0x144C JUMPI POP DUP1 DUP1 PUSH1 0x20 ADD SWAP1 MLOAD DUP2 ADD SWAP1 PUSH2 0x144C SWAP2 SWAP1 PUSH2 0x1B05 JUMP JUMPDEST PUSH2 0x1393 JUMPI PUSH1 0x40 MLOAD PUSH3 0x461BCD PUSH1 0xE5 SHL DUP2 MSTORE PUSH1 0x20 PUSH1 0x4 DUP3 ADD MSTORE PUSH1 0x2A PUSH1 0x24 DUP3 ADD MSTORE PUSH32 0x5361666545524332303A204552433230206F7065726174696F6E20646964206E PUSH1 0x44 DUP3 ADD MSTORE PUSH10 0x1BDD081CDD58D8D95959 PUSH1 0xB2 SHL PUSH1 0x64 DUP3 ADD MSTORE PUSH1 0x84 ADD PUSH2 0x3E2 JUMP JUMPDEST PUSH1 0x60 PUSH2 0x14BA DUP5 DUP5 PUSH1 0x0 DUP6 PUSH2 0x14C2 JUMP JUMPDEST SWAP5 SWAP4 POP POP POP POP JUMP JUMPDEST PUSH1 0x60 DUP3 SELFBALANCE LT ISZERO PUSH2 0x1523 JUMPI PUSH1 0x40 MLOAD PUSH3 0x461BCD PUSH1 0xE5 SHL DUP2 MSTORE PUSH1 0x20 PUSH1 0x4 DUP3 ADD MSTORE PUSH1 0x26 PUSH1 0x24 DUP3 ADD MSTORE PUSH32 0x416464726573733A20696E73756666696369656E742062616C616E636520666F PUSH1 0x44 DUP3 ADD MSTORE PUSH6 0x1C8818D85B1B PUSH1 0xD2 SHL PUSH1 0x64 DUP3 ADD MSTORE PUSH1 0x84 ADD PUSH2 0x3E2 JUMP JUMPDEST PUSH1 0x0 DUP1 DUP7 PUSH1 0x1 PUSH1 0x1 PUSH1 0xA0 SHL SUB AND DUP6 DUP8 PUSH1 0x40 MLOAD PUSH2 0x153F SWAP2 SWAP1 PUSH2 0x1B52 JUMP JUMPDEST PUSH1 0x0 PUSH1 0x40 MLOAD DUP1 DUP4 SUB DUP2 DUP6 DUP8 GAS CALL SWAP3 POP POP POP RETURNDATASIZE DUP1 PUSH1 0x0 DUP2 EQ PUSH2 0x157C JUMPI PUSH1 0x40 MLOAD SWAP2 POP PUSH1 0x1F NOT PUSH1 0x3F RETURNDATASIZE ADD AND DUP3 ADD PUSH1 0x40 MSTORE RETURNDATASIZE DUP3 MSTORE RETURNDATASIZE PUSH1 0x0 PUSH1 0x20 DUP5 ADD RETURNDATACOPY PUSH2 0x1581 JUMP JUMPDEST PUSH1 0x60 SWAP2 POP JUMPDEST POP SWAP2 POP SWAP2 POP PUSH2 0x1592 DUP8 DUP4 DUP4 DUP8 PUSH2 0x159D JUMP JUMPDEST SWAP8 SWAP7 POP POP POP POP POP POP POP JUMP JUMPDEST PUSH1 0x60 DUP4 ISZERO PUSH2 0x160C JUMPI DUP3 MLOAD PUSH1 0x0 SUB PUSH2 0x1605 JUMPI PUSH1 0x1 PUSH1 0x1 PUSH1 0xA0 SHL SUB DUP6 AND EXTCODESIZE PUSH2 0x1605 JUMPI PUSH1 0x40 MLOAD PUSH3 0x461BCD PUSH1 0xE5 SHL DUP2 MSTORE PUSH1 0x20 PUSH1 0x4 DUP3 ADD MSTORE PUSH1 0x1D PUSH1 0x24 DUP3 ADD MSTORE PUSH32 0x416464726573733A2063616C6C20746F206E6F6E2D636F6E7472616374000000 PUSH1 0x44 DUP3 ADD MSTORE PUSH1 0x64 ADD PUSH2 0x3E2 JUMP JUMPDEST POP DUP2 PUSH2 0x14BA JUMP JUMPDEST PUSH2 0x14BA DUP4 DUP4 DUP2 MLOAD ISZERO PUSH2 0x1621 JUMPI DUP2 MLOAD DUP1 DUP4 PUSH1 0x20 ADD REVERT JUMPDEST DUP1 PUSH1 0x40 MLOAD PUSH3 0x461BCD PUSH1 0xE5 SHL DUP2 MSTORE PUSH1 0x4 ADD PUSH2 0x3E2 SWAP2 SWAP1 PUSH2 0x1B6E JUMP JUMPDEST POP POP JUMP JUMPDEST PUSH1 0x1 PUSH1 0x1 PUSH1 0xA0 SHL SUB DUP2 AND DUP2 EQ PUSH2 0x1654 JUMPI PUSH1 0x0 DUP1 REVERT JUMPDEST POP JUMP JUMPDEST PUSH1 0x0 PUSH1 0x40 DUP3 DUP5 SUB SLT ISZERO PUSH2 0x1669 JUMPI PUSH1 0x0 DUP1 REVERT JUMPDEST POP SWAP2 SWAP1 POP JUMP JUMPDEST PUSH1 0x0 DUP1 PUSH1 0x0 DUP1 PUSH1 0x0 DUP1 PUSH1 0x0 DUP1 PUSH2 0x140 DUP10 DUP12 SUB SLT ISZERO PUSH2 0x168C JUMPI PUSH1 0x0 DUP1 REVERT JUMPDEST DUP9 CALLDATALOAD PUSH2 0x1697 DUP2 PUSH2 0x163F JUMP JUMPDEST SWAP8 POP PUSH1 0x20 DUP10 ADD CALLDATALOAD PUSH2 0x16A7 DUP2 PUSH2 0x163F JUMP JUMPDEST SWAP7 POP PUSH1 0x40 DUP10 ADD CALLDATALOAD PUSH2 0x16B7 DUP2 PUSH2 0x163F JUMP JUMPDEST SWAP6 POP PUSH2 0x16C6 DUP11 PUSH1 0x60 DUP12 ADD PUSH2 0x1657 JUMP JUMPDEST SWAP5 POP PUSH2 0x16D5 DUP11 PUSH1 0xA0 DUP12 ADD PUSH2 0x1657 JUMP JUMPDEST SWAP4 POP PUSH2 0x16E4 DUP11 PUSH1 0xE0 DUP12 ADD PUSH2 0x1657 JUMP JUMPDEST SWAP3 POP PUSH2 0x120 DUP10 ADD CALLDATALOAD PUSH8 0xFFFFFFFFFFFFFFFF DUP1 DUP3 GT ISZERO PUSH2 0x1702 JUMPI PUSH1 0x0 DUP1 REVERT JUMPDEST DUP2 DUP12 ADD SWAP2 POP DUP12 PUSH1 0x1F DUP4 ADD SLT PUSH2 0x1716 JUMPI PUSH1 0x0 DUP1 REVERT JUMPDEST DUP2 CALLDATALOAD DUP2 DUP2 GT ISZERO PUSH2 0x1725 JUMPI PUSH1 0x0 DUP1 REVERT JUMPDEST DUP13 PUSH1 0x20 DUP3 PUSH1 0x5 SHL DUP6 ADD ADD GT ISZERO PUSH2 0x173A JUMPI PUSH1 0x0 DUP1 REVERT JUMPDEST PUSH1 0x20 DUP4 ADD SWAP5 POP DUP1 SWAP4 POP POP POP POP SWAP3 SWAP6 SWAP9 POP SWAP3 SWAP6 SWAP9 SWAP1 SWAP4 SWAP7 POP JUMP JUMPDEST PUSH1 0x0 PUSH1 0x20 DUP3 DUP5 SUB SLT ISZERO PUSH2 0x1765 JUMPI PUSH1 0x0 DUP1 REVERT JUMPDEST POP CALLDATALOAD SWAP2 SWAP1 POP JUMP JUMPDEST PUSH4 0x4E487B71 PUSH1 0xE0 SHL PUSH1 0x0 MSTORE PUSH1 0x21 PUSH1 0x4 MSTORE PUSH1 0x24 PUSH1 0x0 REVERT JUMPDEST PUSH1 0x9 DUP2 LT PUSH2 0x17A0 JUMPI PUSH4 0x4E487B71 PUSH1 0xE0 SHL PUSH1 0x0 MSTORE PUSH1 0x21 PUSH1 0x4 MSTORE PUSH1 0x24 PUSH1 0x0 REVERT JUMPDEST SWAP1 MSTORE JUMP JUMPDEST PUSH1 0x0 PUSH1 0xE0 DUP3 ADD SWAP1 POP DUP3 MLOAD DUP3 MSTORE PUSH1 0x20 DUP4 ADD MLOAD PUSH1 0x20 DUP4 ADD MSTORE PUSH1 0x40 DUP4 ADD MLOAD ISZERO ISZERO PUSH1 0x40 DUP4 ADD MSTORE PUSH1 0x60 DUP4 ADD MLOAD ISZERO ISZERO PUSH1 0x60 DUP4 ADD MSTORE PUSH1 0x80 DUP4 ADD MLOAD PUSH2 0x17E4 PUSH1 0x80 DUP5 ADD DUP3 PUSH2 0x1782 JUMP JUMPDEST POP PUSH1 0xA0 DUP4 ADD MLOAD PUSH1 0xA0 DUP4 ADD MSTORE PUSH1 0xC0 DUP4 ADD MLOAD PUSH1 0xC0 DUP4 ADD MSTORE SWAP3 SWAP2 POP POP JUMP JUMPDEST PUSH2 0xFFFF DUP2 AND DUP2 EQ PUSH2 0x1654 JUMPI PUSH1 0x0 DUP1 REVERT JUMPDEST PUSH1 0x0 DUP1 PUSH1 0x0 DUP1 PUSH1 0x0 PUSH1 0x80 DUP7 DUP9 SUB SLT ISZERO PUSH2 0x1827 JUMPI PUSH1 0x0 DUP1 REVERT JUMPDEST DUP6 CALLDATALOAD SWAP5 POP PUSH1 0x20 DUP7 ADD CALLDATALOAD PUSH2 0x1839 DUP2 PUSH2 0x17FF JUMP JUMPDEST SWAP4 POP PUSH1 0x40 DUP7 ADD CALLDATALOAD PUSH8 0xFFFFFFFFFFFFFFFF DUP1 DUP3 GT ISZERO PUSH2 0x1856 JUMPI PUSH1 0x0 DUP1 REVERT JUMPDEST DUP2 DUP9 ADD SWAP2 POP DUP9 PUSH1 0x1F DUP4 ADD SLT PUSH2 0x186A JUMPI PUSH1 0x0 DUP1 REVERT JUMPDEST DUP2 CALLDATALOAD DUP2 DUP2 GT ISZERO PUSH2 0x1879 JUMPI PUSH1 0x0 DUP1 REVERT JUMPDEST DUP10 PUSH1 0x20 DUP3 PUSH1 0x6 SHL DUP6 ADD ADD GT ISZERO PUSH2 0x188E JUMPI PUSH1 0x0 DUP1 REVERT JUMPDEST SWAP7 SWAP10 SWAP6 SWAP9 POP POP PUSH1 0x20 ADD SWAP6 PUSH1 0x60 ADD CALLDATALOAD SWAP4 SWAP3 POP POP POP JUMP JUMPDEST PUSH1 0x0 DUP1 PUSH1 0x40 DUP4 DUP6 SUB SLT ISZERO PUSH2 0x18B6 JUMPI PUSH1 0x0 DUP1 REVERT JUMPDEST DUP3 CALLDATALOAD SWAP2 POP PUSH1 0x20 DUP4 ADD CALLDATALOAD PUSH1 0x9 DUP2 LT PUSH2 0x18CC JUMPI PUSH1 0x0 DUP1 REVERT JUMPDEST DUP1 SWAP2 POP POP SWAP3 POP SWAP3 SWAP1 POP JUMP JUMPDEST DUP8 DUP2 MSTORE PUSH1 0x20 DUP2 ADD DUP8 SWAP1 MSTORE DUP6 ISZERO ISZERO PUSH1 0x40 DUP3 ADD MSTORE DUP5 ISZERO ISZERO PUSH1 0x60 DUP3 ADD MSTORE PUSH1 0xE0 DUP2 ADD PUSH2 0x1902 PUSH1 0x80 DUP4 ADD DUP7 PUSH2 0x1782 JUMP JUMPDEST PUSH1 0xA0 DUP3 ADD SWAP4 SWAP1 SWAP4 MSTORE PUSH1 0xC0 ADD MSTORE SWAP6 SWAP5 POP POP POP POP POP JUMP JUMPDEST PUSH1 0x0 DUP1 PUSH1 0x40 DUP4 DUP6 SUB SLT ISZERO PUSH2 0x192A JUMPI PUSH1 0x0 DUP1 REVERT JUMPDEST POP POP DUP1 CALLDATALOAD SWAP3 PUSH1 0x20 SWAP1 SWAP2 ADD CALLDATALOAD SWAP2 POP JUMP JUMPDEST DUP2 CALLDATALOAD PUSH2 0x1944 DUP2 PUSH2 0x17FF JUMP JUMPDEST PUSH2 0xFFFF DUP2 AND SWAP1 POP DUP2 SLOAD DUP2 PUSH2 0xFFFF NOT DUP3 AND OR DUP4 SSTORE PUSH1 0x20 DUP5 ADD CALLDATALOAD PUSH2 0x1965 DUP2 PUSH2 0x163F JUMP JUMPDEST PUSH1 0x1 PUSH1 0x1 PUSH1 0xB0 SHL SUB NOT SWAP2 SWAP1 SWAP2 AND SWAP1 SWAP2 OR PUSH1 0x10 SWAP2 SWAP1 SWAP2 SHL PUSH3 0x10000 PUSH1 0x1 PUSH1 0xB0 SHL SUB AND OR SWAP1 SSTORE POP JUMP JUMPDEST DUP2 CALLDATALOAD PUSH2 0x1997 DUP2 PUSH2 0x163F JUMP JUMPDEST DUP2 SLOAD PUSH1 0x1 PUSH1 0x1 PUSH1 0xA0 SHL SUB NOT AND PUSH1 0x1 PUSH1 0x1 PUSH1 0xA0 SHL SUB SWAP2 SWAP1 SWAP2 AND OR DUP2 SSTORE PUSH1 0x20 SWAP2 SWAP1 SWAP2 ADD CALLDATALOAD PUSH1 0x1 SWAP2 SWAP1 SWAP2 ADD SSTORE JUMP JUMPDEST PUSH2 0x163B DUP3 DUP3 PUSH2 0x198C JUMP JUMPDEST PUSH1 0x0 DUP2 CALLDATALOAD PUSH4 0xFFFFFFFF DUP2 AND DUP2 EQ PUSH2 0x19E2 JUMPI PUSH1 0x0 DUP1 REVERT JUMPDEST SWAP3 SWAP2 POP POP JUMP JUMPDEST PUSH4 0xFFFFFFFF PUSH2 0x19F6 DUP4 PUSH2 0x19CC JUMP JUMPDEST AND DUP2 SLOAD DUP2 PUSH4 0xFFFFFFFF NOT DUP3 AND OR DUP4 SSTORE PUSH8 0xFFFFFFFF00000000 PUSH2 0x1A1A PUSH1 0x20 DUP7 ADD PUSH2 0x19CC JUMP JUMPDEST PUSH1 0x20 SHL AND DUP3 PUSH8 0xFFFFFFFFFFFFFFFF NOT DUP4 AND OR OR DUP4 SSTORE POP POP POP POP JUMP JUMPDEST PUSH4 0x4E487B71 PUSH1 0xE0 SHL PUSH1 0x0 MSTORE PUSH1 0x32 PUSH1 0x4 MSTORE PUSH1 0x24 PUSH1 0x0 REVERT JUMPDEST PUSH1 0x20 DUP1 DUP3 MSTORE PUSH1 0x1B SWAP1 DUP3 ADD MSTORE PUSH32 0x457363726F7756333A20696E76616C6964206D696C6573746F6E650000000000 PUSH1 0x40 DUP3 ADD MSTORE PUSH1 0x60 ADD SWAP1 JUMP JUMPDEST PUSH4 0x4E487B71 PUSH1 0xE0 SHL PUSH1 0x0 MSTORE PUSH1 0x11 PUSH1 0x4 MSTORE PUSH1 0x24 PUSH1 0x0 REVERT JUMPDEST DUP1 DUP3 ADD DUP1 DUP3 GT ISZERO PUSH2 0x19E2 JUMPI PUSH2 0x19E2 PUSH2 0x1A82 JUMP JUMPDEST DUP2 DUP2 SUB DUP2 DUP2 GT ISZERO PUSH2 0x19E2 JUMPI PUSH2 0x19E2 PUSH2 0x1A82 JUMP JUMPDEST DUP1 DUP3 MUL DUP2 ISZERO DUP3 DUP3 DIV DUP5 EQ OR PUSH2 0x19E2 JUMPI PUSH2 0x19E2 PUSH2 0x1A82 JUMP JUMPDEST PUSH1 0x0 DUP3 PUSH2 0x1AF2 JUMPI PUSH4 0x4E487B71 PUSH1 0xE0 SHL PUSH1 0x0 MSTORE PUSH1 0x12 PUSH1 0x4 MSTORE PUSH1 0x24 PUSH1 0x0 REVERT JUMPDEST POP DIV SWAP1 JUMP JUMPDEST PUSH1 0x20 DUP2 ADD PUSH2 0x19E2 DUP3 DUP5 PUSH2 0x1782 JUMP JUMPDEST PUSH1 0x0 PUSH1 0x20 DUP3 DUP5 SUB SLT ISZERO PUSH2 0x1B17 JUMPI PUSH1 0x0 DUP1 REVERT JUMPDEST DUP2 MLOAD DUP1 ISZERO ISZERO DUP2 EQ PUSH2 0x1B27 JUMPI PUSH1 0x0 DUP1 REVERT JUMPDEST SWAP4 SWAP3 POP POP POP JUMP JUMPDEST PUSH1 0x0 JUMPDEST DUP4 DUP2 LT ISZERO PUSH2 0x1B49 JUMPI DUP2 DUP2 ADD MLOAD DUP4 DUP3 ADD MSTORE PUSH1 0x20 ADD PUSH2 0x1B31 JUMP JUMPDEST POP POP PUSH1 0x0 SWAP2 ADD MSTORE JUMP JUMPDEST PUSH1 0x0 DUP3 MLOAD PUSH2 0x1B64 DUP2 DUP5 PUSH1 0x20 DUP8 ADD PUSH2 0x1B2E JUMP JUMPDEST SWAP2 SWAP1 SWAP2 ADD SWAP3 SWAP2 POP POP JUMP JUMPDEST PUSH1 0x20 DUP2 MSTORE PUSH1 0x0 DUP3 MLOAD DUP1 PUSH1 0x20 DUP5 ADD MSTORE PUSH2 0x1B8D DUP2 PUSH1 0x40 DUP6 ADD PUSH1 0x20 DUP8 ADD PUSH2 0x1B2E JUMP JUMPDEST PUSH1 0x1F ADD PUSH1 0x1F NOT AND SWAP2 SWAP1 SWAP2 ADD PUSH1 0x40 ADD SWAP3 SWAP2 POP POP JUMP INVALID 0xE6 SWAP8 0x1E 0x1F 0xA5 MOD SWAP15 CREATE 0xAC GT SHR SWAP11 DUP13 EXTCODECOPY PUSH11 0xE90667DDD05771ECE6C5F0 0xDF 0xD6 0x4F 0xC3 0xE7 STOP LOG2 PUSH5 0x6970667358 0x22 SLT KECCAK256 0xCB SWAP7 SWAP3 PUSH21 0x4542881FCBC0B89EB731FFEF9E334626D0EEE6395D GAS 0xB2 EXTCODESIZE SIGNEXTEND 0xF9 SWAP8 STATICCALL PUSH5 0x736F6C6343 STOP ADDMOD XOR STOP CALLER "},"methodIdentifiers":{"agents()":"58516661","executeDecision(uint256)":"403de107","fees()":"9af1d35a","fundMilestone(uint256)":"73a482e9","getDecision(uint256)":"af754848","getMilestone(uint256)":"2442e1cb","getMilestoneCount()":"8f4cf247","getPayee()":"cd446735","getPayer()":"30aa81c6","getToken()":"21df0da7","initialize(address,address,address,(uint16,address),(address,uint256),(uint32,uint32),uint256[])":"0a962af0","lockMilestone(uint256,bytes32)":"fbcb09d3","milestones(uint256)":"e89e4ed6","payee()":"ae90b213","payer()":"123119cd","setDecision(uint256,uint16,(address,uint256)[],bytes32)":"2582d4c4","setMilestoneStatus(uint256,uint8)":"5d9bf255","token()":"fc0c546a","windows()":"2713f36e"}}}}}