{"contracts/bufi/policies/PayoutLimitPolicy.sol":{"PayoutLimitPolicy":{"abi":[{"inputs":[{"internalType":"string","name":"reason","type":"string"}],"name":"PolicyRejected","type":"error"},{"inputs":[{"internalType":"address","name":"_owner","type":"address"},{"internalType":"uint16","name":"_maxPayeeBps","type":"uint16"}],"name":"initialize","outputs":[],"stateMutability":"nonpayable","type":"function"},{"inputs":[],"name":"maxPayeeBps","outputs":[{"internalType":"uint16","name":"","type":"uint16"}],"stateMutability":"view","type":"function"},{"inputs":[],"name":"owner","outputs":[{"internalType":"address","name":"","type":"address"}],"stateMutability":"view","type":"function"},{"inputs":[{"internalType":"address","name":"","type":"address"},{"internalType":"address","name":"","type":"address"},{"internalType":"bytes4","name":"","type":"bytes4"},{"internalType":"bytes[]","name":"parameters","type":"bytes[]"},{"internalType":"bytes","name":"","type":"bytes"}],"name":"run","outputs":[{"internalType":"enum IPolicyEngineForPolicy.PolicyResult","name":"","type":"uint8"}],"stateMutability":"view","type":"function"},{"inputs":[{"internalType":"uint16","name":"_maxPayeeBps","type":"uint16"}],"name":"setMaxPayeeBps","outputs":[],"stateMutability":"nonpayable","type":"function"}],"evm":{"bytecode":{"linkReferences":{},"object":"608060405234801561001057600080fd5b50610659806100206000396000f3fe608060405234801561001057600080fd5b50600436106100575760003560e01c8063892bc3a51461005c5780638da5cb5b1461007157806391d4c5bf146100a7578063e3e3094e146100c8578063f39e69a4146100e8575b600080fd5b61006f61006a3660046103ee565b6100fb565b005b60005461008a906201000090046001600160a01b031681565b6040516001600160a01b0390911681526020015b60405180910390f35b6000546100b59061ffff1681565b60405161ffff909116815260200161009e565b6100db6100d6366004610470565b6101ce565b60405161009e9190610552565b61006f6100f636600461057a565b6102d5565b6000546201000090046001600160a01b031633146101605760405162461bcd60e51b815260206004820152601d60248201527f5061796f75744c696d6974506f6c6963793a206f6e6c79206f776e657200000060448201526064015b60405180910390fd5b6127108161ffff1611156101b65760405162461bcd60e51b815260206004820152601e60248201527f5061796f75744c696d6974506f6c6963793a20627073203e20313030303000006044820152606401610157565b6000805461ffff191661ffff92909216919091179055565b600060018410156102385760405162461bcd60e51b815260206004820152602e60248201527f5061796f75744c696d6974506f6c6963793a206578706563746564207061796560448201526d32a13839903830b930b6b2ba32b960911b6064820152608401610157565b60008585600081811061024d5761024d6105ad565b905060200281019061025f91906105c3565b81019061026c919061060a565b60005490915061ffff168111156102c657604051630e4254bb60e31b815260206004820152601860248201527f70617965654270732065786365656473206d6178696d756d00000000000000006044820152606401610157565b50600098975050505050505050565b600054600160b01b900460ff161561033e5760405162461bcd60e51b815260206004820152602660248201527f5061796f75744c696d6974506f6c6963793a20616c726561647920696e697469604482015265185b1a5e995960d21b6064820152608401610157565b6127108161ffff1611156103945760405162461bcd60e51b815260206004820152601e60248201527f5061796f75744c696d6974506f6c6963793a20627073203e20313030303000006044820152606401610157565b6000805461ffff60ff60b01b01196001600160a01b039094166201000002939093166001600160b81b03199093169290921761ffff90911617600160b01b179055565b803561ffff811681146103e957600080fd5b919050565b60006020828403121561040057600080fd5b610409826103d7565b9392505050565b80356001600160a01b03811681146103e957600080fd5b60008083601f84011261043957600080fd5b50813567ffffffffffffffff81111561045157600080fd5b60208301915083602082850101111561046957600080fd5b9250929050565b600080600080600080600060a0888a03121561048b57600080fd5b61049488610410565b96506104a260208901610410565b955060408801356001600160e01b0319811681146104bf57600080fd5b9450606088013567ffffffffffffffff808211156104dc57600080fd5b818a0191508a601f8301126104f057600080fd5b8135818111156104ff57600080fd5b8b60208260051b850101111561051457600080fd5b6020830196508095505060808a013591508082111561053257600080fd5b5061053f8a828b01610427565b989b979a50959850939692959293505050565b602081016002831061057457634e487b7160e01b600052602160045260246000fd5b91905290565b6000806040838503121561058d57600080fd5b61059683610410565b91506105a4602084016103d7565b90509250929050565b634e487b7160e01b600052603260045260246000fd5b6000808335601e198436030181126105da57600080fd5b83018035915067ffffffffffffffff8211156105f557600080fd5b60200191503681900382131561046957600080fd5b60006020828403121561061c57600080fd5b503591905056fea2646970667358221220ce1f8129041e65250a0c3147b4b8389b6e3963cd3a0d2944874598b78eaadebb64736f6c63430008180033","opcodes":"PUSH1 0x80 PUSH1 0x40 MSTORE CALLVALUE DUP1 ISZERO PUSH2 0x10 JUMPI PUSH1 0x0 DUP1 REVERT JUMPDEST POP PUSH2 0x659 DUP1 PUSH2 0x20 PUSH1 0x0 CODECOPY PUSH1 0x0 RETURN INVALID PUSH1 0x80 PUSH1 0x40 MSTORE CALLVALUE DUP1 ISZERO PUSH2 0x10 JUMPI PUSH1 0x0 DUP1 REVERT JUMPDEST POP PUSH1 0x4 CALLDATASIZE LT PUSH2 0x57 JUMPI PUSH1 0x0 CALLDATALOAD PUSH1 0xE0 SHR DUP1 PUSH4 0x892BC3A5 EQ PUSH2 0x5C JUMPI DUP1 PUSH4 0x8DA5CB5B EQ PUSH2 0x71 JUMPI DUP1 PUSH4 0x91D4C5BF EQ PUSH2 0xA7 JUMPI DUP1 PUSH4 0xE3E3094E EQ PUSH2 0xC8 JUMPI DUP1 PUSH4 0xF39E69A4 EQ PUSH2 0xE8 JUMPI JUMPDEST PUSH1 0x0 DUP1 REVERT JUMPDEST PUSH2 0x6F PUSH2 0x6A CALLDATASIZE PUSH1 0x4 PUSH2 0x3EE JUMP JUMPDEST PUSH2 0xFB JUMP JUMPDEST STOP JUMPDEST PUSH1 0x0 SLOAD PUSH2 0x8A SWAP1 PUSH3 0x10000 SWAP1 DIV PUSH1 0x1 PUSH1 0x1 PUSH1 0xA0 SHL SUB AND DUP2 JUMP JUMPDEST PUSH1 0x40 MLOAD PUSH1 0x1 PUSH1 0x1 PUSH1 0xA0 SHL SUB SWAP1 SWAP2 AND DUP2 MSTORE PUSH1 0x20 ADD JUMPDEST PUSH1 0x40 MLOAD DUP1 SWAP2 SUB SWAP1 RETURN JUMPDEST PUSH1 0x0 SLOAD PUSH2 0xB5 SWAP1 PUSH2 0xFFFF AND DUP2 JUMP JUMPDEST PUSH1 0x40 MLOAD PUSH2 0xFFFF SWAP1 SWAP2 AND DUP2 MSTORE PUSH1 0x20 ADD PUSH2 0x9E JUMP JUMPDEST PUSH2 0xDB PUSH2 0xD6 CALLDATASIZE PUSH1 0x4 PUSH2 0x470 JUMP JUMPDEST PUSH2 0x1CE JUMP JUMPDEST PUSH1 0x40 MLOAD PUSH2 0x9E SWAP2 SWAP1 PUSH2 0x552 JUMP JUMPDEST PUSH2 0x6F PUSH2 0xF6 CALLDATASIZE PUSH1 0x4 PUSH2 0x57A JUMP JUMPDEST PUSH2 0x2D5 JUMP JUMPDEST PUSH1 0x0 SLOAD PUSH3 0x10000 SWAP1 DIV PUSH1 0x1 PUSH1 0x1 PUSH1 0xA0 SHL SUB AND CALLER EQ PUSH2 0x160 JUMPI PUSH1 0x40 MLOAD PUSH3 0x461BCD PUSH1 0xE5 SHL DUP2 MSTORE PUSH1 0x20 PUSH1 0x4 DUP3 ADD MSTORE PUSH1 0x1D PUSH1 0x24 DUP3 ADD MSTORE PUSH32 0x5061796F75744C696D6974506F6C6963793A206F6E6C79206F776E6572000000 PUSH1 0x44 DUP3 ADD MSTORE PUSH1 0x64 ADD JUMPDEST PUSH1 0x40 MLOAD DUP1 SWAP2 SUB SWAP1 REVERT JUMPDEST PUSH2 0x2710 DUP2 PUSH2 0xFFFF AND GT ISZERO PUSH2 0x1B6 JUMPI PUSH1 0x40 MLOAD PUSH3 0x461BCD PUSH1 0xE5 SHL DUP2 MSTORE PUSH1 0x20 PUSH1 0x4 DUP3 ADD MSTORE PUSH1 0x1E PUSH1 0x24 DUP3 ADD MSTORE PUSH32 0x5061796F75744C696D6974506F6C6963793A20627073203E2031303030300000 PUSH1 0x44 DUP3 ADD MSTORE PUSH1 0x64 ADD PUSH2 0x157 JUMP JUMPDEST PUSH1 0x0 DUP1 SLOAD PUSH2 0xFFFF NOT AND PUSH2 0xFFFF SWAP3 SWAP1 SWAP3 AND SWAP2 SWAP1 SWAP2 OR SWAP1 SSTORE JUMP JUMPDEST PUSH1 0x0 PUSH1 0x1 DUP5 LT ISZERO PUSH2 0x238 JUMPI PUSH1 0x40 MLOAD PUSH3 0x461BCD PUSH1 0xE5 SHL DUP2 MSTORE PUSH1 0x20 PUSH1 0x4 DUP3 ADD MSTORE PUSH1 0x2E PUSH1 0x24 DUP3 ADD MSTORE PUSH32 0x5061796F75744C696D6974506F6C6963793A2065787065637465642070617965 PUSH1 0x44 DUP3 ADD MSTORE PUSH14 0x32A13839903830B930B6B2BA32B9 PUSH1 0x91 SHL PUSH1 0x64 DUP3 ADD MSTORE PUSH1 0x84 ADD PUSH2 0x157 JUMP JUMPDEST PUSH1 0x0 DUP6 DUP6 PUSH1 0x0 DUP2 DUP2 LT PUSH2 0x24D JUMPI PUSH2 0x24D PUSH2 0x5AD JUMP JUMPDEST SWAP1 POP PUSH1 0x20 MUL DUP2 ADD SWAP1 PUSH2 0x25F SWAP2 SWAP1 PUSH2 0x5C3 JUMP JUMPDEST DUP2 ADD SWAP1 PUSH2 0x26C SWAP2 SWAP1 PUSH2 0x60A JUMP JUMPDEST PUSH1 0x0 SLOAD SWAP1 SWAP2 POP PUSH2 0xFFFF AND DUP2 GT ISZERO PUSH2 0x2C6 JUMPI PUSH1 0x40 MLOAD PUSH4 0xE4254BB PUSH1 0xE3 SHL DUP2 MSTORE PUSH1 0x20 PUSH1 0x4 DUP3 ADD MSTORE PUSH1 0x18 PUSH1 0x24 DUP3 ADD MSTORE PUSH32 0x70617965654270732065786365656473206D6178696D756D0000000000000000 PUSH1 0x44 DUP3 ADD MSTORE PUSH1 0x64 ADD PUSH2 0x157 JUMP JUMPDEST POP PUSH1 0x0 SWAP9 SWAP8 POP POP POP POP POP POP POP POP JUMP JUMPDEST PUSH1 0x0 SLOAD PUSH1 0x1 PUSH1 0xB0 SHL SWAP1 DIV PUSH1 0xFF AND ISZERO PUSH2 0x33E JUMPI PUSH1 0x40 MLOAD PUSH3 0x461BCD PUSH1 0xE5 SHL DUP2 MSTORE PUSH1 0x20 PUSH1 0x4 DUP3 ADD MSTORE PUSH1 0x26 PUSH1 0x24 DUP3 ADD MSTORE PUSH32 0x5061796F75744C696D6974506F6C6963793A20616C726561647920696E697469 PUSH1 0x44 DUP3 ADD MSTORE PUSH6 0x185B1A5E9959 PUSH1 0xD2 SHL PUSH1 0x64 DUP3 ADD MSTORE PUSH1 0x84 ADD PUSH2 0x157 JUMP JUMPDEST PUSH2 0x2710 DUP2 PUSH2 0xFFFF AND GT ISZERO PUSH2 0x394 JUMPI PUSH1 0x40 MLOAD PUSH3 0x461BCD PUSH1 0xE5 SHL DUP2 MSTORE PUSH1 0x20 PUSH1 0x4 DUP3 ADD MSTORE PUSH1 0x1E PUSH1 0x24 DUP3 ADD MSTORE PUSH32 0x5061796F75744C696D6974506F6C6963793A20627073203E2031303030300000 PUSH1 0x44 DUP3 ADD MSTORE PUSH1 0x64 ADD PUSH2 0x157 JUMP JUMPDEST PUSH1 0x0 DUP1 SLOAD PUSH2 0xFFFF PUSH1 0xFF PUSH1 0xB0 SHL ADD NOT PUSH1 0x1 PUSH1 0x1 PUSH1 0xA0 SHL SUB SWAP1 SWAP5 AND PUSH3 0x10000 MUL SWAP4 SWAP1 SWAP4 AND PUSH1 0x1 PUSH1 0x1 PUSH1 0xB8 SHL SUB NOT SWAP1 SWAP4 AND SWAP3 SWAP1 SWAP3 OR PUSH2 0xFFFF SWAP1 SWAP2 AND OR PUSH1 0x1 PUSH1 0xB0 SHL OR SWAP1 SSTORE JUMP JUMPDEST DUP1 CALLDATALOAD PUSH2 0xFFFF DUP2 AND DUP2 EQ PUSH2 0x3E9 JUMPI PUSH1 0x0 DUP1 REVERT JUMPDEST SWAP2 SWAP1 POP JUMP JUMPDEST PUSH1 0x0 PUSH1 0x20 DUP3 DUP5 SUB SLT ISZERO PUSH2 0x400 JUMPI PUSH1 0x0 DUP1 REVERT JUMPDEST PUSH2 0x409 DUP3 PUSH2 0x3D7 JUMP JUMPDEST SWAP4 SWAP3 POP POP POP JUMP JUMPDEST DUP1 CALLDATALOAD PUSH1 0x1 PUSH1 0x1 PUSH1 0xA0 SHL SUB DUP2 AND DUP2 EQ PUSH2 0x3E9 JUMPI PUSH1 0x0 DUP1 REVERT JUMPDEST PUSH1 0x0 DUP1 DUP4 PUSH1 0x1F DUP5 ADD SLT PUSH2 0x439 JUMPI PUSH1 0x0 DUP1 REVERT JUMPDEST POP DUP2 CALLDATALOAD PUSH8 0xFFFFFFFFFFFFFFFF DUP2 GT ISZERO PUSH2 0x451 JUMPI PUSH1 0x0 DUP1 REVERT JUMPDEST PUSH1 0x20 DUP4 ADD SWAP2 POP DUP4 PUSH1 0x20 DUP3 DUP6 ADD ADD GT ISZERO PUSH2 0x469 JUMPI PUSH1 0x0 DUP1 REVERT JUMPDEST SWAP3 POP SWAP3 SWAP1 POP JUMP JUMPDEST PUSH1 0x0 DUP1 PUSH1 0x0 DUP1 PUSH1 0x0 DUP1 PUSH1 0x0 PUSH1 0xA0 DUP9 DUP11 SUB SLT ISZERO PUSH2 0x48B JUMPI PUSH1 0x0 DUP1 REVERT JUMPDEST PUSH2 0x494 DUP9 PUSH2 0x410 JUMP JUMPDEST SWAP7 POP PUSH2 0x4A2 PUSH1 0x20 DUP10 ADD PUSH2 0x410 JUMP JUMPDEST SWAP6 POP PUSH1 0x40 DUP9 ADD CALLDATALOAD PUSH1 0x1 PUSH1 0x1 PUSH1 0xE0 SHL SUB NOT DUP2 AND DUP2 EQ PUSH2 0x4BF JUMPI PUSH1 0x0 DUP1 REVERT JUMPDEST SWAP5 POP PUSH1 0x60 DUP9 ADD CALLDATALOAD PUSH8 0xFFFFFFFFFFFFFFFF DUP1 DUP3 GT ISZERO PUSH2 0x4DC JUMPI PUSH1 0x0 DUP1 REVERT JUMPDEST DUP2 DUP11 ADD SWAP2 POP DUP11 PUSH1 0x1F DUP4 ADD SLT PUSH2 0x4F0 JUMPI PUSH1 0x0 DUP1 REVERT JUMPDEST DUP2 CALLDATALOAD DUP2 DUP2 GT ISZERO PUSH2 0x4FF JUMPI PUSH1 0x0 DUP1 REVERT JUMPDEST DUP12 PUSH1 0x20 DUP3 PUSH1 0x5 SHL DUP6 ADD ADD GT ISZERO PUSH2 0x514 JUMPI PUSH1 0x0 DUP1 REVERT JUMPDEST PUSH1 0x20 DUP4 ADD SWAP7 POP DUP1 SWAP6 POP POP PUSH1 0x80 DUP11 ADD CALLDATALOAD SWAP2 POP DUP1 DUP3 GT ISZERO PUSH2 0x532 JUMPI PUSH1 0x0 DUP1 REVERT JUMPDEST POP PUSH2 0x53F DUP11 DUP3 DUP12 ADD PUSH2 0x427 JUMP JUMPDEST SWAP9 SWAP12 SWAP8 SWAP11 POP SWAP6 SWAP9 POP SWAP4 SWAP7 SWAP3 SWAP6 SWAP3 SWAP4 POP POP POP JUMP JUMPDEST PUSH1 0x20 DUP2 ADD PUSH1 0x2 DUP4 LT PUSH2 0x574 JUMPI PUSH4 0x4E487B71 PUSH1 0xE0 SHL PUSH1 0x0 MSTORE PUSH1 0x21 PUSH1 0x4 MSTORE PUSH1 0x24 PUSH1 0x0 REVERT JUMPDEST SWAP2 SWAP1 MSTORE SWAP1 JUMP JUMPDEST PUSH1 0x0 DUP1 PUSH1 0x40 DUP4 DUP6 SUB SLT ISZERO PUSH2 0x58D JUMPI PUSH1 0x0 DUP1 REVERT JUMPDEST PUSH2 0x596 DUP4 PUSH2 0x410 JUMP JUMPDEST SWAP2 POP PUSH2 0x5A4 PUSH1 0x20 DUP5 ADD PUSH2 0x3D7 JUMP JUMPDEST SWAP1 POP SWAP3 POP SWAP3 SWAP1 POP JUMP JUMPDEST PUSH4 0x4E487B71 PUSH1 0xE0 SHL PUSH1 0x0 MSTORE PUSH1 0x32 PUSH1 0x4 MSTORE PUSH1 0x24 PUSH1 0x0 REVERT JUMPDEST PUSH1 0x0 DUP1 DUP4 CALLDATALOAD PUSH1 0x1E NOT DUP5 CALLDATASIZE SUB ADD DUP2 SLT PUSH2 0x5DA JUMPI PUSH1 0x0 DUP1 REVERT JUMPDEST DUP4 ADD DUP1 CALLDATALOAD SWAP2 POP PUSH8 0xFFFFFFFFFFFFFFFF DUP3 GT ISZERO PUSH2 0x5F5 JUMPI PUSH1 0x0 DUP1 REVERT JUMPDEST PUSH1 0x20 ADD SWAP2 POP CALLDATASIZE DUP2 SWAP1 SUB DUP3 SGT ISZERO PUSH2 0x469 JUMPI PUSH1 0x0 DUP1 REVERT JUMPDEST PUSH1 0x0 PUSH1 0x20 DUP3 DUP5 SUB SLT ISZERO PUSH2 0x61C JUMPI PUSH1 0x0 DUP1 REVERT JUMPDEST POP CALLDATALOAD SWAP2 SWAP1 POP JUMP INVALID LOG2 PUSH5 0x6970667358 0x22 SLT KECCAK256 0xCE 0x1F DUP2 0x29 DIV 0x1E PUSH6 0x250A0C3147B4 0xB8 CODESIZE SWAP12 PUSH15 0x3963CD3A0D2944874598B78EAADEBB PUSH5 0x736F6C6343 STOP ADDMOD XOR STOP CALLER "},"methodIdentifiers":{"initialize(address,uint16)":"f39e69a4","maxPayeeBps()":"91d4c5bf","owner()":"8da5cb5b","run(address,address,bytes4,bytes[],bytes)":"e3e3094e","setMaxPayeeBps(uint16)":"892bc3a5"}}}}}